{
  "_format": "hh-sol-artifact-1",
  "contractName": "SoulboundNFT",
  "sourceName": "contracts/SoulboundNFT.sol",
  "abi": [
    {
      "inputs": [
        {
          "internalType": "string",
          "name": "name",
          "type": "string"
        },
        {
          "internalType": "string",
          "name": "symbol",
          "type": "string"
        },
        {
          "internalType": "bytes32",
          "name": "merkleRoot",
          "type": "bytes32"
        },
        {
          "internalType": "address",
          "name": "issuerRegistry",
          "type": "address"
        },
        {
          "internalType": "string",
          "name": "baseTokenURI",
          "type": "string"
        }
      ],
      "stateMutability": "nonpayable",
      "type": "constructor"
    },
    {
      "inputs": [
        {
          "internalType": "address",
          "name": "sender",
          "type": "address"
        },
        {
          "internalType": "uint256",
          "name": "tokenId",
          "type": "uint256"
        },
        {
          "internalType": "address",
          "name": "owner",
          "type": "address"
        }
      ],
      "name": "ERC721IncorrectOwner",
      "type": "error"
    },
    {
      "inputs": [
        {
          "internalType": "address",
          "name": "operator",
          "type": "address"
        },
        {
          "internalType": "uint256",
          "name": "tokenId",
          "type": "uint256"
        }
      ],
      "name": "ERC721InsufficientApproval",
      "type": "error"
    },
    {
      "inputs": [
        {
          "internalType": "address",
          "name": "approver",
          "type": "address"
        }
      ],
      "name": "ERC721InvalidApprover",
      "type": "error"
    },
    {
      "inputs": [
        {
          "internalType": "address",
          "name": "operator",
          "type": "address"
        }
      ],
      "name": "ERC721InvalidOperator",
      "type": "error"
    },
    {
      "inputs": [
        {
          "internalType": "address",
          "name": "owner",
          "type": "address"
        }
      ],
      "name": "ERC721InvalidOwner",
      "type": "error"
    },
    {
      "inputs": [
        {
          "internalType": "address",
          "name": "receiver",
          "type": "address"
        }
      ],
      "name": "ERC721InvalidReceiver",
      "type": "error"
    },
    {
      "inputs": [
        {
          "internalType": "address",
          "name": "sender",
          "type": "address"
        }
      ],
      "name": "ERC721InvalidSender",
      "type": "error"
    },
    {
      "inputs": [
        {
          "internalType": "uint256",
          "name": "tokenId",
          "type": "uint256"
        }
      ],
      "name": "ERC721NonexistentToken",
      "type": "error"
    },
    {
      "inputs": [
        {
          "internalType": "address",
          "name": "owner",
          "type": "address"
        }
      ],
      "name": "OwnableInvalidOwner",
      "type": "error"
    },
    {
      "inputs": [
        {
          "internalType": "address",
          "name": "account",
          "type": "address"
        }
      ],
      "name": "OwnableUnauthorizedAccount",
      "type": "error"
    },
    {
      "inputs": [],
      "name": "SoulboundToken",
      "type": "error"
    },
    {
      "anonymous": false,
      "inputs": [
        {
          "indexed": true,
          "internalType": "address",
          "name": "owner",
          "type": "address"
        },
        {
          "indexed": true,
          "internalType": "address",
          "name": "approved",
          "type": "address"
        },
        {
          "indexed": true,
          "internalType": "uint256",
          "name": "tokenId",
          "type": "uint256"
        }
      ],
      "name": "Approval",
      "type": "event"
    },
    {
      "anonymous": false,
      "inputs": [
        {
          "indexed": true,
          "internalType": "address",
          "name": "owner",
          "type": "address"
        },
        {
          "indexed": true,
          "internalType": "address",
          "name": "operator",
          "type": "address"
        },
        {
          "indexed": false,
          "internalType": "bool",
          "name": "approved",
          "type": "bool"
        }
      ],
      "name": "ApprovalForAll",
      "type": "event"
    },
    {
      "anonymous": false,
      "inputs": [
        {
          "indexed": false,
          "internalType": "string",
          "name": "oldBaseURI",
          "type": "string"
        },
        {
          "indexed": false,
          "internalType": "string",
          "name": "newBaseURI",
          "type": "string"
        }
      ],
      "name": "BaseURIUpdated",
      "type": "event"
    },
    {
      "anonymous": false,
      "inputs": [
        {
          "indexed": true,
          "internalType": "address",
          "name": "recipient",
          "type": "address"
        },
        {
          "indexed": true,
          "internalType": "uint256",
          "name": "tokenId",
          "type": "uint256"
        },
        {
          "indexed": true,
          "internalType": "address",
          "name": "issuer",
          "type": "address"
        }
      ],
      "name": "CertificateMinted",
      "type": "event"
    },
    {
      "anonymous": false,
      "inputs": [
        {
          "indexed": false,
          "internalType": "bytes32",
          "name": "oldRoot",
          "type": "bytes32"
        },
        {
          "indexed": false,
          "internalType": "bytes32",
          "name": "newRoot",
          "type": "bytes32"
        }
      ],
      "name": "MerkleRootUpdated",
      "type": "event"
    },
    {
      "anonymous": false,
      "inputs": [
        {
          "indexed": true,
          "internalType": "address",
          "name": "previousOwner",
          "type": "address"
        },
        {
          "indexed": true,
          "internalType": "address",
          "name": "newOwner",
          "type": "address"
        }
      ],
      "name": "OwnershipTransferred",
      "type": "event"
    },
    {
      "anonymous": false,
      "inputs": [
        {
          "indexed": true,
          "internalType": "address",
          "name": "from",
          "type": "address"
        },
        {
          "indexed": true,
          "internalType": "address",
          "name": "to",
          "type": "address"
        },
        {
          "indexed": true,
          "internalType": "uint256",
          "name": "tokenId",
          "type": "uint256"
        }
      ],
      "name": "Transfer",
      "type": "event"
    },
    {
      "inputs": [
        {
          "internalType": "address",
          "name": "",
          "type": "address"
        },
        {
          "internalType": "uint256",
          "name": "",
          "type": "uint256"
        }
      ],
      "name": "approve",
      "outputs": [],
      "stateMutability": "pure",
      "type": "function"
    },
    {
      "inputs": [
        {
          "internalType": "address",
          "name": "owner",
          "type": "address"
        }
      ],
      "name": "balanceOf",
      "outputs": [
        {
          "internalType": "uint256",
          "name": "",
          "type": "uint256"
        }
      ],
      "stateMutability": "view",
      "type": "function"
    },
    {
      "inputs": [
        {
          "internalType": "uint256",
          "name": "tokenId",
          "type": "uint256"
        }
      ],
      "name": "burn",
      "outputs": [],
      "stateMutability": "nonpayable",
      "type": "function"
    },
    {
      "inputs": [
        {
          "internalType": "uint256",
          "name": "",
          "type": "uint256"
        }
      ],
      "name": "getApproved",
      "outputs": [
        {
          "internalType": "address",
          "name": "",
          "type": "address"
        }
      ],
      "stateMutability": "pure",
      "type": "function"
    },
    {
      "inputs": [
        {
          "internalType": "uint256",
          "name": "tokenId",
          "type": "uint256"
        }
      ],
      "name": "getCertificateData",
      "outputs": [
        {
          "internalType": "address",
          "name": "issuer",
          "type": "address"
        },
        {
          "internalType": "uint8",
          "name": "issuerLevel",
          "type": "uint8"
        },
        {
          "internalType": "string",
          "name": "metadataURI",
          "type": "string"
        },
        {
          "internalType": "uint256",
          "name": "issuedTimestamp",
          "type": "uint256"
        }
      ],
      "stateMutability": "view",
      "type": "function"
    },
    {
      "inputs": [
        {
          "internalType": "uint256",
          "name": "tokenId",
          "type": "uint256"
        }
      ],
      "name": "getIssuedAt",
      "outputs": [
        {
          "internalType": "uint256",
          "name": "",
          "type": "uint256"
        }
      ],
      "stateMutability": "view",
      "type": "function"
    },
    {
      "inputs": [],
      "name": "getMerkleRoot",
      "outputs": [
        {
          "internalType": "bytes32",
          "name": "",
          "type": "bytes32"
        }
      ],
      "stateMutability": "view",
      "type": "function"
    },
    {
      "inputs": [
        {
          "internalType": "address",
          "name": "owner",
          "type": "address"
        },
        {
          "internalType": "address",
          "name": "operator",
          "type": "address"
        }
      ],
      "name": "isApprovedForAll",
      "outputs": [
        {
          "internalType": "bool",
          "name": "",
          "type": "bool"
        }
      ],
      "stateMutability": "view",
      "type": "function"
    },
    {
      "inputs": [
        {
          "internalType": "address",
          "name": "recipient",
          "type": "address"
        },
        {
          "internalType": "bytes32[]",
          "name": "merkleProof",
          "type": "bytes32[]"
        }
      ],
      "name": "isEligible",
      "outputs": [
        {
          "internalType": "bool",
          "name": "",
          "type": "bool"
        }
      ],
      "stateMutability": "view",
      "type": "function"
    },
    {
      "inputs": [
        {
          "internalType": "uint256",
          "name": "tokenId",
          "type": "uint256"
        }
      ],
      "name": "issuerOf",
      "outputs": [
        {
          "internalType": "address",
          "name": "",
          "type": "address"
        }
      ],
      "stateMutability": "view",
      "type": "function"
    },
    {
      "inputs": [
        {
          "internalType": "address",
          "name": "recipient",
          "type": "address"
        },
        {
          "internalType": "bytes32[]",
          "name": "merkleProof",
          "type": "bytes32[]"
        }
      ],
      "name": "mint",
      "outputs": [
        {
          "internalType": "uint256",
          "name": "",
          "type": "uint256"
        }
      ],
      "stateMutability": "nonpayable",
      "type": "function"
    },
    {
      "inputs": [
        {
          "internalType": "address",
          "name": "recipient",
          "type": "address"
        },
        {
          "internalType": "bytes32[]",
          "name": "merkleProof",
          "type": "bytes32[]"
        }
      ],
      "name": "mintCertificate",
      "outputs": [
        {
          "internalType": "uint256",
          "name": "",
          "type": "uint256"
        }
      ],
      "stateMutability": "nonpayable",
      "type": "function"
    },
    {
      "inputs": [],
      "name": "name",
      "outputs": [
        {
          "internalType": "string",
          "name": "",
          "type": "string"
        }
      ],
      "stateMutability": "view",
      "type": "function"
    },
    {
      "inputs": [],
      "name": "owner",
      "outputs": [
        {
          "internalType": "address",
          "name": "",
          "type": "address"
        }
      ],
      "stateMutability": "view",
      "type": "function"
    },
    {
      "inputs": [
        {
          "internalType": "uint256",
          "name": "tokenId",
          "type": "uint256"
        }
      ],
      "name": "ownerOf",
      "outputs": [
        {
          "internalType": "address",
          "name": "",
          "type": "address"
        }
      ],
      "stateMutability": "view",
      "type": "function"
    },
    {
      "inputs": [],
      "name": "renounceOwnership",
      "outputs": [],
      "stateMutability": "nonpayable",
      "type": "function"
    },
    {
      "inputs": [
        {
          "internalType": "address",
          "name": "from",
          "type": "address"
        },
        {
          "internalType": "address",
          "name": "to",
          "type": "address"
        },
        {
          "internalType": "uint256",
          "name": "tokenId",
          "type": "uint256"
        }
      ],
      "name": "safeTransferFrom",
      "outputs": [],
      "stateMutability": "nonpayable",
      "type": "function"
    },
    {
      "inputs": [
        {
          "internalType": "address",
          "name": "from",
          "type": "address"
        },
        {
          "internalType": "address",
          "name": "to",
          "type": "address"
        },
        {
          "internalType": "uint256",
          "name": "tokenId",
          "type": "uint256"
        },
        {
          "internalType": "bytes",
          "name": "data",
          "type": "bytes"
        }
      ],
      "name": "safeTransferFrom",
      "outputs": [],
      "stateMutability": "nonpayable",
      "type": "function"
    },
    {
      "inputs": [
        {
          "internalType": "address",
          "name": "",
          "type": "address"
        },
        {
          "internalType": "bool",
          "name": "",
          "type": "bool"
        }
      ],
      "name": "setApprovalForAll",
      "outputs": [],
      "stateMutability": "pure",
      "type": "function"
    },
    {
      "inputs": [
        {
          "internalType": "string",
          "name": "newBaseURI",
          "type": "string"
        }
      ],
      "name": "setBaseURI",
      "outputs": [],
      "stateMutability": "nonpayable",
      "type": "function"
    },
    {
      "inputs": [
        {
          "internalType": "bytes32",
          "name": "newMerkleRoot",
          "type": "bytes32"
        }
      ],
      "name": "setMerkleRoot",
      "outputs": [],
      "stateMutability": "nonpayable",
      "type": "function"
    },
    {
      "inputs": [
        {
          "internalType": "bytes4",
          "name": "interfaceId",
          "type": "bytes4"
        }
      ],
      "name": "supportsInterface",
      "outputs": [
        {
          "internalType": "bool",
          "name": "",
          "type": "bool"
        }
      ],
      "stateMutability": "view",
      "type": "function"
    },
    {
      "inputs": [],
      "name": "symbol",
      "outputs": [
        {
          "internalType": "string",
          "name": "",
          "type": "string"
        }
      ],
      "stateMutability": "view",
      "type": "function"
    },
    {
      "inputs": [
        {
          "internalType": "uint256",
          "name": "tokenId",
          "type": "uint256"
        }
      ],
      "name": "tokenURI",
      "outputs": [
        {
          "internalType": "string",
          "name": "",
          "type": "string"
        }
      ],
      "stateMutability": "view",
      "type": "function"
    },
    {
      "inputs": [
        {
          "internalType": "address",
          "name": "from",
          "type": "address"
        },
        {
          "internalType": "address",
          "name": "to",
          "type": "address"
        },
        {
          "internalType": "uint256",
          "name": "tokenId",
          "type": "uint256"
        }
      ],
      "name": "transferFrom",
      "outputs": [],
      "stateMutability": "nonpayable",
      "type": "function"
    },
    {
      "inputs": [
        {
          "internalType": "address",
          "name": "newOwner",
          "type": "address"
        }
      ],
      "name": "transferOwnership",
      "outputs": [],
      "stateMutability": "nonpayable",
      "type": "function"
    }
  ],
  "bytecode": "0x60806040523480156200001157600080fd5b506040516200223e3803806200223e8339810160408190526200003491620001e3565b33858560006200004583826200032f565b5060016200005482826200032f565b5050506001600160a01b0381166200008657604051631e4fbdf760e01b81526000600482015260240160405180910390fd5b6200009181620000cc565b506009839055600a80546001600160a01b0319166001600160a01b038416179055600b620000c082826200032f565b505050505050620003fb565b600680546001600160a01b038381166001600160a01b0319831681179093556040519116919082907f8be0079c531659141344cd1fd0a4f28419497f9722a3daafe3b4186f6b6457e090600090a35050565b634e487b7160e01b600052604160045260246000fd5b600082601f8301126200014657600080fd5b81516001600160401b03808211156200016357620001636200011e565b604051601f8301601f19908116603f011681019082821181831017156200018e576200018e6200011e565b81604052838152602092508683858801011115620001ab57600080fd5b600091505b83821015620001cf5785820183015181830184015290820190620001b0565b600093810190920192909252949350505050565b600080600080600060a08688031215620001fc57600080fd5b85516001600160401b03808211156200021457600080fd5b6200022289838a0162000134565b965060208801519150808211156200023957600080fd5b6200024789838a0162000134565b604089015160608a0151919750955091506001600160a01b03821682146200026e57600080fd5b6080880151919350808211156200028457600080fd5b50620002938882890162000134565b9150509295509295909350565b600181811c90821680620002b557607f821691505b602082108103620002d657634e487b7160e01b600052602260045260246000fd5b50919050565b601f8211156200032a57600081815260208120601f850160051c81016020861015620003055750805b601f850160051c820191505b81811015620003265782815560010162000311565b5050505b505050565b81516001600160401b038111156200034b576200034b6200011e565b62000363816200035c8454620002a0565b84620002dc565b602080601f8311600181146200039b5760008415620003825750858301515b600019600386901b1c1916600185901b17855562000326565b600085815260208120601f198616915b82811015620003cc57888601518255948401946001909101908401620003ab565b5085821015620003eb5787850151600019600388901b60f8161c191681555b5050505050600190811b01905550565b611e33806200040b6000396000f3fe608060405234801561001057600080fd5b506004361061018e5760003560e01c80637bf32270116100de578063b88d4fde11610097578063c87b56dd11610071578063c87b56dd14610359578063e985e9c51461036c578063ee3de9c51461037f578063f2fde38b1461039257600080fd5b8063b88d4fde14610320578063c18b065e14610333578063c4b3d0521461034657600080fd5b80637bf32270146102c05780637cb64759146102d35780638da5cb5b146102e657806395d89b41146102f7578063a22cb465146102ff578063a4e2ee111461030d57600080fd5b806342842e0e1161014b57806355f804b31161012557806355f804b31461027f5780636352211e1461029257806370a08231146102a5578063715018a6146102b857600080fd5b806342842e0e1461024757806342966c681461025a578063495906571461026d57600080fd5b806301ffc9a71461019357806306fdde03146101bb578063081812fc146101d0578063095ea7b3146101fc57806323b872dd1461021157806331494bbb14610224575b600080fd5b6101a66101a136600461171a565b6103a5565b60405190151581526020015b60405180910390f35b6101c36103f7565b6040516101b29190611787565b6101e46101de36600461179a565b50600090565b6040516001600160a01b0390911681526020016101b2565b61020f61020a3660046117cf565b610489565b005b61020f61021f3660046117f9565b6104a2565b61023761023236600461179a565b610532565b6040516101b29493929190611835565b61020f6102553660046117f9565b61066e565b61020f61026836600461179a565b61068e565b6009545b6040519081526020016101b2565b61020f61028d3660046118ff565b610741565b6101e46102a036600461179a565b610825565b6102716102b3366004611948565b610830565b61020f610878565b6102716102ce366004611963565b61088c565b61020f6102e136600461179a565b6108a1565b6006546001600160a01b03166101e4565b6101c36108e7565b61020f61020a3660046119f7565b6101e461031b36600461179a565b6108f6565b61020f61032e366004611a2e565b610939565b6101a6610341366004611963565b610951565b610271610354366004611963565b6109d7565b6101c361036736600461179a565b610d70565b6101a661037a366004611aaa565b610e7e565b61027161038d36600461179a565b610eac565b61020f6103a0366004611948565b610ee9565b60006001600160e01b031982166380ac58cd60e01b14806103d657506001600160e01b03198216635b5e139f60e01b145b806103f157506301ffc9a760e01b6001600160e01b03198316145b92915050565b60606000805461040690611add565b80601f016020809104026020016040519081016040528092919081815260200182805461043290611add565b801561047f5780601f106104545761010080835404028352916020019161047f565b820191906000526020600020905b81548152906001019060200180831161046257829003601f168201915b5050505050905090565b604051636e10574960e01b815260040160405180910390fd5b6001600160a01b0382166104d157604051633250574960e11b8152600060048201526024015b60405180910390fd5b60006104de838333610f27565b9050836001600160a01b0316816001600160a01b03161461052c576040516364283d7b60e01b81526001600160a01b03808616600483015260248201849052821660448201526064016104c8565b50505050565b6000806060600061054285610f7f565b61055e5760405162461bcd60e51b81526004016104c890611b17565b6000858152600860209081526040808320815160a08101835281546001600160a01b0381168252600160a01b900460ff169381019390935260018101805491928401916105aa90611add565b80601f01602080910402602001604051908101604052809291908181526020018280546105d690611add565b80156106235780601f106105f857610100808354040283529160200191610623565b820191906000526020600020905b81548152906001019060200180831161060657829003601f168201915b505050918352505060028201546020808301919091526003909201546001600160a01b0316604091820152825191830151908301516060909301519199909850919650945092505050565b61068983838360405180602001604052806000815250610939565b505050565b6000818152600260205260409020546001600160a01b0316338114806106be57506006546001600160a01b031633145b6107165760405162461bcd60e51b8152602060048201526024808201527f536f756c626f756e644e46543a204e6f7420617574686f726973656420746f20604482015263313ab93760e11b60648201526084016104c8565b61071f82610fb7565b6001600160a01b03166000908152600c60205260409020805460ff1916905550565b610749610ff6565b6000600b805461075890611add565b80601f016020809104026020016040519081016040528092919081815260200182805461078490611add565b80156107d15780601f106107a6576101008083540402835291602001916107d1565b820191906000526020600020905b8154815290600101906020018083116107b457829003601f168201915b5050505050905081600b90816107e79190611ba6565b507f309b29ded109b9e28fb9885757b3e0096eb75c51d23aa4635d68bcd569f6adc18183604051610819929190611c66565b60405180910390a15050565b60006103f182611023565b60006001600160a01b03821661085c576040516322718ad960e21b8152600060048201526024016104c8565b506001600160a01b031660009081526003602052604090205490565b610880610ff6565b61088a600061105c565b565b60006108998484846109d7565b949350505050565b6108a9610ff6565b600980549082905560408051828152602081018490527ffd69edeceaf1d6832d935be1fba54ca93bf17e71520c6c9ffc08d6e9529f87579101610819565b60606001805461040690611add565b600061090182610f7f565b61091d5760405162461bcd60e51b81526004016104c890611b17565b506000908152600860205260409020546001600160a01b031690565b6109448484846104a2565b61052c33858585856110ae565b6040516bffffffffffffffffffffffff19606085901b16602082015260009081906034016040516020818303038152906040528051906020012090506109ce8484808060200260200160405190810160405280939291908181526020018383602002808284376000920191909152505060095491508490506111d9565b95945050505050565b600a5460405163ce21e1cb60e01b81523360048201526000916001600160a01b03169063ce21e1cb90602401602060405180830381865afa158015610a20573d6000803e3d6000fd5b505050506040513d601f19601f82011682018060405250810190610a449190611c8b565b610aa65760405162461bcd60e51b815260206004820152602d60248201527f536f756c626f756e644e46543a2043616c6c6572206973206e6f74206120766560448201526c3934b334b2b21034b9b9bab2b960991b60648201526084016104c8565b610ab1848484610951565b610b0d5760405162461bcd60e51b815260206004820152602760248201527f536f756c626f756e644e46543a20526563697069656e74206973206e6f7420656044820152666c696769626c6560c81b60648201526084016104c8565b6001600160a01b0384166000908152600c602052604090205460ff1615610b9c5760405162461bcd60e51b815260206004820152603760248201527f536f756c626f756e644e46543a20526563697069656e7420616c72656164792060448201527f706f73736573736573206120636572746966696361746500000000000000000060648201526084016104c8565b600a54604051633dbf1db360e01b81523360048201526000916001600160a01b031690633dbf1db390602401602060405180830381865afa158015610be5573d6000803e3d6000fd5b505050506040513d601f19601f82011682018060405250810190610c099190611ca8565b600780549192506000610c1b83611cc9565b9091555050600754610c2d86826111ef565b6040518060a00160405280336001600160a01b03168152602001836003811115610c5957610c59611cf0565b60ff168152602001600b610c6c84611254565b604051602001610c7d929190611d06565b60408051601f19818403018152918152908252426020838101919091526001600160a01b03808b1693830193909352600085815260088252829020845181549286015160ff16600160a01b026001600160a81b03199093169416939093171782558201516001820190610cf09082611ba6565b5060608201516002820155608090910151600390910180546001600160a01b0319166001600160a01b0392831617905586166000818152600c6020526040808220805460ff19166001179055513392849290917fa37c4df4d408fb32a449f1f05d2d288b7097ee26ecd7be996d720ba17e39abaf9190a495945050505050565b6060610d7b82610f7f565b610ddd5760405162461bcd60e51b815260206004820152602d60248201527f536f756c626f756e644e46543a2055524920717565727920666f72206e6f6e6560448201526c3c34b9ba32b73a103a37b5b2b760991b60648201526084016104c8565b60008281526008602052604090206001018054610df990611add565b80601f0160208091040260200160405190810160405280929190818152602001828054610e2590611add565b8015610e725780601f10610e4757610100808354040283529160200191610e72565b820191906000526020600020905b815481529060010190602001808311610e5557829003601f168201915b50505050509050919050565b6001600160a01b03918216600090815260056020908152604080832093909416825291909152205460ff1690565b6000610eb782610f7f565b610ed35760405162461bcd60e51b81526004016104c890611b17565b5060009081526008602052604090206002015490565b610ef1610ff6565b6001600160a01b038116610f1b57604051631e4fbdf760e01b8152600060048201526024016104c8565b610f248161105c565b50565b6000828152600260205260408120546001600160a01b03168015801590610f5657506001600160a01b03851615155b15610f7457604051636e10574960e01b815260040160405180910390fd5b6109ce8585856112e7565b60008115801590610f9257506007548211155b80156103f15750506000908152600260205260409020546001600160a01b0316151590565b6000610fc66000836000610f27565b90506001600160a01b038116610ff257604051637e27328960e01b8152600481018390526024016104c8565b5050565b6006546001600160a01b0316331461088a5760405163118cdaa760e01b81523360048201526024016104c8565b6000818152600260205260408120546001600160a01b0316806103f157604051637e27328960e01b8152600481018490526024016104c8565b600680546001600160a01b038381166001600160a01b0319831681179093556040519116919082907f8be0079c531659141344cd1fd0a4f28419497f9722a3daafe3b4186f6b6457e090600090a35050565b6001600160a01b0383163b156111d257604051630a85bd0160e11b81526001600160a01b0384169063150b7a02906110f0908890889087908790600401611d8d565b6020604051808303816000875af192505050801561112b575060408051601f3d908101601f1916820190925261112891810190611dca565b60015b611194573d808015611159576040519150601f19603f3d011682016040523d82523d6000602084013e61115e565b606091505b50805160000361118c57604051633250574960e11b81526001600160a01b03851660048201526024016104c8565b805181602001fd5b6001600160e01b03198116630a85bd0160e11b146111d057604051633250574960e11b81526001600160a01b03851660048201526024016104c8565b505b5050505050565b6000826111e685846113e0565b14949350505050565b6001600160a01b03821661121957604051633250574960e11b8152600060048201526024016104c8565b600061122783836000610f27565b90506001600160a01b03811615610689576040516339e3563760e11b8152600060048201526024016104c8565b606060006112618361142d565b600101905060008167ffffffffffffffff81111561128157611281611873565b6040519080825280601f01601f1916602001820160405280156112ab576020820181803683370190505b5090508181016020015b600019016f181899199a1a9b1b9c1cb0b131b232b360811b600a86061a8153600a85049450846112b557509392505050565b6000828152600260205260408120546001600160a01b039081169083161561131457611314818486611505565b6001600160a01b0381161561135257611331600085600080611569565b6001600160a01b038116600090815260036020526040902080546000190190555b6001600160a01b03851615611381576001600160a01b0385166000908152600360205260409020805460010190555b60008481526002602052604080822080546001600160a01b0319166001600160a01b0389811691821790925591518793918516917fddf252ad1be2c89b69c2b068fc378daa952ba7f163c4a11628f55a4df523b3ef91a4949350505050565b600081815b8451811015611425576114118286838151811061140457611404611de7565b602002602001015161166f565b91508061141d81611cc9565b9150506113e5565b509392505050565b60008072184f03e93ff9f4daa797ed6e38ed64bf6a1f0160401b831061146c5772184f03e93ff9f4daa797ed6e38ed64bf6a1f0160401b830492506040015b6d04ee2d6d415b85acef81000000008310611498576d04ee2d6d415b85acef8100000000830492506020015b662386f26fc1000083106114b657662386f26fc10000830492506010015b6305f5e10083106114ce576305f5e100830492506008015b61271083106114e257612710830492506004015b606483106114f4576064830492506002015b600a83106103f15760010192915050565b6115108383836116a1565b610689576001600160a01b03831661153e57604051637e27328960e01b8152600481018290526024016104c8565b60405163177e802f60e01b81526001600160a01b0383166004820152602481018290526044016104c8565b808061157d57506001600160a01b03821615155b1561163f57600061158d84611023565b90506001600160a01b038316158015906115b95750826001600160a01b0316816001600160a01b031614155b80156115cc57506115ca8184610e7e565b155b156115f55760405163a9fbf51f60e01b81526001600160a01b03841660048201526024016104c8565b811561163d5783856001600160a01b0316826001600160a01b03167f8c5be1e5ebec7d5bd14f71427d1e84f3dd0314c0f7b2291e5b200ac8c7c3b92560405160405180910390a45b505b5050600090815260046020526040902080546001600160a01b0319166001600160a01b0392909216919091179055565b600081831061168b57600082815260208490526040902061169a565b60008381526020839052604090205b9392505050565b60006001600160a01b038316158015906108995750826001600160a01b0316846001600160a01b031614806116db57506116db8484610e7e565b806108995750506000908152600460205260409020546001600160a01b03908116911614919050565b6001600160e01b031981168114610f2457600080fd5b60006020828403121561172c57600080fd5b813561169a81611704565b60005b8381101561175257818101518382015260200161173a565b50506000910152565b60008151808452611773816020860160208601611737565b601f01601f19169290920160200192915050565b60208152600061169a602083018461175b565b6000602082840312156117ac57600080fd5b5035919050565b80356001600160a01b03811681146117ca57600080fd5b919050565b600080604083850312156117e257600080fd5b6117eb836117b3565b946020939093013593505050565b60008060006060848603121561180e57600080fd5b611817846117b3565b9250611825602085016117b3565b9150604084013590509250925092565b6001600160a01b038516815260ff841660208201526080604082018190526000906118629083018561175b565b905082606083015295945050505050565b634e487b7160e01b600052604160045260246000fd5b600067ffffffffffffffff808411156118a4576118a4611873565b604051601f8501601f19908116603f011681019082821181831017156118cc576118cc611873565b816040528093508581528686860111156118e557600080fd5b858560208301376000602087830101525050509392505050565b60006020828403121561191157600080fd5b813567ffffffffffffffff81111561192857600080fd5b8201601f8101841361193957600080fd5b61089984823560208401611889565b60006020828403121561195a57600080fd5b61169a826117b3565b60008060006040848603121561197857600080fd5b611981846117b3565b9250602084013567ffffffffffffffff8082111561199e57600080fd5b818601915086601f8301126119b257600080fd5b8135818111156119c157600080fd5b8760208260051b85010111156119d657600080fd5b6020830194508093505050509250925092565b8015158114610f2457600080fd5b60008060408385031215611a0a57600080fd5b611a13836117b3565b91506020830135611a23816119e9565b809150509250929050565b60008060008060808587031215611a4457600080fd5b611a4d856117b3565b9350611a5b602086016117b3565b925060408501359150606085013567ffffffffffffffff811115611a7e57600080fd5b8501601f81018713611a8f57600080fd5b611a9e87823560208401611889565b91505092959194509250565b60008060408385031215611abd57600080fd5b611ac6836117b3565b9150611ad4602084016117b3565b90509250929050565b600181811c90821680611af157607f821691505b602082108103611b1157634e487b7160e01b600052602260045260246000fd5b50919050565b60208082526029908201527f536f756c626f756e644e46543a20517565727920666f72206e6f6e657869737460408201526832b73a103a37b5b2b760b91b606082015260800190565b601f82111561068957600081815260208120601f850160051c81016020861015611b875750805b601f850160051c820191505b818110156111d057828155600101611b93565b815167ffffffffffffffff811115611bc057611bc0611873565b611bd481611bce8454611add565b84611b60565b602080601f831160018114611c095760008415611bf15750858301515b600019600386901b1c1916600185901b1785556111d0565b600085815260208120601f198616915b82811015611c3857888601518255948401946001909101908401611c19565b5085821015611c565787850151600019600388901b60f8161c191681555b5050505050600190811b01905550565b604081526000611c79604083018561175b565b82810360208401526109ce818561175b565b600060208284031215611c9d57600080fd5b815161169a816119e9565b600060208284031215611cba57600080fd5b81516004811061169a57600080fd5b600060018201611ce957634e487b7160e01b600052601160045260246000fd5b5060010190565b634e487b7160e01b600052602160045260246000fd5b6000808454611d1481611add565b60018281168015611d2c5760018114611d4157611d70565b60ff1984168752821515830287019450611d70565b8860005260208060002060005b85811015611d675781548a820152908401908201611d4e565b50505082870194505b505050508351611d84818360208801611737565b01949350505050565b6001600160a01b0385811682528416602082015260408101839052608060608201819052600090611dc09083018461175b565b9695505050505050565b600060208284031215611ddc57600080fd5b815161169a81611704565b634e487b7160e01b600052603260045260246000fdfea2646970667358221220d0252fc72173ef4bb6c8cb9c9b880dce9f09747aaf0c6d2ff8edcbc0024b375364736f6c63430008140033",
  "linkReferences": {},
  "deployedLinkReferences": {}
}