{"contracts/MetaMaskVisibleSoulbound.sol":{"MetaMaskVisibleSoulbound":{"abi":[{"inputs":[{"internalType":"string","name":"_name","type":"string"},{"internalType":"string","name":"_symbol","type":"string"},{"internalType":"string","name":"","type":"string"},{"internalType":"string","name":"","type":"string"},{"internalType":"string","name":"","type":"string"},{"internalType":"string","name":"","type":"string"},{"internalType":"bytes32","name":"_merkleRoot","type":"bytes32"}],"stateMutability":"nonpayable","type":"constructor"},{"inputs":[],"name":"CertificateAlreadyClaimed","type":"error"},{"inputs":[],"name":"InvalidMerkleProof","type":"error"},{"inputs":[],"name":"SoulboundTransferNotAllowed","type":"error"},{"inputs":[],"name":"TokenDoesNotExist","type":"error"},{"anonymous":false,"inputs":[{"indexed":true,"internalType":"address","name":"owner","type":"address"},{"indexed":true,"internalType":"address","name":"approved","type":"address"},{"indexed":true,"internalType":"uint256","name":"tokenId","type":"uint256"}],"name":"Approval","type":"event"},{"anonymous":false,"inputs":[{"indexed":true,"internalType":"address","name":"owner","type":"address"},{"indexed":true,"internalType":"address","name":"operator","type":"address"},{"indexed":false,"internalType":"bool","name":"approved","type":"bool"}],"name":"ApprovalForAll","type":"event"},{"anonymous":false,"inputs":[{"indexed":true,"internalType":"address","name":"soul","type":"address"},{"indexed":true,"internalType":"uint256","name":"tokenId","type":"uint256"},{"indexed":false,"internalType":"string","name":"tokenURI","type":"string"}],"name":"SoulboundCertificateIssued","type":"event"},{"anonymous":false,"inputs":[{"indexed":true,"internalType":"address","name":"from","type":"address"},{"indexed":true,"internalType":"address","name":"to","type":"address"},{"indexed":true,"internalType":"uint256","name":"tokenId","type":"uint256"}],"name":"SoulboundTransferAttempted","type":"event"},{"anonymous":false,"inputs":[{"indexed":true,"internalType":"address","name":"from","type":"address"},{"indexed":true,"internalType":"address","name":"to","type":"address"},{"indexed":true,"internalType":"uint256","name":"tokenId","type":"uint256"}],"name":"Transfer","type":"event"},{"inputs":[{"internalType":"address","name":"","type":"address"}],"name":"addressToTokenId","outputs":[{"internalType":"uint256","name":"","type":"uint256"}],"stateMutability":"view","type":"function"},{"inputs":[{"internalType":"address","name":"","type":"address"},{"internalType":"uint256","name":"tokenId","type":"uint256"}],"name":"approve","outputs":[],"stateMutability":"nonpayable","type":"function"},{"inputs":[{"internalType":"address","name":"_owner","type":"address"}],"name":"balanceOf","outputs":[{"internalType":"uint256","name":"","type":"uint256"}],"stateMutability":"view","type":"function"},{"inputs":[{"internalType":"bytes32[]","name":"_merkleProof","type":"bytes32[]"},{"internalType":"string","name":"_tokenURI","type":"string"}],"name":"claimCertificate","outputs":[],"stateMutability":"nonpayable","type":"function"},{"inputs":[{"internalType":"bytes32[]","name":"_merkleProof","type":"bytes32[]"},{"internalType":"string","name":"_tokenURI","type":"string"}],"name":"claimSoulboundCertificate","outputs":[],"stateMutability":"nonpayable","type":"function"},{"inputs":[{"internalType":"uint256","name":"","type":"uint256"}],"name":"getApproved","outputs":[{"internalType":"address","name":"","type":"address"}],"stateMutability":"pure","type":"function"},{"inputs":[{"internalType":"address","name":"_soul","type":"address"}],"name":"getSoulboundCertificateDetails","outputs":[{"internalType":"bool","name":"exists","type":"bool"},{"internalType":"uint256","name":"tokenId","type":"uint256"},{"internalType":"string","name":"uri","type":"string"}],"stateMutability":"view","type":"function"},{"inputs":[{"internalType":"address","name":"","type":"address"}],"name":"hasClaimed","outputs":[{"internalType":"bool","name":"","type":"bool"}],"stateMutability":"view","type":"function"},{"inputs":[{"internalType":"address","name":"_address","type":"address"}],"name":"hasSoulboundCertificate","outputs":[{"internalType":"bool","name":"","type":"bool"}],"stateMutability":"view","type":"function"},{"inputs":[{"internalType":"address","name":"","type":"address"},{"internalType":"address","name":"","type":"address"}],"name":"isApprovedForAll","outputs":[{"internalType":"bool","name":"","type":"bool"}],"stateMutability":"pure","type":"function"},{"inputs":[{"internalType":"address","name":"_address","type":"address"},{"internalType":"bytes32[]","name":"_merkleProof","type":"bytes32[]"}],"name":"isEligible","outputs":[{"internalType":"bool","name":"","type":"bool"}],"stateMutability":"view","type":"function"},{"inputs":[],"name":"merkleRoot","outputs":[{"internalType":"bytes32","name":"","type":"bytes32"}],"stateMutability":"view","type":"function"},{"inputs":[],"name":"name","outputs":[{"internalType":"string","name":"","type":"string"}],"stateMutability":"view","type":"function"},{"inputs":[],"name":"owner","outputs":[{"internalType":"address","name":"","type":"address"}],"stateMutability":"view","type":"function"},{"inputs":[{"internalType":"uint256","name":"tokenId","type":"uint256"}],"name":"ownerOf","outputs":[{"internalType":"address","name":"","type":"address"}],"stateMutability":"view","type":"function"},{"inputs":[{"internalType":"address","name":"from","type":"address"},{"internalType":"address","name":"to","type":"address"},{"internalType":"uint256","name":"tokenId","type":"uint256"}],"name":"safeTransferFrom","outputs":[],"stateMutability":"nonpayable","type":"function"},{"inputs":[{"internalType":"address","name":"from","type":"address"},{"internalType":"address","name":"to","type":"address"},{"internalType":"uint256","name":"tokenId","type":"uint256"},{"internalType":"bytes","name":"","type":"bytes"}],"name":"safeTransferFrom","outputs":[],"stateMutability":"nonpayable","type":"function"},{"inputs":[{"internalType":"address","name":"","type":"address"},{"internalType":"bool","name":"","type":"bool"}],"name":"setApprovalForAll","outputs":[],"stateMutability":"pure","type":"function"},{"inputs":[{"internalType":"bytes4","name":"interfaceId","type":"bytes4"}],"name":"supportsInterface","outputs":[{"internalType":"bool","name":"","type":"bool"}],"stateMutability":"pure","type":"function"},{"inputs":[],"name":"symbol","outputs":[{"internalType":"string","name":"","type":"string"}],"stateMutability":"view","type":"function"},{"inputs":[{"internalType":"uint256","name":"tokenId","type":"uint256"}],"name":"tokenURI","outputs":[{"internalType":"string","name":"","type":"string"}],"stateMutability":"view","type":"function"},{"inputs":[],"name":"totalSupply","outputs":[{"internalType":"uint256","name":"","type":"uint256"}],"stateMutability":"view","type":"function"},{"inputs":[{"internalType":"address","name":"from","type":"address"},{"internalType":"address","name":"to","type":"address"},{"internalType":"uint256","name":"tokenId","type":"uint256"}],"name":"transferFrom","outputs":[],"stateMutability":"nonpayable","type":"function"}],"evm":{"bytecode":{"linkReferences":{},"object":"60c060405234620003b857620013df803803806200001d81620003bd565b92833981019060e081830312620003b85780516001600160401b039190828111620003b8578362000050918301620003e3565b9160209384830151828111620003b857816200006e918501620003e3565b926040810151838111620003b857826200008a918301620003e3565b506060810151838111620003b85782620000a6918301620003e3565b506080810151838111620003b85782620000c2918301620003e3565b5060a0810151838111620003b85760c092620000e0918301620003e3565b50015192600192836002558151838111620003a2576000908154938685811c9516801562000397575b8986101462000383578190601f9586811162000330575b508990868311600114620002cc578492620002c0575b5050600019600383901b1c191690861b1781555b8151938411620002ac5784548581811c91168015620002a1575b888210146200028d5783811162000245575b5086928411600114620001df57839495965092620001d3575b5050600019600383901b1c191690821b1790555b6080523360a052604051610f89908162000456823960805181818161087d0152610ec5015260a051816104870152f35b0151905038806200018f565b9190601f1984169685845280842093905b8882106200022d575050838596971062000213575b505050811b019055620001a3565b015160001960f88460031b161c1916905538808062000205565b808785968294968601518155019501930190620001f0565b8582528782208480870160051c8201928a881062000283575b0160051c019086905b8281106200027757505062000176565b83815501869062000267565b925081926200025e565b634e487b7160e01b82526022600452602482fd5b90607f169062000164565b634e487b7160e01b81526041600452602490fd5b01519050388062000136565b8480528a85208994509190601f198416865b8d828210620003195750508411620002ff575b505050811b0181556200014a565b015160001960f88460031b161c19169055388080620002f1565b8385015186558c97909501949384019301620002de565b9091508380528984208680850160051c8201928c861062000379575b918a91869594930160051c01915b8281106200036a57505062000120565b8681558594508a91016200035a565b925081926200034c565b634e487b7160e01b83526022600452602483fd5b94607f169462000109565b634e487b7160e01b600052604160045260246000fd5b600080fd5b6040519190601f01601f191682016001600160401b03811183821017620003a257604052565b919080601f84011215620003b85782516001600160401b038111620003a25760209062000419601f8201601f19168301620003bd565b92818452828287010111620003b85760005b8181106200044157508260009394955001015290565b85810183015184820184015282016200042b56fe608060408181526004918236101561001657600080fd5b600092833560e01c91826301ffc9a7146109f55750816306fdde031461094d578163081812fc14610931578163095ea7b3146108df57816318160ddd146108a057816323b872dd146108605781632eb4a7ab1461086557816342842e0e146108605781635bdeb6be146108185781636352211e146107db5781636511bf2e146107a357816370a082311461073257816373b2e80e146101ba5781638a747d42146104b65781638da5cb5b1461047257816395d89b411461038f578163a22cb4651461035b57838263b27c0d041461029b57508163b88d4fde1461024c578163c18b065e146101f8578163c8297d75146101ba578163c87b56dd14610154575063e985e9c51461012457600080fd5b3461015057806003193601126101505790602091610140610bf0565b50610149610c0b565b5051908152f35b5080fd5b9050346101b65760203660031901126101b657358083526003602052818320546101b29361019f928492610192906001600160a01b03161515610d05565b8152600560205220610b0a565b9051918291602083526020830190610bb0565b0390f35b8280fd5b5050346101505760203660031901126101505760209160ff9082906001600160a01b036101e5610bf0565b1681526006855220541690519015158152f35b9050346101b657816003193601126101b657610212610bf0565b926024359067ffffffffffffffff821161024957509261023a61024092602095369101610c5b565b91610dd6565b90519015158152f35b80fd5b833461024957608036600319011261024957610266610bf0565b9161026f610c0b565b916064359067ffffffffffffffff8211610249575061029091369101610c8c565b505060443591610d48565b92915034610357576102ac36610cba565b91909592303b1561035357855163453a3ea160e11b815285810187905260448101839052966001600160fb1b03831161034f578793606461030693869560051b809183880137850160608682030160248701520191610db5565b038183305af180156103455761031a578380f35b67ffffffffffffffff83116103325750523880808380f35b634e487b7160e01b845260419052602483fd5b82513d86823e3d90fd5b8480fd5b8380fd5b5050fd5b828434610249578160031936011261024957610375610bf0565b5060243580151503610249575051630d18115360e11b8152fd5b5050346101505781600319360112610150578051908260018054916103b383610a60565b8086529282811690811561044a57506001146103ee575b5050506103dc826101b2940383610ae8565b51918291602083526020830190610bb0565b94508085527fb10e2d527612073b26eecdfd717e6a320cf44b4afac2b0732d9fcbe2b7fa0cf65b828610610432575050506103dc8260206101b295820101946103ca565b80546020878701810191909152909501948101610415565b6101b29750869350602092506103dc94915060ff191682840152151560051b820101946103ca565b505034610150578160031936011261015057517f00000000000000000000000000000000000000000000000000000000000000006001600160a01b03168152602090f35b919050346101b6576104c736610cba565b919390923387526020946006865260ff83892054166107225790610507918351878101903360601b8252601481526104fe81610a9a565b51902091610eb2565b156107135733865260068452808620946001958660ff198254161790556002549561053187610d90565b60025586885260038652828820336bffffffffffffffffffffffff60a01b8254161790553388528186528083892055868852600586528288209167ffffffffffffffff851161070057506105858254610a60565b601f81116106ba575b5087601f8511600114610634579184807f58a0743fd9c19d45e88c2407fe287721561659b587d3f929f63af8f21ffb8f4497969593610623958c93610629575b501b906000198660031b1c19161790555b3388526007865286818920555192839287338a7fddf252ad1be2c89b69c2b068fc378daa952ba7f163c4a11628f55a4df523b3ef8180a48684523396840191610db5565b0390a380f35b8801359250386105ce565b82895286892090601f1986168a5b898282106106a657505091869593917f58a0743fd9c19d45e88c2407fe287721561659b587d3f929f63af8f21ffb8f44989761062396941061068c575b505084811b0190556105df565b870135600019600388901b60f8161c19169055388061067f565b898401358555938501939283019201610642565b828952868920601f860160051c8101918887106106f6575b601f0160051c019082905b8281106106eb57505061058e565b8a81550182906106dd565b90915081906106d2565b634e487b7160e01b895260419052602488fd5b5163582f497d60e11b81528490fd5b8251638e03cd2560e01b81528790fd5b828434610249576020366003190112610249576001600160a01b03610755610bf0565b16801561076e5781526020928352819020549051908152f35b825162461bcd60e51b8152602081860152600f60248201526e496e76616c6964206164647265737360881b6044820152606490fd5b5050346101505760203660031901126101505760209181906001600160a01b036107cb610bf0565b1681526007845220549051908152f35b9050346101b65760203660031901126101b6573582526003602090815291819020546001600160a01b031690610812821515610d05565b51908152f35b828434610249576020366003190112610249575060606101b261084161083c610bf0565b610e2e565b9193909480519586951515865260208601528401526060830190610bb0565b610c21565b505034610150578160031936011261015057602090517f00000000000000000000000000000000000000000000000000000000000000008152f35b8383346101505781600319360112610150576002546000198101929083116108cc576020838351908152f35b634e487b7160e01b815260118452602490fd5b8383346101505780600319360112610150576108f9610bf0565b50519060243590807f050e2cbb7c13fd45ac2757350533e31690a764a390067a92d43b7039c6d497418180a4630d18115360e11b8152fd5b5050346101505760203660031901126101505751908152602090f35b50503461015057816003193601126101505780519082805461096e81610a60565b8085529160019180831690811561044a5750600114610999575050506103dc826101b2940383610ae8565b80809650527f290decd9548b62a8d60345a988386fc84ba6bc95484008f6362f93160ef3e5635b8286106109dd575050506103dc8260206101b295820101946103ca565b805460208787018101919091529095019481016109c0565b8491346101b65760203660031901126101b6573563ffffffff60e01b81168091036101b657602092506301ffc9a760e01b8114908115610a4f575b8115610a3e575b5015158152f35b635b5e139f60e01b14905083610a37565b6380ac58cd60e01b81149150610a30565b90600182811c92168015610a90575b6020831014610a7a57565b634e487b7160e01b600052602260045260246000fd5b91607f1691610a6f565b6040810190811067ffffffffffffffff821117610ab657604052565b634e487b7160e01b600052604160045260246000fd5b6060810190811067ffffffffffffffff821117610ab657604052565b90601f8019910116810190811067ffffffffffffffff821117610ab657604052565b9060405191826000825492610b1e84610a60565b908184526001948581169081600014610b8d5750600114610b4a575b5050610b4892500383610ae8565b565b9093915060005260209081600020936000915b818310610b75575050610b4893508201013880610b3a565b85548884018501529485019487945091830191610b5d565b915050610b4894506020925060ff191682840152151560051b8201013880610b3a565b919082519283825260005b848110610bdc575050826000602080949584010152601f8019910116010190565b602081830181015184830182015201610bbb565b600435906001600160a01b0382168203610c0657565b600080fd5b602435906001600160a01b0382168203610c0657565b34610c06576060366003190112610c06576004356001600160a01b038082168203610c06576024359081168103610c065760443591610d48565b9181601f84011215610c065782359167ffffffffffffffff8311610c06576020808501948460051b010111610c0657565b9181601f84011215610c065782359167ffffffffffffffff8311610c065760208381860195010111610c0657565b6040600319820112610c065767ffffffffffffffff91600435838111610c065782610ce791600401610c5b565b93909392602435918211610c0657610d0191600401610c8c565b9091565b15610d0c57565b60405162461bcd60e51b8152602060048201526014602482015273151bdad95b88191bd95cc81b9bdd08195e1a5cdd60621b6044820152606490fd5b604051600493909290916001600160a01b0391821691167f050e2cbb7c13fd45ac2757350533e31690a764a390067a92d43b7039c6d49741600080a4630d18115360e11b8152fd5b6000198114610d9f5760010190565b634e487b7160e01b600052601160045260246000fd5b908060209392818452848401376000828201840152601f01601f1916010190565b9160018060a01b038316600052600660205260ff60406000205416610e2657610e239260405160208101916bffffffffffffffffffffffff199060601b168252601481526104fe81610a9a565b90565b505050600090565b6001600160a01b03166000818152600660205260408120549092919060ff1615610e775782526007602052610e7160408084205493848152600560205220610b0a565b60019291565b50604051829190826020820167ffffffffffffffff811183821017610e9e57604052815290565b634e487b7160e01b82526041600452602482fd5b90600080925b828410610ee857505050507f00000000000000000000000000000000000000000000000000000000000000001490565b90919293610f27908560051b83013580821115600014610f2f57604080519160208301938452818301528152610f1d81610acc565b5190205b94610d90565b929190610eb8565b90604080519160208301938452818301528152610f4b81610acc565b519020610f2156fea26469706673582212208baa82dd6fcae1d8471dcda4e4269d6ba69f3fd2ad1e678f406b7fc4e1ea481664736f6c63430008140033","opcodes":"PUSH1 0xC0 PUSH1 0x40 MSTORE CALLVALUE PUSH3 0x3B8 JUMPI PUSH3 0x13DF DUP1 CODESIZE SUB DUP1 PUSH3 0x1D DUP2 PUSH3 0x3BD JUMP JUMPDEST SWAP3 DUP4 CODECOPY DUP2 ADD SWAP1 PUSH1 0xE0 DUP2 DUP4 SUB SLT PUSH3 0x3B8 JUMPI DUP1 MLOAD PUSH1 0x1 PUSH1 0x1 PUSH1 0x40 SHL SUB SWAP2 SWAP1 DUP3 DUP2 GT PUSH3 0x3B8 JUMPI DUP4 PUSH3 0x50 SWAP2 DUP4 ADD PUSH3 0x3E3 JUMP JUMPDEST SWAP2 PUSH1 0x20 SWAP4 DUP5 DUP4 ADD MLOAD DUP3 DUP2 GT PUSH3 0x3B8 JUMPI DUP2 PUSH3 0x6E SWAP2 DUP6 ADD PUSH3 0x3E3 JUMP JUMPDEST SWAP3 PUSH1 0x40 DUP2 ADD MLOAD DUP4 DUP2 GT PUSH3 0x3B8 JUMPI DUP3 PUSH3 0x8A SWAP2 DUP4 ADD PUSH3 0x3E3 JUMP JUMPDEST POP PUSH1 0x60 DUP2 ADD MLOAD DUP4 DUP2 GT PUSH3 0x3B8 JUMPI DUP3 PUSH3 0xA6 SWAP2 DUP4 ADD PUSH3 0x3E3 JUMP JUMPDEST POP PUSH1 0x80 DUP2 ADD MLOAD DUP4 DUP2 GT PUSH3 0x3B8 JUMPI DUP3 PUSH3 0xC2 SWAP2 DUP4 ADD PUSH3 0x3E3 JUMP JUMPDEST POP PUSH1 0xA0 DUP2 ADD MLOAD DUP4 DUP2 GT PUSH3 0x3B8 JUMPI PUSH1 0xC0 SWAP3 PUSH3 0xE0 SWAP2 DUP4 ADD PUSH3 0x3E3 JUMP JUMPDEST POP ADD MLOAD SWAP3 PUSH1 0x1 SWAP3 DUP4 PUSH1 0x2 SSTORE DUP2 MLOAD DUP4 DUP2 GT PUSH3 0x3A2 JUMPI PUSH1 0x0 SWAP1 DUP2 SLOAD SWAP4 DUP7 DUP6 DUP2 SHR SWAP6 AND DUP1 ISZERO PUSH3 0x397 JUMPI JUMPDEST DUP10 DUP7 LT EQ PUSH3 0x383 JUMPI DUP2 SWAP1 PUSH1 0x1F SWAP6 DUP7 DUP2 GT PUSH3 0x330 JUMPI JUMPDEST POP DUP10 SWAP1 DUP7 DUP4 GT PUSH1 0x1 EQ PUSH3 0x2CC JUMPI DUP5 SWAP3 PUSH3 0x2C0 JUMPI JUMPDEST POP POP PUSH1 0x0 NOT PUSH1 0x3 DUP4 SWAP1 SHL SHR NOT AND SWAP1 DUP7 SHL OR DUP2 SSTORE JUMPDEST DUP2 MLOAD SWAP4 DUP5 GT PUSH3 0x2AC JUMPI DUP5 SLOAD DUP6 DUP2 DUP2 SHR SWAP2 AND DUP1 ISZERO PUSH3 0x2A1 JUMPI JUMPDEST DUP9 DUP3 LT EQ PUSH3 0x28D JUMPI DUP4 DUP2 GT PUSH3 0x245 JUMPI JUMPDEST POP DUP7 SWAP3 DUP5 GT PUSH1 0x1 EQ PUSH3 0x1DF JUMPI DUP4 SWAP5 SWAP6 SWAP7 POP SWAP3 PUSH3 0x1D3 JUMPI JUMPDEST POP POP PUSH1 0x0 NOT PUSH1 0x3 DUP4 SWAP1 SHL SHR NOT AND SWAP1 DUP3 SHL OR SWAP1 SSTORE JUMPDEST PUSH1 0x80 MSTORE CALLER PUSH1 0xA0 MSTORE PUSH1 0x40 MLOAD PUSH2 0xF89 SWAP1 DUP2 PUSH3 0x456 DUP3 CODECOPY PUSH1 0x80 MLOAD DUP2 DUP2 DUP2 PUSH2 0x87D ADD MSTORE PUSH2 0xEC5 ADD MSTORE PUSH1 0xA0 MLOAD DUP2 PUSH2 0x487 ADD MSTORE RETURN JUMPDEST ADD MLOAD SWAP1 POP CODESIZE DUP1 PUSH3 0x18F JUMP JUMPDEST SWAP2 SWAP1 PUSH1 0x1F NOT DUP5 AND SWAP7 DUP6 DUP5 MSTORE DUP1 DUP5 KECCAK256 SWAP4 SWAP1 JUMPDEST DUP9 DUP3 LT PUSH3 0x22D JUMPI POP POP DUP4 DUP6 SWAP7 SWAP8 LT PUSH3 0x213 JUMPI JUMPDEST POP POP POP DUP2 SHL ADD SWAP1 SSTORE PUSH3 0x1A3 JUMP JUMPDEST ADD MLOAD PUSH1 0x0 NOT PUSH1 0xF8 DUP5 PUSH1 0x3 SHL AND SHR NOT AND SWAP1 SSTORE CODESIZE DUP1 DUP1 PUSH3 0x205 JUMP JUMPDEST DUP1 DUP8 DUP6 SWAP7 DUP3 SWAP5 SWAP7 DUP7 ADD MLOAD DUP2 SSTORE ADD SWAP6 ADD SWAP4 ADD SWAP1 PUSH3 0x1F0 JUMP JUMPDEST DUP6 DUP3 MSTORE DUP8 DUP3 KECCAK256 DUP5 DUP1 DUP8 ADD PUSH1 0x5 SHR DUP3 ADD SWAP3 DUP11 DUP9 LT PUSH3 0x283 JUMPI JUMPDEST ADD PUSH1 0x5 SHR ADD SWAP1 DUP7 SWAP1 JUMPDEST DUP3 DUP2 LT PUSH3 0x277 JUMPI POP POP PUSH3 0x176 JUMP JUMPDEST DUP4 DUP2 SSTORE ADD DUP7 SWAP1 PUSH3 0x267 JUMP JUMPDEST SWAP3 POP DUP2 SWAP3 PUSH3 0x25E JUMP JUMPDEST PUSH4 0x4E487B71 PUSH1 0xE0 SHL DUP3 MSTORE PUSH1 0x22 PUSH1 0x4 MSTORE PUSH1 0x24 DUP3 REVERT JUMPDEST SWAP1 PUSH1 0x7F AND SWAP1 PUSH3 0x164 JUMP JUMPDEST PUSH4 0x4E487B71 PUSH1 0xE0 SHL DUP2 MSTORE PUSH1 0x41 PUSH1 0x4 MSTORE PUSH1 0x24 SWAP1 REVERT JUMPDEST ADD MLOAD SWAP1 POP CODESIZE DUP1 PUSH3 0x136 JUMP JUMPDEST DUP5 DUP1 MSTORE DUP11 DUP6 KECCAK256 DUP10 SWAP5 POP SWAP2 SWAP1 PUSH1 0x1F NOT DUP5 AND DUP7 JUMPDEST DUP14 DUP3 DUP3 LT PUSH3 0x319 JUMPI POP POP DUP5 GT PUSH3 0x2FF JUMPI JUMPDEST POP POP POP DUP2 SHL ADD DUP2 SSTORE PUSH3 0x14A JUMP JUMPDEST ADD MLOAD PUSH1 0x0 NOT PUSH1 0xF8 DUP5 PUSH1 0x3 SHL AND SHR NOT AND SWAP1 SSTORE CODESIZE DUP1 DUP1 PUSH3 0x2F1 JUMP JUMPDEST DUP4 DUP6 ADD MLOAD DUP7 SSTORE DUP13 SWAP8 SWAP1 SWAP6 ADD SWAP5 SWAP4 DUP5 ADD SWAP4 ADD PUSH3 0x2DE JUMP JUMPDEST SWAP1 SWAP2 POP DUP4 DUP1 MSTORE DUP10 DUP5 KECCAK256 DUP7 DUP1 DUP6 ADD PUSH1 0x5 SHR DUP3 ADD SWAP3 DUP13 DUP7 LT PUSH3 0x379 JUMPI JUMPDEST SWAP2 DUP11 SWAP2 DUP7 SWAP6 SWAP5 SWAP4 ADD PUSH1 0x5 SHR ADD SWAP2 JUMPDEST DUP3 DUP2 LT PUSH3 0x36A JUMPI POP POP PUSH3 0x120 JUMP JUMPDEST DUP7 DUP2 SSTORE DUP6 SWAP5 POP DUP11 SWAP2 ADD PUSH3 0x35A JUMP JUMPDEST SWAP3 POP DUP2 SWAP3 PUSH3 0x34C JUMP JUMPDEST PUSH4 0x4E487B71 PUSH1 0xE0 SHL DUP4 MSTORE PUSH1 0x22 PUSH1 0x4 MSTORE PUSH1 0x24 DUP4 REVERT JUMPDEST SWAP5 PUSH1 0x7F AND SWAP5 PUSH3 0x109 JUMP JUMPDEST PUSH4 0x4E487B71 PUSH1 0xE0 SHL PUSH1 0x0 MSTORE PUSH1 0x41 PUSH1 0x4 MSTORE PUSH1 0x24 PUSH1 0x0 REVERT JUMPDEST PUSH1 0x0 DUP1 REVERT JUMPDEST PUSH1 0x40 MLOAD SWAP2 SWAP1 PUSH1 0x1F ADD PUSH1 0x1F NOT AND DUP3 ADD PUSH1 0x1 PUSH1 0x1 PUSH1 0x40 SHL SUB DUP2 GT DUP4 DUP3 LT OR PUSH3 0x3A2 JUMPI PUSH1 0x40 MSTORE JUMP JUMPDEST SWAP2 SWAP1 DUP1 PUSH1 0x1F DUP5 ADD SLT ISZERO PUSH3 0x3B8 JUMPI DUP3 MLOAD PUSH1 0x1 PUSH1 0x1 PUSH1 0x40 SHL SUB DUP2 GT PUSH3 0x3A2 JUMPI PUSH1 0x20 SWAP1 PUSH3 0x419 PUSH1 0x1F DUP3 ADD PUSH1 0x1F NOT AND DUP4 ADD PUSH3 0x3BD JUMP JUMPDEST SWAP3 DUP2 DUP5 MSTORE DUP3 DUP3 DUP8 ADD ADD GT PUSH3 0x3B8 JUMPI PUSH1 0x0 JUMPDEST DUP2 DUP2 LT PUSH3 0x441 JUMPI POP DUP3 PUSH1 0x0 SWAP4 SWAP5 SWAP6 POP ADD ADD MSTORE SWAP1 JUMP JUMPDEST DUP6 DUP2 ADD DUP4 ADD MLOAD DUP5 DUP3 ADD DUP5 ADD MSTORE DUP3 ADD PUSH3 0x42B JUMP INVALID PUSH1 0x80 PUSH1 0x40 DUP2 DUP2 MSTORE PUSH1 0x4 SWAP2 DUP3 CALLDATASIZE LT ISZERO PUSH2 0x16 JUMPI PUSH1 0x0 DUP1 REVERT JUMPDEST PUSH1 0x0 SWAP3 DUP4 CALLDATALOAD PUSH1 0xE0 SHR SWAP2 DUP3 PUSH4 0x1FFC9A7 EQ PUSH2 0x9F5 JUMPI POP DUP2 PUSH4 0x6FDDE03 EQ PUSH2 0x94D JUMPI DUP2 PUSH4 0x81812FC EQ PUSH2 0x931 JUMPI DUP2 PUSH4 0x95EA7B3 EQ PUSH2 0x8DF JUMPI DUP2 PUSH4 0x18160DDD EQ PUSH2 0x8A0 JUMPI DUP2 PUSH4 0x23B872DD EQ PUSH2 0x860 JUMPI DUP2 PUSH4 0x2EB4A7AB EQ PUSH2 0x865 JUMPI DUP2 PUSH4 0x42842E0E EQ PUSH2 0x860 JUMPI DUP2 PUSH4 0x5BDEB6BE EQ PUSH2 0x818 JUMPI DUP2 PUSH4 0x6352211E EQ PUSH2 0x7DB JUMPI DUP2 PUSH4 0x6511BF2E EQ PUSH2 0x7A3 JUMPI DUP2 PUSH4 0x70A08231 EQ PUSH2 0x732 JUMPI DUP2 PUSH4 0x73B2E80E EQ PUSH2 0x1BA JUMPI DUP2 PUSH4 0x8A747D42 EQ PUSH2 0x4B6 JUMPI DUP2 PUSH4 0x8DA5CB5B EQ PUSH2 0x472 JUMPI DUP2 PUSH4 0x95D89B41 EQ PUSH2 0x38F JUMPI DUP2 PUSH4 0xA22CB465 EQ PUSH2 0x35B JUMPI DUP4 DUP3 PUSH4 0xB27C0D04 EQ PUSH2 0x29B JUMPI POP DUP2 PUSH4 0xB88D4FDE EQ PUSH2 0x24C JUMPI DUP2 PUSH4 0xC18B065E EQ PUSH2 0x1F8 JUMPI DUP2 PUSH4 0xC8297D75 EQ PUSH2 0x1BA JUMPI DUP2 PUSH4 0xC87B56DD EQ PUSH2 0x154 JUMPI POP PUSH4 0xE985E9C5 EQ PUSH2 0x124 JUMPI PUSH1 0x0 DUP1 REVERT JUMPDEST CALLVALUE PUSH2 0x150 JUMPI DUP1 PUSH1 0x3 NOT CALLDATASIZE ADD SLT PUSH2 0x150 JUMPI SWAP1 PUSH1 0x20 SWAP2 PUSH2 0x140 PUSH2 0xBF0 JUMP JUMPDEST POP PUSH2 0x149 PUSH2 0xC0B JUMP JUMPDEST POP MLOAD SWAP1 DUP2 MSTORE RETURN JUMPDEST POP DUP1 REVERT JUMPDEST SWAP1 POP CALLVALUE PUSH2 0x1B6 JUMPI PUSH1 0x20 CALLDATASIZE PUSH1 0x3 NOT ADD SLT PUSH2 0x1B6 JUMPI CALLDATALOAD DUP1 DUP4 MSTORE PUSH1 0x3 PUSH1 0x20 MSTORE DUP2 DUP4 KECCAK256 SLOAD PUSH2 0x1B2 SWAP4 PUSH2 0x19F SWAP3 DUP5 SWAP3 PUSH2 0x192 SWAP1 PUSH1 0x1 PUSH1 0x1 PUSH1 0xA0 SHL SUB AND ISZERO ISZERO PUSH2 0xD05 JUMP JUMPDEST DUP2 MSTORE PUSH1 0x5 PUSH1 0x20 MSTORE KECCAK256 PUSH2 0xB0A JUMP JUMPDEST SWAP1 MLOAD SWAP2 DUP3 SWAP2 PUSH1 0x20 DUP4 MSTORE PUSH1 0x20 DUP4 ADD SWAP1 PUSH2 0xBB0 JUMP JUMPDEST SUB SWAP1 RETURN JUMPDEST DUP3 DUP1 REVERT JUMPDEST POP POP CALLVALUE PUSH2 0x150 JUMPI PUSH1 0x20 CALLDATASIZE PUSH1 0x3 NOT ADD SLT PUSH2 0x150 JUMPI PUSH1 0x20 SWAP2 PUSH1 0xFF SWAP1 DUP3 SWAP1 PUSH1 0x1 PUSH1 0x1 PUSH1 0xA0 SHL SUB PUSH2 0x1E5 PUSH2 0xBF0 JUMP JUMPDEST AND DUP2 MSTORE PUSH1 0x6 DUP6 MSTORE KECCAK256 SLOAD AND SWAP1 MLOAD SWAP1 ISZERO ISZERO DUP2 MSTORE RETURN JUMPDEST SWAP1 POP CALLVALUE PUSH2 0x1B6 JUMPI DUP2 PUSH1 0x3 NOT CALLDATASIZE ADD SLT PUSH2 0x1B6 JUMPI PUSH2 0x212 PUSH2 0xBF0 JUMP JUMPDEST SWAP3 PUSH1 0x24 CALLDATALOAD SWAP1 PUSH8 0xFFFFFFFFFFFFFFFF DUP3 GT PUSH2 0x249 JUMPI POP SWAP3 PUSH2 0x23A PUSH2 0x240 SWAP3 PUSH1 0x20 SWAP6 CALLDATASIZE SWAP2 ADD PUSH2 0xC5B JUMP JUMPDEST SWAP2 PUSH2 0xDD6 JUMP JUMPDEST SWAP1 MLOAD SWAP1 ISZERO ISZERO DUP2 MSTORE RETURN JUMPDEST DUP1 REVERT JUMPDEST DUP4 CALLVALUE PUSH2 0x249 JUMPI PUSH1 0x80 CALLDATASIZE PUSH1 0x3 NOT ADD SLT PUSH2 0x249 JUMPI PUSH2 0x266 PUSH2 0xBF0 JUMP JUMPDEST SWAP2 PUSH2 0x26F PUSH2 0xC0B JUMP JUMPDEST SWAP2 PUSH1 0x64 CALLDATALOAD SWAP1 PUSH8 0xFFFFFFFFFFFFFFFF DUP3 GT PUSH2 0x249 JUMPI POP PUSH2 0x290 SWAP2 CALLDATASIZE SWAP2 ADD PUSH2 0xC8C JUMP JUMPDEST POP POP PUSH1 0x44 CALLDATALOAD SWAP2 PUSH2 0xD48 JUMP JUMPDEST SWAP3 SWAP2 POP CALLVALUE PUSH2 0x357 JUMPI PUSH2 0x2AC CALLDATASIZE PUSH2 0xCBA JUMP JUMPDEST SWAP2 SWAP1 SWAP6 SWAP3 ADDRESS EXTCODESIZE ISZERO PUSH2 0x353 JUMPI DUP6 MLOAD PUSH4 0x453A3EA1 PUSH1 0xE1 SHL DUP2 MSTORE DUP6 DUP2 ADD DUP8 SWAP1 MSTORE PUSH1 0x44 DUP2 ADD DUP4 SWAP1 MSTORE SWAP7 PUSH1 0x1 PUSH1 0x1 PUSH1 0xFB SHL SUB DUP4 GT PUSH2 0x34F JUMPI DUP8 SWAP4 PUSH1 0x64 PUSH2 0x306 SWAP4 DUP7 SWAP6 PUSH1 0x5 SHL DUP1 SWAP2 DUP4 DUP9 ADD CALLDATACOPY DUP6 ADD PUSH1 0x60 DUP7 DUP3 SUB ADD PUSH1 0x24 DUP8 ADD MSTORE ADD SWAP2 PUSH2 0xDB5 JUMP JUMPDEST SUB DUP2 DUP4 ADDRESS GAS CALL DUP1 ISZERO PUSH2 0x345 JUMPI PUSH2 0x31A JUMPI DUP4 DUP1 RETURN JUMPDEST PUSH8 0xFFFFFFFFFFFFFFFF DUP4 GT PUSH2 0x332 JUMPI POP MSTORE CODESIZE DUP1 DUP1 DUP4 DUP1 RETURN JUMPDEST PUSH4 0x4E487B71 PUSH1 0xE0 SHL DUP5 MSTORE PUSH1 0x41 SWAP1 MSTORE PUSH1 0x24 DUP4 REVERT JUMPDEST DUP3 MLOAD RETURNDATASIZE DUP7 DUP3 RETURNDATACOPY RETURNDATASIZE SWAP1 REVERT JUMPDEST DUP5 DUP1 REVERT JUMPDEST DUP4 DUP1 REVERT JUMPDEST POP POP REVERT JUMPDEST DUP3 DUP5 CALLVALUE PUSH2 0x249 JUMPI DUP2 PUSH1 0x3 NOT CALLDATASIZE ADD SLT PUSH2 0x249 JUMPI PUSH2 0x375 PUSH2 0xBF0 JUMP JUMPDEST POP PUSH1 0x24 CALLDATALOAD DUP1 ISZERO ISZERO SUB PUSH2 0x249 JUMPI POP MLOAD PUSH4 0xD181153 PUSH1 0xE1 SHL DUP2 MSTORE REVERT JUMPDEST POP POP CALLVALUE PUSH2 0x150 JUMPI DUP2 PUSH1 0x3 NOT CALLDATASIZE ADD SLT PUSH2 0x150 JUMPI DUP1 MLOAD SWAP1 DUP3 PUSH1 0x1 DUP1 SLOAD SWAP2 PUSH2 0x3B3 DUP4 PUSH2 0xA60 JUMP JUMPDEST DUP1 DUP7 MSTORE SWAP3 DUP3 DUP2 AND SWAP1 DUP2 ISZERO PUSH2 0x44A JUMPI POP PUSH1 0x1 EQ PUSH2 0x3EE JUMPI JUMPDEST POP POP POP PUSH2 0x3DC DUP3 PUSH2 0x1B2 SWAP5 SUB DUP4 PUSH2 0xAE8 JUMP JUMPDEST MLOAD SWAP2 DUP3 SWAP2 PUSH1 0x20 DUP4 MSTORE PUSH1 0x20 DUP4 ADD SWAP1 PUSH2 0xBB0 JUMP JUMPDEST SWAP5 POP DUP1 DUP6 MSTORE PUSH32 0xB10E2D527612073B26EECDFD717E6A320CF44B4AFAC2B0732D9FCBE2B7FA0CF6 JUMPDEST DUP3 DUP7 LT PUSH2 0x432 JUMPI POP POP POP PUSH2 0x3DC DUP3 PUSH1 0x20 PUSH2 0x1B2 SWAP6 DUP3 ADD ADD SWAP5 PUSH2 0x3CA JUMP JUMPDEST DUP1 SLOAD PUSH1 0x20 DUP8 DUP8 ADD DUP2 ADD SWAP2 SWAP1 SWAP2 MSTORE SWAP1 SWAP6 ADD SWAP5 DUP2 ADD PUSH2 0x415 JUMP JUMPDEST PUSH2 0x1B2 SWAP8 POP DUP7 SWAP4 POP PUSH1 0x20 SWAP3 POP PUSH2 0x3DC SWAP5 SWAP2 POP PUSH1 0xFF NOT AND DUP3 DUP5 ADD MSTORE ISZERO ISZERO PUSH1 0x5 SHL DUP3 ADD ADD SWAP5 PUSH2 0x3CA JUMP JUMPDEST POP POP CALLVALUE PUSH2 0x150 JUMPI DUP2 PUSH1 0x3 NOT CALLDATASIZE ADD SLT PUSH2 0x150 JUMPI MLOAD PUSH32 0x0 PUSH1 0x1 PUSH1 0x1 PUSH1 0xA0 SHL SUB AND DUP2 MSTORE PUSH1 0x20 SWAP1 RETURN JUMPDEST SWAP2 SWAP1 POP CALLVALUE PUSH2 0x1B6 JUMPI PUSH2 0x4C7 CALLDATASIZE PUSH2 0xCBA JUMP JUMPDEST SWAP2 SWAP4 SWAP1 SWAP3 CALLER DUP8 MSTORE PUSH1 0x20 SWAP5 PUSH1 0x6 DUP7 MSTORE PUSH1 0xFF DUP4 DUP10 KECCAK256 SLOAD AND PUSH2 0x722 JUMPI SWAP1 PUSH2 0x507 SWAP2 DUP4 MLOAD DUP8 DUP2 ADD SWAP1 CALLER PUSH1 0x60 SHL DUP3 MSTORE PUSH1 0x14 DUP2 MSTORE PUSH2 0x4FE DUP2 PUSH2 0xA9A JUMP JUMPDEST MLOAD SWAP1 KECCAK256 SWAP2 PUSH2 0xEB2 JUMP JUMPDEST ISZERO PUSH2 0x713 JUMPI CALLER DUP7 MSTORE PUSH1 0x6 DUP5 MSTORE DUP1 DUP7 KECCAK256 SWAP5 PUSH1 0x1 SWAP6 DUP7 PUSH1 0xFF NOT DUP3 SLOAD AND OR SWAP1 SSTORE PUSH1 0x2 SLOAD SWAP6 PUSH2 0x531 DUP8 PUSH2 0xD90 JUMP JUMPDEST PUSH1 0x2 SSTORE DUP7 DUP9 MSTORE PUSH1 0x3 DUP7 MSTORE DUP3 DUP9 KECCAK256 CALLER PUSH12 0xFFFFFFFFFFFFFFFFFFFFFFFF PUSH1 0xA0 SHL DUP3 SLOAD AND OR SWAP1 SSTORE CALLER DUP9 MSTORE DUP2 DUP7 MSTORE DUP1 DUP4 DUP10 KECCAK256 SSTORE DUP7 DUP9 MSTORE PUSH1 0x5 DUP7 MSTORE DUP3 DUP9 KECCAK256 SWAP2 PUSH8 0xFFFFFFFFFFFFFFFF DUP6 GT PUSH2 0x700 JUMPI POP PUSH2 0x585 DUP3 SLOAD PUSH2 0xA60 JUMP JUMPDEST PUSH1 0x1F DUP2 GT PUSH2 0x6BA JUMPI JUMPDEST POP DUP8 PUSH1 0x1F DUP6 GT PUSH1 0x1 EQ PUSH2 0x634 JUMPI SWAP2 DUP5 DUP1 PUSH32 0x58A0743FD9C19D45E88C2407FE287721561659B587D3F929F63AF8F21FFB8F44 SWAP8 SWAP7 SWAP6 SWAP4 PUSH2 0x623 SWAP6 DUP13 SWAP4 PUSH2 0x629 JUMPI JUMPDEST POP SHL SWAP1 PUSH1 0x0 NOT DUP7 PUSH1 0x3 SHL SHR NOT AND OR SWAP1 SSTORE JUMPDEST CALLER DUP9 MSTORE PUSH1 0x7 DUP7 MSTORE DUP7 DUP2 DUP10 KECCAK256 SSTORE MLOAD SWAP3 DUP4 SWAP3 DUP8 CALLER DUP11 PUSH32 0xDDF252AD1BE2C89B69C2B068FC378DAA952BA7F163C4A11628F55A4DF523B3EF DUP2 DUP1 LOG4 DUP7 DUP5 MSTORE CALLER SWAP7 DUP5 ADD SWAP2 PUSH2 0xDB5 JUMP JUMPDEST SUB SWAP1 LOG3 DUP1 RETURN JUMPDEST DUP9 ADD CALLDATALOAD SWAP3 POP CODESIZE PUSH2 0x5CE JUMP JUMPDEST DUP3 DUP10 MSTORE DUP7 DUP10 KECCAK256 SWAP1 PUSH1 0x1F NOT DUP7 AND DUP11 JUMPDEST DUP10 DUP3 DUP3 LT PUSH2 0x6A6 JUMPI POP POP SWAP2 DUP7 SWAP6 SWAP4 SWAP2 PUSH32 0x58A0743FD9C19D45E88C2407FE287721561659B587D3F929F63AF8F21FFB8F44 SWAP9 SWAP8 PUSH2 0x623 SWAP7 SWAP5 LT PUSH2 0x68C JUMPI JUMPDEST POP POP DUP5 DUP2 SHL ADD SWAP1 SSTORE PUSH2 0x5DF JUMP JUMPDEST DUP8 ADD CALLDATALOAD PUSH1 0x0 NOT PUSH1 0x3 DUP9 SWAP1 SHL PUSH1 0xF8 AND SHR NOT AND SWAP1 SSTORE CODESIZE DUP1 PUSH2 0x67F JUMP JUMPDEST DUP10 DUP5 ADD CALLDATALOAD DUP6 SSTORE SWAP4 DUP6 ADD SWAP4 SWAP3 DUP4 ADD SWAP3 ADD PUSH2 0x642 JUMP JUMPDEST DUP3 DUP10 MSTORE DUP7 DUP10 KECCAK256 PUSH1 0x1F DUP7 ADD PUSH1 0x5 SHR DUP2 ADD SWAP2 DUP9 DUP8 LT PUSH2 0x6F6 JUMPI JUMPDEST PUSH1 0x1F ADD PUSH1 0x5 SHR ADD SWAP1 DUP3 SWAP1 JUMPDEST DUP3 DUP2 LT PUSH2 0x6EB JUMPI POP POP PUSH2 0x58E JUMP JUMPDEST DUP11 DUP2 SSTORE ADD DUP3 SWAP1 PUSH2 0x6DD JUMP JUMPDEST SWAP1 SWAP2 POP DUP2 SWAP1 PUSH2 0x6D2 JUMP JUMPDEST PUSH4 0x4E487B71 PUSH1 0xE0 SHL DUP10 MSTORE PUSH1 0x41 SWAP1 MSTORE PUSH1 0x24 DUP9 REVERT JUMPDEST MLOAD PUSH4 0x582F497D PUSH1 0xE1 SHL DUP2 MSTORE DUP5 SWAP1 REVERT JUMPDEST DUP3 MLOAD PUSH4 0x8E03CD25 PUSH1 0xE0 SHL DUP2 MSTORE DUP8 SWAP1 REVERT JUMPDEST DUP3 DUP5 CALLVALUE PUSH2 0x249 JUMPI PUSH1 0x20 CALLDATASIZE PUSH1 0x3 NOT ADD SLT PUSH2 0x249 JUMPI PUSH1 0x1 PUSH1 0x1 PUSH1 0xA0 SHL SUB PUSH2 0x755 PUSH2 0xBF0 JUMP JUMPDEST AND DUP1 ISZERO PUSH2 0x76E JUMPI DUP2 MSTORE PUSH1 0x20 SWAP3 DUP4 MSTORE DUP2 SWAP1 KECCAK256 SLOAD SWAP1 MLOAD SWAP1 DUP2 MSTORE RETURN JUMPDEST DUP3 MLOAD PUSH3 0x461BCD PUSH1 0xE5 SHL DUP2 MSTORE PUSH1 0x20 DUP2 DUP7 ADD MSTORE PUSH1 0xF PUSH1 0x24 DUP3 ADD MSTORE PUSH15 0x496E76616C69642061646472657373 PUSH1 0x88 SHL PUSH1 0x44 DUP3 ADD MSTORE PUSH1 0x64 SWAP1 REVERT JUMPDEST POP POP CALLVALUE PUSH2 0x150 JUMPI PUSH1 0x20 CALLDATASIZE PUSH1 0x3 NOT ADD SLT PUSH2 0x150 JUMPI PUSH1 0x20 SWAP2 DUP2 SWAP1 PUSH1 0x1 PUSH1 0x1 PUSH1 0xA0 SHL SUB PUSH2 0x7CB PUSH2 0xBF0 JUMP JUMPDEST AND DUP2 MSTORE PUSH1 0x7 DUP5 MSTORE KECCAK256 SLOAD SWAP1 MLOAD SWAP1 DUP2 MSTORE RETURN JUMPDEST SWAP1 POP CALLVALUE PUSH2 0x1B6 JUMPI PUSH1 0x20 CALLDATASIZE PUSH1 0x3 NOT ADD SLT PUSH2 0x1B6 JUMPI CALLDATALOAD DUP3 MSTORE PUSH1 0x3 PUSH1 0x20 SWAP1 DUP2 MSTORE SWAP2 DUP2 SWAP1 KECCAK256 SLOAD PUSH1 0x1 PUSH1 0x1 PUSH1 0xA0 SHL SUB AND SWAP1 PUSH2 0x812 DUP3 ISZERO ISZERO PUSH2 0xD05 JUMP JUMPDEST MLOAD SWAP1 DUP2 MSTORE RETURN JUMPDEST DUP3 DUP5 CALLVALUE PUSH2 0x249 JUMPI PUSH1 0x20 CALLDATASIZE PUSH1 0x3 NOT ADD SLT PUSH2 0x249 JUMPI POP PUSH1 0x60 PUSH2 0x1B2 PUSH2 0x841 PUSH2 0x83C PUSH2 0xBF0 JUMP JUMPDEST PUSH2 0xE2E JUMP JUMPDEST SWAP2 SWAP4 SWAP1 SWAP5 DUP1 MLOAD SWAP6 DUP7 SWAP6 ISZERO ISZERO DUP7 MSTORE PUSH1 0x20 DUP7 ADD MSTORE DUP5 ADD MSTORE PUSH1 0x60 DUP4 ADD SWAP1 PUSH2 0xBB0 JUMP JUMPDEST PUSH2 0xC21 JUMP JUMPDEST POP POP CALLVALUE PUSH2 0x150 JUMPI DUP2 PUSH1 0x3 NOT CALLDATASIZE ADD SLT PUSH2 0x150 JUMPI PUSH1 0x20 SWAP1 MLOAD PUSH32 0x0 DUP2 MSTORE RETURN JUMPDEST DUP4 DUP4 CALLVALUE PUSH2 0x150 JUMPI DUP2 PUSH1 0x3 NOT CALLDATASIZE ADD SLT PUSH2 0x150 JUMPI PUSH1 0x2 SLOAD PUSH1 0x0 NOT DUP2 ADD SWAP3 SWAP1 DUP4 GT PUSH2 0x8CC JUMPI PUSH1 0x20 DUP4 DUP4 MLOAD SWAP1 DUP2 MSTORE RETURN JUMPDEST PUSH4 0x4E487B71 PUSH1 0xE0 SHL DUP2 MSTORE PUSH1 0x11 DUP5 MSTORE PUSH1 0x24 SWAP1 REVERT JUMPDEST DUP4 DUP4 CALLVALUE PUSH2 0x150 JUMPI DUP1 PUSH1 0x3 NOT CALLDATASIZE ADD SLT PUSH2 0x150 JUMPI PUSH2 0x8F9 PUSH2 0xBF0 JUMP JUMPDEST POP MLOAD SWAP1 PUSH1 0x24 CALLDATALOAD SWAP1 DUP1 PUSH32 0x50E2CBB7C13FD45AC2757350533E31690A764A390067A92D43B7039C6D49741 DUP2 DUP1 LOG4 PUSH4 0xD181153 PUSH1 0xE1 SHL DUP2 MSTORE REVERT JUMPDEST POP POP CALLVALUE PUSH2 0x150 JUMPI PUSH1 0x20 CALLDATASIZE PUSH1 0x3 NOT ADD SLT PUSH2 0x150 JUMPI MLOAD SWAP1 DUP2 MSTORE PUSH1 0x20 SWAP1 RETURN JUMPDEST POP POP CALLVALUE PUSH2 0x150 JUMPI DUP2 PUSH1 0x3 NOT CALLDATASIZE ADD SLT PUSH2 0x150 JUMPI DUP1 MLOAD SWAP1 DUP3 DUP1 SLOAD PUSH2 0x96E DUP2 PUSH2 0xA60 JUMP JUMPDEST DUP1 DUP6 MSTORE SWAP2 PUSH1 0x1 SWAP2 DUP1 DUP4 AND SWAP1 DUP2 ISZERO PUSH2 0x44A JUMPI POP PUSH1 0x1 EQ PUSH2 0x999 JUMPI POP POP POP PUSH2 0x3DC DUP3 PUSH2 0x1B2 SWAP5 SUB DUP4 PUSH2 0xAE8 JUMP JUMPDEST DUP1 DUP1 SWAP7 POP MSTORE PUSH32 0x290DECD9548B62A8D60345A988386FC84BA6BC95484008F6362F93160EF3E563 JUMPDEST DUP3 DUP7 LT PUSH2 0x9DD JUMPI POP POP POP PUSH2 0x3DC DUP3 PUSH1 0x20 PUSH2 0x1B2 SWAP6 DUP3 ADD ADD SWAP5 PUSH2 0x3CA JUMP JUMPDEST DUP1 SLOAD PUSH1 0x20 DUP8 DUP8 ADD DUP2 ADD SWAP2 SWAP1 SWAP2 MSTORE SWAP1 SWAP6 ADD SWAP5 DUP2 ADD PUSH2 0x9C0 JUMP JUMPDEST DUP5 SWAP2 CALLVALUE PUSH2 0x1B6 JUMPI PUSH1 0x20 CALLDATASIZE PUSH1 0x3 NOT ADD SLT PUSH2 0x1B6 JUMPI CALLDATALOAD PUSH4 0xFFFFFFFF PUSH1 0xE0 SHL DUP2 AND DUP1 SWAP2 SUB PUSH2 0x1B6 JUMPI PUSH1 0x20 SWAP3 POP PUSH4 0x1FFC9A7 PUSH1 0xE0 SHL DUP2 EQ SWAP1 DUP2 ISZERO PUSH2 0xA4F JUMPI JUMPDEST DUP2 ISZERO PUSH2 0xA3E JUMPI JUMPDEST POP ISZERO ISZERO DUP2 MSTORE RETURN JUMPDEST PUSH4 0x5B5E139F PUSH1 0xE0 SHL EQ SWAP1 POP DUP4 PUSH2 0xA37 JUMP JUMPDEST PUSH4 0x80AC58CD PUSH1 0xE0 SHL DUP2 EQ SWAP2 POP PUSH2 0xA30 JUMP JUMPDEST SWAP1 PUSH1 0x1 DUP3 DUP2 SHR SWAP3 AND DUP1 ISZERO PUSH2 0xA90 JUMPI JUMPDEST PUSH1 0x20 DUP4 LT EQ PUSH2 0xA7A JUMPI JUMP JUMPDEST PUSH4 0x4E487B71 PUSH1 0xE0 SHL PUSH1 0x0 MSTORE PUSH1 0x22 PUSH1 0x4 MSTORE PUSH1 0x24 PUSH1 0x0 REVERT JUMPDEST SWAP2 PUSH1 0x7F AND SWAP2 PUSH2 0xA6F JUMP JUMPDEST PUSH1 0x40 DUP2 ADD SWAP1 DUP2 LT PUSH8 0xFFFFFFFFFFFFFFFF DUP3 GT OR PUSH2 0xAB6 JUMPI PUSH1 0x40 MSTORE JUMP JUMPDEST PUSH4 0x4E487B71 PUSH1 0xE0 SHL PUSH1 0x0 MSTORE PUSH1 0x41 PUSH1 0x4 MSTORE PUSH1 0x24 PUSH1 0x0 REVERT JUMPDEST PUSH1 0x60 DUP2 ADD SWAP1 DUP2 LT PUSH8 0xFFFFFFFFFFFFFFFF DUP3 GT OR PUSH2 0xAB6 JUMPI PUSH1 0x40 MSTORE JUMP JUMPDEST SWAP1 PUSH1 0x1F DUP1 NOT SWAP2 ADD AND DUP2 ADD SWAP1 DUP2 LT PUSH8 0xFFFFFFFFFFFFFFFF DUP3 GT OR PUSH2 0xAB6 JUMPI PUSH1 0x40 MSTORE JUMP JUMPDEST SWAP1 PUSH1 0x40 MLOAD SWAP2 DUP3 PUSH1 0x0 DUP3 SLOAD SWAP3 PUSH2 0xB1E DUP5 PUSH2 0xA60 JUMP JUMPDEST SWAP1 DUP2 DUP5 MSTORE PUSH1 0x1 SWAP5 DUP6 DUP2 AND SWAP1 DUP2 PUSH1 0x0 EQ PUSH2 0xB8D JUMPI POP PUSH1 0x1 EQ PUSH2 0xB4A JUMPI JUMPDEST POP POP PUSH2 0xB48 SWAP3 POP SUB DUP4 PUSH2 0xAE8 JUMP JUMPDEST JUMP JUMPDEST SWAP1 SWAP4 SWAP2 POP PUSH1 0x0 MSTORE PUSH1 0x20 SWAP1 DUP2 PUSH1 0x0 KECCAK256 SWAP4 PUSH1 0x0 SWAP2 JUMPDEST DUP2 DUP4 LT PUSH2 0xB75 JUMPI POP POP PUSH2 0xB48 SWAP4 POP DUP3 ADD ADD CODESIZE DUP1 PUSH2 0xB3A JUMP JUMPDEST DUP6 SLOAD DUP9 DUP5 ADD DUP6 ADD MSTORE SWAP5 DUP6 ADD SWAP5 DUP8 SWAP5 POP SWAP2 DUP4 ADD SWAP2 PUSH2 0xB5D JUMP JUMPDEST SWAP2 POP POP PUSH2 0xB48 SWAP5 POP PUSH1 0x20 SWAP3 POP PUSH1 0xFF NOT AND DUP3 DUP5 ADD MSTORE ISZERO ISZERO PUSH1 0x5 SHL DUP3 ADD ADD CODESIZE DUP1 PUSH2 0xB3A JUMP JUMPDEST SWAP2 SWAP1 DUP3 MLOAD SWAP3 DUP4 DUP3 MSTORE PUSH1 0x0 JUMPDEST DUP5 DUP2 LT PUSH2 0xBDC JUMPI POP POP DUP3 PUSH1 0x0 PUSH1 0x20 DUP1 SWAP5 SWAP6 DUP5 ADD ADD MSTORE PUSH1 0x1F DUP1 NOT SWAP2 ADD AND ADD ADD SWAP1 JUMP JUMPDEST PUSH1 0x20 DUP2 DUP4 ADD DUP2 ADD MLOAD DUP5 DUP4 ADD DUP3 ADD MSTORE ADD PUSH2 0xBBB JUMP JUMPDEST PUSH1 0x4 CALLDATALOAD SWAP1 PUSH1 0x1 PUSH1 0x1 PUSH1 0xA0 SHL SUB DUP3 AND DUP3 SUB PUSH2 0xC06 JUMPI JUMP JUMPDEST PUSH1 0x0 DUP1 REVERT JUMPDEST PUSH1 0x24 CALLDATALOAD SWAP1 PUSH1 0x1 PUSH1 0x1 PUSH1 0xA0 SHL SUB DUP3 AND DUP3 SUB PUSH2 0xC06 JUMPI JUMP JUMPDEST CALLVALUE PUSH2 0xC06 JUMPI PUSH1 0x60 CALLDATASIZE PUSH1 0x3 NOT ADD SLT PUSH2 0xC06 JUMPI PUSH1 0x4 CALLDATALOAD PUSH1 0x1 PUSH1 0x1 PUSH1 0xA0 SHL SUB DUP1 DUP3 AND DUP3 SUB PUSH2 0xC06 JUMPI PUSH1 0x24 CALLDATALOAD SWAP1 DUP2 AND DUP2 SUB PUSH2 0xC06 JUMPI PUSH1 0x44 CALLDATALOAD SWAP2 PUSH2 0xD48 JUMP JUMPDEST SWAP2 DUP2 PUSH1 0x1F DUP5 ADD SLT ISZERO PUSH2 0xC06 JUMPI DUP3 CALLDATALOAD SWAP2 PUSH8 0xFFFFFFFFFFFFFFFF DUP4 GT PUSH2 0xC06 JUMPI PUSH1 0x20 DUP1 DUP6 ADD SWAP5 DUP5 PUSH1 0x5 SHL ADD ADD GT PUSH2 0xC06 JUMPI JUMP JUMPDEST SWAP2 DUP2 PUSH1 0x1F DUP5 ADD SLT ISZERO PUSH2 0xC06 JUMPI DUP3 CALLDATALOAD SWAP2 PUSH8 0xFFFFFFFFFFFFFFFF DUP4 GT PUSH2 0xC06 JUMPI PUSH1 0x20 DUP4 DUP2 DUP7 ADD SWAP6 ADD ADD GT PUSH2 0xC06 JUMPI JUMP JUMPDEST PUSH1 0x40 PUSH1 0x3 NOT DUP3 ADD SLT PUSH2 0xC06 JUMPI PUSH8 0xFFFFFFFFFFFFFFFF SWAP2 PUSH1 0x4 CALLDATALOAD DUP4 DUP2 GT PUSH2 0xC06 JUMPI DUP3 PUSH2 0xCE7 SWAP2 PUSH1 0x4 ADD PUSH2 0xC5B JUMP JUMPDEST SWAP4 SWAP1 SWAP4 SWAP3 PUSH1 0x24 CALLDATALOAD SWAP2 DUP3 GT PUSH2 0xC06 JUMPI PUSH2 0xD01 SWAP2 PUSH1 0x4 ADD PUSH2 0xC8C JUMP JUMPDEST SWAP1 SWAP2 JUMP JUMPDEST ISZERO PUSH2 0xD0C JUMPI JUMP JUMPDEST PUSH1 0x40 MLOAD PUSH3 0x461BCD PUSH1 0xE5 SHL DUP2 MSTORE PUSH1 0x20 PUSH1 0x4 DUP3 ADD MSTORE PUSH1 0x14 PUSH1 0x24 DUP3 ADD MSTORE PUSH20 0x151BDAD95B88191BD95CC81B9BDD08195E1A5CDD PUSH1 0x62 SHL PUSH1 0x44 DUP3 ADD MSTORE PUSH1 0x64 SWAP1 REVERT JUMPDEST PUSH1 0x40 MLOAD PUSH1 0x4 SWAP4 SWAP1 SWAP3 SWAP1 SWAP2 PUSH1 0x1 PUSH1 0x1 PUSH1 0xA0 SHL SUB SWAP2 DUP3 AND SWAP2 AND PUSH32 0x50E2CBB7C13FD45AC2757350533E31690A764A390067A92D43B7039C6D49741 PUSH1 0x0 DUP1 LOG4 PUSH4 0xD181153 PUSH1 0xE1 SHL DUP2 MSTORE REVERT JUMPDEST PUSH1 0x0 NOT DUP2 EQ PUSH2 0xD9F JUMPI PUSH1 0x1 ADD SWAP1 JUMP JUMPDEST PUSH4 0x4E487B71 PUSH1 0xE0 SHL PUSH1 0x0 MSTORE PUSH1 0x11 PUSH1 0x4 MSTORE PUSH1 0x24 PUSH1 0x0 REVERT JUMPDEST SWAP1 DUP1 PUSH1 0x20 SWAP4 SWAP3 DUP2 DUP5 MSTORE DUP5 DUP5 ADD CALLDATACOPY PUSH1 0x0 DUP3 DUP3 ADD DUP5 ADD MSTORE PUSH1 0x1F ADD PUSH1 0x1F NOT AND ADD ADD SWAP1 JUMP JUMPDEST SWAP2 PUSH1 0x1 DUP1 PUSH1 0xA0 SHL SUB DUP4 AND PUSH1 0x0 MSTORE PUSH1 0x6 PUSH1 0x20 MSTORE PUSH1 0xFF PUSH1 0x40 PUSH1 0x0 KECCAK256 SLOAD AND PUSH2 0xE26 JUMPI PUSH2 0xE23 SWAP3 PUSH1 0x40 MLOAD PUSH1 0x20 DUP2 ADD SWAP2 PUSH12 0xFFFFFFFFFFFFFFFFFFFFFFFF NOT SWAP1 PUSH1 0x60 SHL AND DUP3 MSTORE PUSH1 0x14 DUP2 MSTORE PUSH2 0x4FE DUP2 PUSH2 0xA9A JUMP JUMPDEST SWAP1 JUMP JUMPDEST POP POP POP PUSH1 0x0 SWAP1 JUMP JUMPDEST PUSH1 0x1 PUSH1 0x1 PUSH1 0xA0 SHL SUB AND PUSH1 0x0 DUP2 DUP2 MSTORE PUSH1 0x6 PUSH1 0x20 MSTORE PUSH1 0x40 DUP2 KECCAK256 SLOAD SWAP1 SWAP3 SWAP2 SWAP1 PUSH1 0xFF AND ISZERO PUSH2 0xE77 JUMPI DUP3 MSTORE PUSH1 0x7 PUSH1 0x20 MSTORE PUSH2 0xE71 PUSH1 0x40 DUP1 DUP5 KECCAK256 SLOAD SWAP4 DUP5 DUP2 MSTORE PUSH1 0x5 PUSH1 0x20 MSTORE KECCAK256 PUSH2 0xB0A JUMP JUMPDEST PUSH1 0x1 SWAP3 SWAP2 JUMP JUMPDEST POP PUSH1 0x40 MLOAD DUP3 SWAP2 SWAP1 DUP3 PUSH1 0x20 DUP3 ADD PUSH8 0xFFFFFFFFFFFFFFFF DUP2 GT DUP4 DUP3 LT OR PUSH2 0xE9E JUMPI PUSH1 0x40 MSTORE DUP2 MSTORE SWAP1 JUMP JUMPDEST PUSH4 0x4E487B71 PUSH1 0xE0 SHL DUP3 MSTORE PUSH1 0x41 PUSH1 0x4 MSTORE PUSH1 0x24 DUP3 REVERT JUMPDEST SWAP1 PUSH1 0x0 DUP1 SWAP3 JUMPDEST DUP3 DUP5 LT PUSH2 0xEE8 JUMPI POP POP POP POP PUSH32 0x0 EQ SWAP1 JUMP JUMPDEST SWAP1 SWAP2 SWAP3 SWAP4 PUSH2 0xF27 SWAP1 DUP6 PUSH1 0x5 SHL DUP4 ADD CALLDATALOAD DUP1 DUP3 GT ISZERO PUSH1 0x0 EQ PUSH2 0xF2F JUMPI PUSH1 0x40 DUP1 MLOAD SWAP2 PUSH1 0x20 DUP4 ADD SWAP4 DUP5 MSTORE DUP2 DUP4 ADD MSTORE DUP2 MSTORE PUSH2 0xF1D DUP2 PUSH2 0xACC JUMP JUMPDEST MLOAD SWAP1 KECCAK256 JUMPDEST SWAP5 PUSH2 0xD90 JUMP JUMPDEST SWAP3 SWAP2 SWAP1 PUSH2 0xEB8 JUMP JUMPDEST SWAP1 PUSH1 0x40 DUP1 MLOAD SWAP2 PUSH1 0x20 DUP4 ADD SWAP4 DUP5 MSTORE DUP2 DUP4 ADD MSTORE DUP2 MSTORE PUSH2 0xF4B DUP2 PUSH2 0xACC JUMP JUMPDEST MLOAD SWAP1 KECCAK256 PUSH2 0xF21 JUMP INVALID LOG2 PUSH5 0x6970667358 0x22 SLT KECCAK256 DUP12 0xAA DUP3 0xDD PUSH16 0xCAE1D8471DCDA4E4269D6BA69F3FD2AD 0x1E PUSH8 0x8F406B7FC4E1EA48 AND PUSH5 0x736F6C6343 STOP ADDMOD EQ STOP CALLER "},"methodIdentifiers":{"addressToTokenId(address)":"6511bf2e","approve(address,uint256)":"095ea7b3","balanceOf(address)":"70a08231","claimCertificate(bytes32[],string)":"8a747d42","claimSoulboundCertificate(bytes32[],string)":"b27c0d04","getApproved(uint256)":"081812fc","getSoulboundCertificateDetails(address)":"5bdeb6be","hasClaimed(address)":"73b2e80e","hasSoulboundCertificate(address)":"c8297d75","isApprovedForAll(address,address)":"e985e9c5","isEligible(address,bytes32[])":"c18b065e","merkleRoot()":"2eb4a7ab","name()":"06fdde03","owner()":"8da5cb5b","ownerOf(uint256)":"6352211e","safeTransferFrom(address,address,uint256)":"42842e0e","safeTransferFrom(address,address,uint256,bytes)":"b88d4fde","setApprovalForAll(address,bool)":"a22cb465","supportsInterface(bytes4)":"01ffc9a7","symbol()":"95d89b41","tokenURI(uint256)":"c87b56dd","totalSupply()":"18160ddd","transferFrom(address,address,uint256)":"23b872dd"}}}}}