{"contracts/CertificateNFT.sol":{"CertificateNFT":{"abi":[{"inputs":[{"internalType":"string","name":"_name","type":"string"},{"internalType":"string","name":"_symbol","type":"string"},{"internalType":"string","name":"","type":"string"},{"internalType":"string","name":"","type":"string"},{"internalType":"string","name":"","type":"string"},{"internalType":"string","name":"","type":"string"},{"internalType":"bytes32","name":"_merkleRoot","type":"bytes32"}],"stateMutability":"nonpayable","type":"constructor"},{"inputs":[],"name":"CertificateAlreadyBound","type":"error"},{"inputs":[],"name":"NotSoulboundOwner","type":"error"},{"inputs":[],"name":"SoulboundApprovalNotAllowed","type":"error"},{"inputs":[],"name":"SoulboundTransferNotAllowed","type":"error"},{"anonymous":false,"inputs":[{"indexed":true,"internalType":"address","name":"owner","type":"address"},{"indexed":true,"internalType":"address","name":"approved","type":"address"},{"indexed":true,"internalType":"uint256","name":"tokenId","type":"uint256"}],"name":"Approval","type":"event"},{"anonymous":false,"inputs":[{"indexed":true,"internalType":"address","name":"owner","type":"address"},{"indexed":true,"internalType":"address","name":"operator","type":"address"},{"indexed":false,"internalType":"bool","name":"approved","type":"bool"}],"name":"ApprovalForAll","type":"event"},{"anonymous":false,"inputs":[{"indexed":true,"internalType":"address","name":"soul","type":"address"},{"indexed":true,"internalType":"uint256","name":"tokenId","type":"uint256"},{"indexed":false,"internalType":"string","name":"tokenURI","type":"string"}],"name":"SoulboundCertificateIssued","type":"event"},{"anonymous":false,"inputs":[{"indexed":true,"internalType":"address","name":"verifier","type":"address"},{"indexed":true,"internalType":"address","name":"soul","type":"address"},{"indexed":true,"internalType":"uint256","name":"tokenId","type":"uint256"}],"name":"SoulboundVerificationRequested","type":"event"},{"anonymous":false,"inputs":[{"indexed":true,"internalType":"address","name":"from","type":"address"},{"indexed":true,"internalType":"address","name":"to","type":"address"},{"indexed":true,"internalType":"uint256","name":"tokenId","type":"uint256"}],"name":"Transfer","type":"event"},{"inputs":[{"internalType":"address","name":"","type":"address"},{"internalType":"uint256","name":"","type":"uint256"}],"name":"approve","outputs":[],"stateMutability":"pure","type":"function"},{"inputs":[{"internalType":"address","name":"soul","type":"address"}],"name":"balanceOf","outputs":[{"internalType":"uint256","name":"","type":"uint256"}],"stateMutability":"view","type":"function"},{"inputs":[{"internalType":"bytes32[]","name":"_merkleProof","type":"bytes32[]"},{"internalType":"string","name":"_tokenURI","type":"string"}],"name":"claimCertificate","outputs":[],"stateMutability":"nonpayable","type":"function"},{"inputs":[{"internalType":"bytes32[]","name":"_merkleProof","type":"bytes32[]"},{"internalType":"string","name":"_tokenURI","type":"string"}],"name":"claimSoulboundCertificate","outputs":[],"stateMutability":"nonpayable","type":"function"},{"inputs":[{"internalType":"uint256","name":"","type":"uint256"}],"name":"getApproved","outputs":[{"internalType":"address","name":"","type":"address"}],"stateMutability":"pure","type":"function"},{"inputs":[{"internalType":"address","name":"_soul","type":"address"}],"name":"getSoulboundCertificateDetails","outputs":[{"internalType":"bool","name":"exists","type":"bool"},{"internalType":"uint256","name":"tokenId","type":"uint256"},{"internalType":"string","name":"uri","type":"string"}],"stateMutability":"view","type":"function"},{"inputs":[{"internalType":"address","name":"soul","type":"address"}],"name":"getSoulboundTokenId","outputs":[{"internalType":"uint256","name":"","type":"uint256"}],"stateMutability":"view","type":"function"},{"inputs":[{"internalType":"address","name":"","type":"address"}],"name":"hasClaimed","outputs":[{"internalType":"bool","name":"","type":"bool"}],"stateMutability":"view","type":"function"},{"inputs":[{"internalType":"address","name":"soul","type":"address"}],"name":"hasSoulboundCertificate","outputs":[{"internalType":"bool","name":"","type":"bool"}],"stateMutability":"view","type":"function"},{"inputs":[{"internalType":"address","name":"","type":"address"},{"internalType":"address","name":"","type":"address"}],"name":"isApprovedForAll","outputs":[{"internalType":"bool","name":"","type":"bool"}],"stateMutability":"pure","type":"function"},{"inputs":[{"internalType":"address","name":"_address","type":"address"},{"internalType":"bytes32[]","name":"_merkleProof","type":"bytes32[]"}],"name":"isEligible","outputs":[{"internalType":"bool","name":"","type":"bool"}],"stateMutability":"view","type":"function"},{"inputs":[{"internalType":"address","name":"_soul","type":"address"},{"internalType":"bytes32[]","name":"_merkleProof","type":"bytes32[]"}],"name":"isEligibleForSoulboundCertificate","outputs":[{"internalType":"bool","name":"","type":"bool"}],"stateMutability":"view","type":"function"},{"inputs":[],"name":"merkleRoot","outputs":[{"internalType":"bytes32","name":"","type":"bytes32"}],"stateMutability":"view","type":"function"},{"inputs":[],"name":"name","outputs":[{"internalType":"string","name":"","type":"string"}],"stateMutability":"view","type":"function"},{"inputs":[],"name":"owner","outputs":[{"internalType":"address","name":"","type":"address"}],"stateMutability":"view","type":"function"},{"inputs":[{"internalType":"uint256","name":"tokenId","type":"uint256"}],"name":"ownerOf","outputs":[{"internalType":"address","name":"","type":"address"}],"stateMutability":"view","type":"function"},{"inputs":[{"internalType":"address","name":"","type":"address"},{"internalType":"address","name":"","type":"address"},{"internalType":"uint256","name":"","type":"uint256"}],"name":"safeTransferFrom","outputs":[],"stateMutability":"pure","type":"function"},{"inputs":[{"internalType":"address","name":"","type":"address"},{"internalType":"address","name":"","type":"address"},{"internalType":"uint256","name":"","type":"uint256"},{"internalType":"bytes","name":"","type":"bytes"}],"name":"safeTransferFrom","outputs":[],"stateMutability":"pure","type":"function"},{"inputs":[{"internalType":"address","name":"","type":"address"},{"internalType":"bool","name":"","type":"bool"}],"name":"setApprovalForAll","outputs":[],"stateMutability":"pure","type":"function"},{"inputs":[{"internalType":"uint256","name":"tokenId","type":"uint256"}],"name":"soulboundOwnerOf","outputs":[{"internalType":"address","name":"","type":"address"}],"stateMutability":"view","type":"function"},{"inputs":[{"internalType":"address","name":"","type":"address"}],"name":"soulboundTokenId","outputs":[{"internalType":"uint256","name":"","type":"uint256"}],"stateMutability":"view","type":"function"},{"inputs":[{"internalType":"bytes4","name":"interfaceId","type":"bytes4"}],"name":"supportsInterface","outputs":[{"internalType":"bool","name":"","type":"bool"}],"stateMutability":"pure","type":"function"},{"inputs":[],"name":"symbol","outputs":[{"internalType":"string","name":"","type":"string"}],"stateMutability":"view","type":"function"},{"inputs":[{"internalType":"uint256","name":"tokenId","type":"uint256"}],"name":"tokenURI","outputs":[{"internalType":"string","name":"","type":"string"}],"stateMutability":"view","type":"function"},{"inputs":[],"name":"totalSupply","outputs":[{"internalType":"uint256","name":"","type":"uint256"}],"stateMutability":"view","type":"function"},{"inputs":[{"internalType":"address","name":"","type":"address"},{"internalType":"address","name":"","type":"address"},{"internalType":"uint256","name":"","type":"uint256"}],"name":"transferFrom","outputs":[],"stateMutability":"pure","type":"function"},{"inputs":[{"internalType":"address","name":"_soul","type":"address"}],"name":"verifySoulboundCertificate","outputs":[{"internalType":"bool","name":"","type":"bool"}],"stateMutability":"nonpayable","type":"function"}],"evm":{"bytecode":{"linkReferences":{},"object":"60c060405234620003b95762001415803803806200001d81620003be565b92833981019060e081830312620003b95780516001600160401b039190828111620003b9578362000050918301620003e4565b9160209384830151828111620003b957816200006e918501620003e4565b926040810151838111620003b957826200008a918301620003e4565b506060810151838111620003b95782620000a6918301620003e4565b506080810151838111620003b95782620000c2918301620003e4565b5060a0810151838111620003b95760c092620000e0918301620003e4565b50015191835190828211620003a35760008054926001968785811c9516801562000398575b8986101462000384578190601f9586811162000331575b508990868311600114620002cd578492620002c1575b5050600019600383901b1c191690871b1781555b8151938411620002ad5785548681811c91168015620002a2575b888210146200028e5783811162000246575b5086928411600114620001de57839495965092620001d2575b5050600019600383901b1c191690831b1782555b6080523360a052600255604051610fbe90816200045782396080518181816105d70152610dc7015260a051816103ec0152f35b0151905038806200018b565b9190601f1984169686845280842093905b8882106200022e5750508386979695961062000214575b505050811b0182556200019f565b015160001960f88460031b161c1916905538808062000206565b808885968294968601518155019501930190620001ef565b8682528782208480870160051c8201928a881062000284575b0160051c019087905b8281106200027857505062000172565b83815501879062000268565b925081926200025f565b634e487b7160e01b82526022600452602482fd5b90607f169062000160565b634e487b7160e01b81526041600452602490fd5b01519050388062000132565b8480528a85208a94509190601f198416865b8d8282106200031a575050841162000300575b505050811b01815562000146565b015160001960f88460031b161c19169055388080620002f2565b8385015186558d97909501949384019301620002df565b9091508380528984208680850160051c8201928c86106200037a575b918b91869594930160051c01915b8281106200036b5750506200011c565b8681558594508b91016200035b565b925081926200034d565b634e487b7160e01b83526022600452602483fd5b94607f169462000105565b634e487b7160e01b600052604160045260246000fd5b600080fd5b6040519190601f01601f191682016001600160401b03811183821017620003a357604052565b919080601f84011215620003b95782516001600160401b038111620003a3576020906200041a601f8201601f19168301620003be565b92818452828287010111620003b95760005b8181106200044257508260009394955001015290565b85810183015184820184015282016200042c56fe608060408181526004918236101561001657600080fd5b600092833560e01c91826301ffc9a7146107095750816306fdde0314610661578163081812fc14610645578163095ea7b31461061c57816318160ddd146105fa57816323b872dd146105ba5781632eb4a7ab146105bf57816342842e0e146105ba5781634ee5e6901461058b57816353acb5d8146102215781635bdeb6be146105435781636352211e146103d257816370a08231146104ba57816373b2e80e146101e4578163823599941461041b5781638a747d421461027e5781638da5cb5b146103d757816392941809146103d257816395b4c7111461039a57816395d89b41146102b7578163a22cb46514610283578163b27c0d041461027e578163b88d4fde14610226578163c18b065e14610221578163c8297d75146101e4578163c87b56dd1461017e575063e985e9c51461014e57600080fd5b3461017a578060031936011261017a579060209161016a610904565b5061017361091f565b5051908152f35b5080fd5b9050346101e05760203660031901126101e057358083526003602052818320546101dc936101c99284926101bc906001600160a01b03161515610d68565b815260056020522061081e565b90519182916020835260208301906108c4565b0390f35b8280fd5b9050346101e05760203660031901126101e05760209260ff918391906001600160a01b03610210610904565b168252855220541690519015158152f35b6109a7565b82843461027b57608036600319011261027b57610241610904565b5061024a61091f565b506064359067ffffffffffffffff821161027b575061026c9036908401610a40565b505051630d18115360e11b8152fd5b80fd5b610a6e565b82843461027b578160031936011261027b5761029d610904565b506024358015150361027b575051630d6a786d60e31b8152fd5b50503461017a578160031936011261017a578051908260018054916102db83610774565b808652928281169081156103725750600114610316575b505050610304826101dc9403836107fc565b519182916020835260208301906108c4565b94508085527fb10e2d527612073b26eecdfd717e6a320cf44b4afac2b0732d9fcbe2b7fa0cf65b82861061035a575050506103048260206101dc95820101946102f2565b8054602087870181019190915290950194810161033d565b6101dc97508693506020925061030494915060ff191682840152151560051b820101946102f2565b50503461017a57602036600319011261017a5760209181906001600160a01b036103c2610904565b1681526006845220549051908152f35b610a01565b50503461017a578160031936011261017a57517f00000000000000000000000000000000000000000000000000000000000000006001600160a01b03168152602090f35b8391503461017a57602036600319011261017a576001600160a01b0361043f610904565b16908183528060205260ff8484205416156104695760208480858581526006845220549051908152f35b608490602085519162461bcd60e51b8352820152602560248201527f4e6f20636572746966696361746520666f756e6420666f722074686973206164604482015264647265737360d81b6064820152fd5b82843461027b57602036600319011261027b576001600160a01b036104dd610904565b16801561050e57815260209283528181205460ff1615610505575060ff6001915b5191168152f35b60ff90916104fe565b825162461bcd60e51b8152602081860152600f60248201526e496e76616c6964206164647265737360881b6044820152606490fd5b82843461027b57602036600319011261027b575060606101dc61056c610567610904565b610f04565b91939094805195869515158652602086015284015260608301906108c4565b50503461017a57602036600319011261017a576020906105b16105ac610904565b610ea8565b90519015158152f35b610935565b50503461017a578160031936011261017a57602090517f00000000000000000000000000000000000000000000000000000000000000008152f35b50503461017a578160031936011261017a5760209060025460801c9051908152f35b82843461027b578160031936011261027b5750610637610904565b5051630d6a786d60e31b8152fd5b50503461017a57602036600319011261017a5751908152602090f35b50503461017a578160031936011261017a5780519082805461068281610774565b8085529160019180831690811561037257506001146106ad57505050610304826101dc9403836107fc565b80809650527f290decd9548b62a8d60345a988386fc84ba6bc95484008f6362f93160ef3e5635b8286106106f1575050506103048260206101dc95820101946102f2565b805460208787018101919091529095019481016106d4565b8491346101e05760203660031901126101e0573563ffffffff60e01b81168091036101e057602092506301ffc9a760e01b8114908115610763575b8115610752575b5015158152f35b635b5e139f60e01b1490508361074b565b6380ac58cd60e01b81149150610744565b90600182811c921680156107a4575b602083101461078e57565b634e487b7160e01b600052602260045260246000fd5b91607f1691610783565b6040810190811067ffffffffffffffff8211176107ca57604052565b634e487b7160e01b600052604160045260246000fd5b6060810190811067ffffffffffffffff8211176107ca57604052565b90601f8019910116810190811067ffffffffffffffff8211176107ca57604052565b906040519182600082549261083284610774565b9081845260019485811690816000146108a1575060011461085e575b505061085c925003836107fc565b565b9093915060005260209081600020936000915b81831061088957505061085c9350820101388061084e565b85548884018501529485019487945091830191610871565b91505061085c94506020925060ff191682840152151560051b820101388061084e565b919082519283825260005b8481106108f0575050826000602080949584010152601f8019910116010190565b6020818301810151848301820152016108cf565b600435906001600160a01b038216820361091a57565b600080fd5b602435906001600160a01b038216820361091a57565b3461091a57606036600319011261091a576001600160a01b036004358181160361091a576024359081160361091a57604051630d18115360e11b8152600490fd5b9181601f8401121561091a5782359167ffffffffffffffff831161091a576020808501948460051b01011161091a57565b3461091a57604036600319011261091a576004356001600160a01b038116810361091a5760243567ffffffffffffffff811161091a576020916109f16109f7923690600401610976565b91610e50565b6040519015158152f35b3461091a57602036600319011261091a576004356000526003602052602060018060a01b0360406000205416610a38811515610d68565b604051908152f35b9181601f8401121561091a5782359167ffffffffffffffff831161091a576020838186019501011161091a57565b3461091a5760408060031936011261091a57600480359167ffffffffffffffff9283811161091a57610aa39036908401610976565b60249491943582811161091a57610abd9036908601610a40565b939060009633885260209387855260ff848a205416610d585790610afd918451868101903360601b825260148152610af4816107ae565b51902091610db4565b15610d1e57338752858352818720936001948560ff19825416179055600254966fffffffffffffffffffffffffffffffff88169786808a019160801c0160801b1760025587895260038552838920336bffffffffffffffffffffffff60a01b8254161790553389526006855287848a205587895260058552838920918711610d0b57509081610b8d879354610774565b601f8111610cb9575b508895601f8411600114610c3b578380917f58a0743fd9c19d45e88c2407fe287721561659b587d3f929f63af8f21ffb8f44988c93610c30575b501b906000198560031b1c19161790555b8183519488338b7fddf252ad1be2c89b69c2b068fc378daa952ba7f163c4a11628f55a4df523b3ef8180a48086528501528284013785818584010152813394601f80199101168101030190a380f35b850135925038610bd0565b818a52858a20601f1985168b5b818110610ca1575097857f58a0743fd9c19d45e88c2407fe287721561659b587d3f929f63af8f21ffb8f449910610c87575b505083811b019055610be1565b840135600019600387901b60f8161c191690553880610c7a565b898601358355988801988a9650918301918801610c48565b90809293508952848920601f880160051c810191868910610d01575b8894939291601f89920160051c01915b828110610cf3575050610b96565b8b8155899550889101610ce5565b9091508190610cd5565b634e487b7160e01b895260419052602488fd5b815162461bcd60e51b8152808701849052601460248201527324b73b30b634b21026b2b935b63290383937b7b360611b6044820152606490fd5b83516307d829b560e41b81528890fd5b15610d6f57565b60405162461bcd60e51b815260206004820152601a60248201527f436572746966696361746520646f6573206e6f742065786973740000000000006044820152606490fd5b90600080925b828410610dea57505050507f00000000000000000000000000000000000000000000000000000000000000001490565b909192936001908560051b83013580821115600014610e2c57604080519160208301938452818301528152610e1e816107e0565b5190205b9401929190610dba565b90604080519160208301938452818301528152610e48816107e0565b519020610e22565b9160018060a01b038316600052600460205260ff60406000205416610ea057610e9d9260405160208101916bffffffffffffffffffffffff199060601b16825260148152610af4816107ae565b90565b505050600090565b6001600160a01b031660008181526004602052604081205490919060ff1615610f005760066020526040822054917ff018080ff49dc666e621b53470fb9fed108396609e624a25e85ccd8b6ff94489339180a4600190565b5090565b6001600160a01b03166000818152600460205260408120549092919060ff1615610f4d5782526006602052610f476040808420549384815260056020522061081e565b60019291565b50604051829190826020820167ffffffffffffffff811183821017610f7457604052815290565b634e487b7160e01b82526041600452602482fdfea2646970667358221220814d3c7d5ca032ca1befbfb36bff067becf01bca0d9187aa23c47c10c720413a64736f6c63430008140033","opcodes":"PUSH1 0xC0 PUSH1 0x40 MSTORE CALLVALUE PUSH3 0x3B9 JUMPI PUSH3 0x1415 DUP1 CODESIZE SUB DUP1 PUSH3 0x1D DUP2 PUSH3 0x3BE JUMP JUMPDEST SWAP3 DUP4 CODECOPY DUP2 ADD SWAP1 PUSH1 0xE0 DUP2 DUP4 SUB SLT PUSH3 0x3B9 JUMPI DUP1 MLOAD PUSH1 0x1 PUSH1 0x1 PUSH1 0x40 SHL SUB SWAP2 SWAP1 DUP3 DUP2 GT PUSH3 0x3B9 JUMPI DUP4 PUSH3 0x50 SWAP2 DUP4 ADD PUSH3 0x3E4 JUMP JUMPDEST SWAP2 PUSH1 0x20 SWAP4 DUP5 DUP4 ADD MLOAD DUP3 DUP2 GT PUSH3 0x3B9 JUMPI DUP2 PUSH3 0x6E SWAP2 DUP6 ADD PUSH3 0x3E4 JUMP JUMPDEST SWAP3 PUSH1 0x40 DUP2 ADD MLOAD DUP4 DUP2 GT PUSH3 0x3B9 JUMPI DUP3 PUSH3 0x8A SWAP2 DUP4 ADD PUSH3 0x3E4 JUMP JUMPDEST POP PUSH1 0x60 DUP2 ADD MLOAD DUP4 DUP2 GT PUSH3 0x3B9 JUMPI DUP3 PUSH3 0xA6 SWAP2 DUP4 ADD PUSH3 0x3E4 JUMP JUMPDEST POP PUSH1 0x80 DUP2 ADD MLOAD DUP4 DUP2 GT PUSH3 0x3B9 JUMPI DUP3 PUSH3 0xC2 SWAP2 DUP4 ADD PUSH3 0x3E4 JUMP JUMPDEST POP PUSH1 0xA0 DUP2 ADD MLOAD DUP4 DUP2 GT PUSH3 0x3B9 JUMPI PUSH1 0xC0 SWAP3 PUSH3 0xE0 SWAP2 DUP4 ADD PUSH3 0x3E4 JUMP JUMPDEST POP ADD MLOAD SWAP2 DUP4 MLOAD SWAP1 DUP3 DUP3 GT PUSH3 0x3A3 JUMPI PUSH1 0x0 DUP1 SLOAD SWAP3 PUSH1 0x1 SWAP7 DUP8 DUP6 DUP2 SHR SWAP6 AND DUP1 ISZERO PUSH3 0x398 JUMPI JUMPDEST DUP10 DUP7 LT EQ PUSH3 0x384 JUMPI DUP2 SWAP1 PUSH1 0x1F SWAP6 DUP7 DUP2 GT PUSH3 0x331 JUMPI JUMPDEST POP DUP10 SWAP1 DUP7 DUP4 GT PUSH1 0x1 EQ PUSH3 0x2CD JUMPI DUP5 SWAP3 PUSH3 0x2C1 JUMPI JUMPDEST POP POP PUSH1 0x0 NOT PUSH1 0x3 DUP4 SWAP1 SHL SHR NOT AND SWAP1 DUP8 SHL OR DUP2 SSTORE JUMPDEST DUP2 MLOAD SWAP4 DUP5 GT PUSH3 0x2AD JUMPI DUP6 SLOAD DUP7 DUP2 DUP2 SHR SWAP2 AND DUP1 ISZERO PUSH3 0x2A2 JUMPI JUMPDEST DUP9 DUP3 LT EQ PUSH3 0x28E JUMPI DUP4 DUP2 GT PUSH3 0x246 JUMPI JUMPDEST POP DUP7 SWAP3 DUP5 GT PUSH1 0x1 EQ PUSH3 0x1DE JUMPI DUP4 SWAP5 SWAP6 SWAP7 POP SWAP3 PUSH3 0x1D2 JUMPI JUMPDEST POP POP PUSH1 0x0 NOT PUSH1 0x3 DUP4 SWAP1 SHL SHR NOT AND SWAP1 DUP4 SHL OR DUP3 SSTORE JUMPDEST PUSH1 0x80 MSTORE CALLER PUSH1 0xA0 MSTORE PUSH1 0x2 SSTORE PUSH1 0x40 MLOAD PUSH2 0xFBE SWAP1 DUP2 PUSH3 0x457 DUP3 CODECOPY PUSH1 0x80 MLOAD DUP2 DUP2 DUP2 PUSH2 0x5D7 ADD MSTORE PUSH2 0xDC7 ADD MSTORE PUSH1 0xA0 MLOAD DUP2 PUSH2 0x3EC ADD MSTORE RETURN JUMPDEST ADD MLOAD SWAP1 POP CODESIZE DUP1 PUSH3 0x18B JUMP JUMPDEST SWAP2 SWAP1 PUSH1 0x1F NOT DUP5 AND SWAP7 DUP7 DUP5 MSTORE DUP1 DUP5 KECCAK256 SWAP4 SWAP1 JUMPDEST DUP9 DUP3 LT PUSH3 0x22E JUMPI POP POP DUP4 DUP7 SWAP8 SWAP7 SWAP6 SWAP7 LT PUSH3 0x214 JUMPI JUMPDEST POP POP POP DUP2 SHL ADD DUP3 SSTORE PUSH3 0x19F JUMP JUMPDEST ADD MLOAD PUSH1 0x0 NOT PUSH1 0xF8 DUP5 PUSH1 0x3 SHL AND SHR NOT AND SWAP1 SSTORE CODESIZE DUP1 DUP1 PUSH3 0x206 JUMP JUMPDEST DUP1 DUP9 DUP6 SWAP7 DUP3 SWAP5 SWAP7 DUP7 ADD MLOAD DUP2 SSTORE ADD SWAP6 ADD SWAP4 ADD SWAP1 PUSH3 0x1EF JUMP JUMPDEST DUP7 DUP3 MSTORE DUP8 DUP3 KECCAK256 DUP5 DUP1 DUP8 ADD PUSH1 0x5 SHR DUP3 ADD SWAP3 DUP11 DUP9 LT PUSH3 0x284 JUMPI JUMPDEST ADD PUSH1 0x5 SHR ADD SWAP1 DUP8 SWAP1 JUMPDEST DUP3 DUP2 LT PUSH3 0x278 JUMPI POP POP PUSH3 0x172 JUMP JUMPDEST DUP4 DUP2 SSTORE ADD DUP8 SWAP1 PUSH3 0x268 JUMP JUMPDEST SWAP3 POP DUP2 SWAP3 PUSH3 0x25F JUMP JUMPDEST PUSH4 0x4E487B71 PUSH1 0xE0 SHL DUP3 MSTORE PUSH1 0x22 PUSH1 0x4 MSTORE PUSH1 0x24 DUP3 REVERT JUMPDEST SWAP1 PUSH1 0x7F AND SWAP1 PUSH3 0x160 JUMP JUMPDEST PUSH4 0x4E487B71 PUSH1 0xE0 SHL DUP2 MSTORE PUSH1 0x41 PUSH1 0x4 MSTORE PUSH1 0x24 SWAP1 REVERT JUMPDEST ADD MLOAD SWAP1 POP CODESIZE DUP1 PUSH3 0x132 JUMP JUMPDEST DUP5 DUP1 MSTORE DUP11 DUP6 KECCAK256 DUP11 SWAP5 POP SWAP2 SWAP1 PUSH1 0x1F NOT DUP5 AND DUP7 JUMPDEST DUP14 DUP3 DUP3 LT PUSH3 0x31A JUMPI POP POP DUP5 GT PUSH3 0x300 JUMPI JUMPDEST POP POP POP DUP2 SHL ADD DUP2 SSTORE PUSH3 0x146 JUMP JUMPDEST ADD MLOAD PUSH1 0x0 NOT PUSH1 0xF8 DUP5 PUSH1 0x3 SHL AND SHR NOT AND SWAP1 SSTORE CODESIZE DUP1 DUP1 PUSH3 0x2F2 JUMP JUMPDEST DUP4 DUP6 ADD MLOAD DUP7 SSTORE DUP14 SWAP8 SWAP1 SWAP6 ADD SWAP5 SWAP4 DUP5 ADD SWAP4 ADD PUSH3 0x2DF JUMP JUMPDEST SWAP1 SWAP2 POP DUP4 DUP1 MSTORE DUP10 DUP5 KECCAK256 DUP7 DUP1 DUP6 ADD PUSH1 0x5 SHR DUP3 ADD SWAP3 DUP13 DUP7 LT PUSH3 0x37A JUMPI JUMPDEST SWAP2 DUP12 SWAP2 DUP7 SWAP6 SWAP5 SWAP4 ADD PUSH1 0x5 SHR ADD SWAP2 JUMPDEST DUP3 DUP2 LT PUSH3 0x36B JUMPI POP POP PUSH3 0x11C JUMP JUMPDEST DUP7 DUP2 SSTORE DUP6 SWAP5 POP DUP12 SWAP2 ADD PUSH3 0x35B JUMP JUMPDEST SWAP3 POP DUP2 SWAP3 PUSH3 0x34D JUMP JUMPDEST PUSH4 0x4E487B71 PUSH1 0xE0 SHL DUP4 MSTORE PUSH1 0x22 PUSH1 0x4 MSTORE PUSH1 0x24 DUP4 REVERT JUMPDEST SWAP5 PUSH1 0x7F AND SWAP5 PUSH3 0x105 JUMP JUMPDEST PUSH4 0x4E487B71 PUSH1 0xE0 SHL PUSH1 0x0 MSTORE PUSH1 0x41 PUSH1 0x4 MSTORE PUSH1 0x24 PUSH1 0x0 REVERT JUMPDEST PUSH1 0x0 DUP1 REVERT JUMPDEST PUSH1 0x40 MLOAD SWAP2 SWAP1 PUSH1 0x1F ADD PUSH1 0x1F NOT AND DUP3 ADD PUSH1 0x1 PUSH1 0x1 PUSH1 0x40 SHL SUB DUP2 GT DUP4 DUP3 LT OR PUSH3 0x3A3 JUMPI PUSH1 0x40 MSTORE JUMP JUMPDEST SWAP2 SWAP1 DUP1 PUSH1 0x1F DUP5 ADD SLT ISZERO PUSH3 0x3B9 JUMPI DUP3 MLOAD PUSH1 0x1 PUSH1 0x1 PUSH1 0x40 SHL SUB DUP2 GT PUSH3 0x3A3 JUMPI PUSH1 0x20 SWAP1 PUSH3 0x41A PUSH1 0x1F DUP3 ADD PUSH1 0x1F NOT AND DUP4 ADD PUSH3 0x3BE JUMP JUMPDEST SWAP3 DUP2 DUP5 MSTORE DUP3 DUP3 DUP8 ADD ADD GT PUSH3 0x3B9 JUMPI PUSH1 0x0 JUMPDEST DUP2 DUP2 LT PUSH3 0x442 JUMPI POP DUP3 PUSH1 0x0 SWAP4 SWAP5 SWAP6 POP ADD ADD MSTORE SWAP1 JUMP JUMPDEST DUP6 DUP2 ADD DUP4 ADD MLOAD DUP5 DUP3 ADD DUP5 ADD MSTORE DUP3 ADD PUSH3 0x42C JUMP INVALID PUSH1 0x80 PUSH1 0x40 DUP2 DUP2 MSTORE PUSH1 0x4 SWAP2 DUP3 CALLDATASIZE LT ISZERO PUSH2 0x16 JUMPI PUSH1 0x0 DUP1 REVERT JUMPDEST PUSH1 0x0 SWAP3 DUP4 CALLDATALOAD PUSH1 0xE0 SHR SWAP2 DUP3 PUSH4 0x1FFC9A7 EQ PUSH2 0x709 JUMPI POP DUP2 PUSH4 0x6FDDE03 EQ PUSH2 0x661 JUMPI DUP2 PUSH4 0x81812FC EQ PUSH2 0x645 JUMPI DUP2 PUSH4 0x95EA7B3 EQ PUSH2 0x61C JUMPI DUP2 PUSH4 0x18160DDD EQ PUSH2 0x5FA JUMPI DUP2 PUSH4 0x23B872DD EQ PUSH2 0x5BA JUMPI DUP2 PUSH4 0x2EB4A7AB EQ PUSH2 0x5BF JUMPI DUP2 PUSH4 0x42842E0E EQ PUSH2 0x5BA JUMPI DUP2 PUSH4 0x4EE5E690 EQ PUSH2 0x58B JUMPI DUP2 PUSH4 0x53ACB5D8 EQ PUSH2 0x221 JUMPI DUP2 PUSH4 0x5BDEB6BE EQ PUSH2 0x543 JUMPI DUP2 PUSH4 0x6352211E EQ PUSH2 0x3D2 JUMPI DUP2 PUSH4 0x70A08231 EQ PUSH2 0x4BA JUMPI DUP2 PUSH4 0x73B2E80E EQ PUSH2 0x1E4 JUMPI DUP2 PUSH4 0x82359994 EQ PUSH2 0x41B JUMPI DUP2 PUSH4 0x8A747D42 EQ PUSH2 0x27E JUMPI DUP2 PUSH4 0x8DA5CB5B EQ PUSH2 0x3D7 JUMPI DUP2 PUSH4 0x92941809 EQ PUSH2 0x3D2 JUMPI DUP2 PUSH4 0x95B4C711 EQ PUSH2 0x39A JUMPI DUP2 PUSH4 0x95D89B41 EQ PUSH2 0x2B7 JUMPI DUP2 PUSH4 0xA22CB465 EQ PUSH2 0x283 JUMPI DUP2 PUSH4 0xB27C0D04 EQ PUSH2 0x27E JUMPI DUP2 PUSH4 0xB88D4FDE EQ PUSH2 0x226 JUMPI DUP2 PUSH4 0xC18B065E EQ PUSH2 0x221 JUMPI DUP2 PUSH4 0xC8297D75 EQ PUSH2 0x1E4 JUMPI DUP2 PUSH4 0xC87B56DD EQ PUSH2 0x17E JUMPI POP PUSH4 0xE985E9C5 EQ PUSH2 0x14E JUMPI PUSH1 0x0 DUP1 REVERT JUMPDEST CALLVALUE PUSH2 0x17A JUMPI DUP1 PUSH1 0x3 NOT CALLDATASIZE ADD SLT PUSH2 0x17A JUMPI SWAP1 PUSH1 0x20 SWAP2 PUSH2 0x16A PUSH2 0x904 JUMP JUMPDEST POP PUSH2 0x173 PUSH2 0x91F JUMP JUMPDEST POP MLOAD SWAP1 DUP2 MSTORE RETURN JUMPDEST POP DUP1 REVERT JUMPDEST SWAP1 POP CALLVALUE PUSH2 0x1E0 JUMPI PUSH1 0x20 CALLDATASIZE PUSH1 0x3 NOT ADD SLT PUSH2 0x1E0 JUMPI CALLDATALOAD DUP1 DUP4 MSTORE PUSH1 0x3 PUSH1 0x20 MSTORE DUP2 DUP4 KECCAK256 SLOAD PUSH2 0x1DC SWAP4 PUSH2 0x1C9 SWAP3 DUP5 SWAP3 PUSH2 0x1BC SWAP1 PUSH1 0x1 PUSH1 0x1 PUSH1 0xA0 SHL SUB AND ISZERO ISZERO PUSH2 0xD68 JUMP JUMPDEST DUP2 MSTORE PUSH1 0x5 PUSH1 0x20 MSTORE KECCAK256 PUSH2 0x81E JUMP JUMPDEST SWAP1 MLOAD SWAP2 DUP3 SWAP2 PUSH1 0x20 DUP4 MSTORE PUSH1 0x20 DUP4 ADD SWAP1 PUSH2 0x8C4 JUMP JUMPDEST SUB SWAP1 RETURN JUMPDEST DUP3 DUP1 REVERT JUMPDEST SWAP1 POP CALLVALUE PUSH2 0x1E0 JUMPI PUSH1 0x20 CALLDATASIZE PUSH1 0x3 NOT ADD SLT PUSH2 0x1E0 JUMPI PUSH1 0x20 SWAP3 PUSH1 0xFF SWAP2 DUP4 SWAP2 SWAP1 PUSH1 0x1 PUSH1 0x1 PUSH1 0xA0 SHL SUB PUSH2 0x210 PUSH2 0x904 JUMP JUMPDEST AND DUP3 MSTORE DUP6 MSTORE KECCAK256 SLOAD AND SWAP1 MLOAD SWAP1 ISZERO ISZERO DUP2 MSTORE RETURN JUMPDEST PUSH2 0x9A7 JUMP JUMPDEST DUP3 DUP5 CALLVALUE PUSH2 0x27B JUMPI PUSH1 0x80 CALLDATASIZE PUSH1 0x3 NOT ADD SLT PUSH2 0x27B JUMPI PUSH2 0x241 PUSH2 0x904 JUMP JUMPDEST POP PUSH2 0x24A PUSH2 0x91F JUMP JUMPDEST POP PUSH1 0x64 CALLDATALOAD SWAP1 PUSH8 0xFFFFFFFFFFFFFFFF DUP3 GT PUSH2 0x27B JUMPI POP PUSH2 0x26C SWAP1 CALLDATASIZE SWAP1 DUP5 ADD PUSH2 0xA40 JUMP JUMPDEST POP POP MLOAD PUSH4 0xD181153 PUSH1 0xE1 SHL DUP2 MSTORE REVERT JUMPDEST DUP1 REVERT JUMPDEST PUSH2 0xA6E JUMP JUMPDEST DUP3 DUP5 CALLVALUE PUSH2 0x27B JUMPI DUP2 PUSH1 0x3 NOT CALLDATASIZE ADD SLT PUSH2 0x27B JUMPI PUSH2 0x29D PUSH2 0x904 JUMP JUMPDEST POP PUSH1 0x24 CALLDATALOAD DUP1 ISZERO ISZERO SUB PUSH2 0x27B JUMPI POP MLOAD PUSH4 0xD6A786D PUSH1 0xE3 SHL DUP2 MSTORE REVERT JUMPDEST POP POP CALLVALUE PUSH2 0x17A JUMPI DUP2 PUSH1 0x3 NOT CALLDATASIZE ADD SLT PUSH2 0x17A JUMPI DUP1 MLOAD SWAP1 DUP3 PUSH1 0x1 DUP1 SLOAD SWAP2 PUSH2 0x2DB DUP4 PUSH2 0x774 JUMP JUMPDEST DUP1 DUP7 MSTORE SWAP3 DUP3 DUP2 AND SWAP1 DUP2 ISZERO PUSH2 0x372 JUMPI POP PUSH1 0x1 EQ PUSH2 0x316 JUMPI JUMPDEST POP POP POP PUSH2 0x304 DUP3 PUSH2 0x1DC SWAP5 SUB DUP4 PUSH2 0x7FC JUMP JUMPDEST MLOAD SWAP2 DUP3 SWAP2 PUSH1 0x20 DUP4 MSTORE PUSH1 0x20 DUP4 ADD SWAP1 PUSH2 0x8C4 JUMP JUMPDEST SWAP5 POP DUP1 DUP6 MSTORE PUSH32 0xB10E2D527612073B26EECDFD717E6A320CF44B4AFAC2B0732D9FCBE2B7FA0CF6 JUMPDEST DUP3 DUP7 LT PUSH2 0x35A JUMPI POP POP POP PUSH2 0x304 DUP3 PUSH1 0x20 PUSH2 0x1DC SWAP6 DUP3 ADD ADD SWAP5 PUSH2 0x2F2 JUMP JUMPDEST DUP1 SLOAD PUSH1 0x20 DUP8 DUP8 ADD DUP2 ADD SWAP2 SWAP1 SWAP2 MSTORE SWAP1 SWAP6 ADD SWAP5 DUP2 ADD PUSH2 0x33D JUMP JUMPDEST PUSH2 0x1DC SWAP8 POP DUP7 SWAP4 POP PUSH1 0x20 SWAP3 POP PUSH2 0x304 SWAP5 SWAP2 POP PUSH1 0xFF NOT AND DUP3 DUP5 ADD MSTORE ISZERO ISZERO PUSH1 0x5 SHL DUP3 ADD ADD SWAP5 PUSH2 0x2F2 JUMP JUMPDEST POP POP CALLVALUE PUSH2 0x17A JUMPI PUSH1 0x20 CALLDATASIZE PUSH1 0x3 NOT ADD SLT PUSH2 0x17A JUMPI PUSH1 0x20 SWAP2 DUP2 SWAP1 PUSH1 0x1 PUSH1 0x1 PUSH1 0xA0 SHL SUB PUSH2 0x3C2 PUSH2 0x904 JUMP JUMPDEST AND DUP2 MSTORE PUSH1 0x6 DUP5 MSTORE KECCAK256 SLOAD SWAP1 MLOAD SWAP1 DUP2 MSTORE RETURN JUMPDEST PUSH2 0xA01 JUMP JUMPDEST POP POP CALLVALUE PUSH2 0x17A JUMPI DUP2 PUSH1 0x3 NOT CALLDATASIZE ADD SLT PUSH2 0x17A JUMPI MLOAD PUSH32 0x0 PUSH1 0x1 PUSH1 0x1 PUSH1 0xA0 SHL SUB AND DUP2 MSTORE PUSH1 0x20 SWAP1 RETURN JUMPDEST DUP4 SWAP2 POP CALLVALUE PUSH2 0x17A JUMPI PUSH1 0x20 CALLDATASIZE PUSH1 0x3 NOT ADD SLT PUSH2 0x17A JUMPI PUSH1 0x1 PUSH1 0x1 PUSH1 0xA0 SHL SUB PUSH2 0x43F PUSH2 0x904 JUMP JUMPDEST AND SWAP1 DUP2 DUP4 MSTORE DUP1 PUSH1 0x20 MSTORE PUSH1 0xFF DUP5 DUP5 KECCAK256 SLOAD AND ISZERO PUSH2 0x469 JUMPI PUSH1 0x20 DUP5 DUP1 DUP6 DUP6 DUP2 MSTORE PUSH1 0x6 DUP5 MSTORE KECCAK256 SLOAD SWAP1 MLOAD SWAP1 DUP2 MSTORE RETURN JUMPDEST PUSH1 0x84 SWAP1 PUSH1 0x20 DUP6 MLOAD SWAP2 PUSH3 0x461BCD PUSH1 0xE5 SHL DUP4 MSTORE DUP3 ADD MSTORE PUSH1 0x25 PUSH1 0x24 DUP3 ADD MSTORE PUSH32 0x4E6F20636572746966696361746520666F756E6420666F722074686973206164 PUSH1 0x44 DUP3 ADD MSTORE PUSH5 0x6472657373 PUSH1 0xD8 SHL PUSH1 0x64 DUP3 ADD MSTORE REVERT JUMPDEST DUP3 DUP5 CALLVALUE PUSH2 0x27B JUMPI PUSH1 0x20 CALLDATASIZE PUSH1 0x3 NOT ADD SLT PUSH2 0x27B JUMPI PUSH1 0x1 PUSH1 0x1 PUSH1 0xA0 SHL SUB PUSH2 0x4DD PUSH2 0x904 JUMP JUMPDEST AND DUP1 ISZERO PUSH2 0x50E JUMPI DUP2 MSTORE PUSH1 0x20 SWAP3 DUP4 MSTORE DUP2 DUP2 KECCAK256 SLOAD PUSH1 0xFF AND ISZERO PUSH2 0x505 JUMPI POP PUSH1 0xFF PUSH1 0x1 SWAP2 JUMPDEST MLOAD SWAP2 AND DUP2 MSTORE RETURN JUMPDEST PUSH1 0xFF SWAP1 SWAP2 PUSH2 0x4FE JUMP JUMPDEST DUP3 MLOAD PUSH3 0x461BCD PUSH1 0xE5 SHL DUP2 MSTORE PUSH1 0x20 DUP2 DUP7 ADD MSTORE PUSH1 0xF PUSH1 0x24 DUP3 ADD MSTORE PUSH15 0x496E76616C69642061646472657373 PUSH1 0x88 SHL PUSH1 0x44 DUP3 ADD MSTORE PUSH1 0x64 SWAP1 REVERT JUMPDEST DUP3 DUP5 CALLVALUE PUSH2 0x27B JUMPI PUSH1 0x20 CALLDATASIZE PUSH1 0x3 NOT ADD SLT PUSH2 0x27B JUMPI POP PUSH1 0x60 PUSH2 0x1DC PUSH2 0x56C PUSH2 0x567 PUSH2 0x904 JUMP JUMPDEST PUSH2 0xF04 JUMP JUMPDEST SWAP2 SWAP4 SWAP1 SWAP5 DUP1 MLOAD SWAP6 DUP7 SWAP6 ISZERO ISZERO DUP7 MSTORE PUSH1 0x20 DUP7 ADD MSTORE DUP5 ADD MSTORE PUSH1 0x60 DUP4 ADD SWAP1 PUSH2 0x8C4 JUMP JUMPDEST POP POP CALLVALUE PUSH2 0x17A JUMPI PUSH1 0x20 CALLDATASIZE PUSH1 0x3 NOT ADD SLT PUSH2 0x17A JUMPI PUSH1 0x20 SWAP1 PUSH2 0x5B1 PUSH2 0x5AC PUSH2 0x904 JUMP JUMPDEST PUSH2 0xEA8 JUMP JUMPDEST SWAP1 MLOAD SWAP1 ISZERO ISZERO DUP2 MSTORE RETURN JUMPDEST PUSH2 0x935 JUMP JUMPDEST POP POP CALLVALUE PUSH2 0x17A JUMPI DUP2 PUSH1 0x3 NOT CALLDATASIZE ADD SLT PUSH2 0x17A JUMPI PUSH1 0x20 SWAP1 MLOAD PUSH32 0x0 DUP2 MSTORE RETURN JUMPDEST POP POP CALLVALUE PUSH2 0x17A JUMPI DUP2 PUSH1 0x3 NOT CALLDATASIZE ADD SLT PUSH2 0x17A JUMPI PUSH1 0x20 SWAP1 PUSH1 0x2 SLOAD PUSH1 0x80 SHR SWAP1 MLOAD SWAP1 DUP2 MSTORE RETURN JUMPDEST DUP3 DUP5 CALLVALUE PUSH2 0x27B JUMPI DUP2 PUSH1 0x3 NOT CALLDATASIZE ADD SLT PUSH2 0x27B JUMPI POP PUSH2 0x637 PUSH2 0x904 JUMP JUMPDEST POP MLOAD PUSH4 0xD6A786D PUSH1 0xE3 SHL DUP2 MSTORE REVERT JUMPDEST POP POP CALLVALUE PUSH2 0x17A JUMPI PUSH1 0x20 CALLDATASIZE PUSH1 0x3 NOT ADD SLT PUSH2 0x17A JUMPI MLOAD SWAP1 DUP2 MSTORE PUSH1 0x20 SWAP1 RETURN JUMPDEST POP POP CALLVALUE PUSH2 0x17A JUMPI DUP2 PUSH1 0x3 NOT CALLDATASIZE ADD SLT PUSH2 0x17A JUMPI DUP1 MLOAD SWAP1 DUP3 DUP1 SLOAD PUSH2 0x682 DUP2 PUSH2 0x774 JUMP JUMPDEST DUP1 DUP6 MSTORE SWAP2 PUSH1 0x1 SWAP2 DUP1 DUP4 AND SWAP1 DUP2 ISZERO PUSH2 0x372 JUMPI POP PUSH1 0x1 EQ PUSH2 0x6AD JUMPI POP POP POP PUSH2 0x304 DUP3 PUSH2 0x1DC SWAP5 SUB DUP4 PUSH2 0x7FC JUMP JUMPDEST DUP1 DUP1 SWAP7 POP MSTORE PUSH32 0x290DECD9548B62A8D60345A988386FC84BA6BC95484008F6362F93160EF3E563 JUMPDEST DUP3 DUP7 LT PUSH2 0x6F1 JUMPI POP POP POP PUSH2 0x304 DUP3 PUSH1 0x20 PUSH2 0x1DC SWAP6 DUP3 ADD ADD SWAP5 PUSH2 0x2F2 JUMP JUMPDEST DUP1 SLOAD PUSH1 0x20 DUP8 DUP8 ADD DUP2 ADD SWAP2 SWAP1 SWAP2 MSTORE SWAP1 SWAP6 ADD SWAP5 DUP2 ADD PUSH2 0x6D4 JUMP JUMPDEST DUP5 SWAP2 CALLVALUE PUSH2 0x1E0 JUMPI PUSH1 0x20 CALLDATASIZE PUSH1 0x3 NOT ADD SLT PUSH2 0x1E0 JUMPI CALLDATALOAD PUSH4 0xFFFFFFFF PUSH1 0xE0 SHL DUP2 AND DUP1 SWAP2 SUB PUSH2 0x1E0 JUMPI PUSH1 0x20 SWAP3 POP PUSH4 0x1FFC9A7 PUSH1 0xE0 SHL DUP2 EQ SWAP1 DUP2 ISZERO PUSH2 0x763 JUMPI JUMPDEST DUP2 ISZERO PUSH2 0x752 JUMPI JUMPDEST POP ISZERO ISZERO DUP2 MSTORE RETURN JUMPDEST PUSH4 0x5B5E139F PUSH1 0xE0 SHL EQ SWAP1 POP DUP4 PUSH2 0x74B JUMP JUMPDEST PUSH4 0x80AC58CD PUSH1 0xE0 SHL DUP2 EQ SWAP2 POP PUSH2 0x744 JUMP JUMPDEST SWAP1 PUSH1 0x1 DUP3 DUP2 SHR SWAP3 AND DUP1 ISZERO PUSH2 0x7A4 JUMPI JUMPDEST PUSH1 0x20 DUP4 LT EQ PUSH2 0x78E JUMPI JUMP JUMPDEST PUSH4 0x4E487B71 PUSH1 0xE0 SHL PUSH1 0x0 MSTORE PUSH1 0x22 PUSH1 0x4 MSTORE PUSH1 0x24 PUSH1 0x0 REVERT JUMPDEST SWAP2 PUSH1 0x7F AND SWAP2 PUSH2 0x783 JUMP JUMPDEST PUSH1 0x40 DUP2 ADD SWAP1 DUP2 LT PUSH8 0xFFFFFFFFFFFFFFFF DUP3 GT OR PUSH2 0x7CA JUMPI PUSH1 0x40 MSTORE JUMP JUMPDEST PUSH4 0x4E487B71 PUSH1 0xE0 SHL PUSH1 0x0 MSTORE PUSH1 0x41 PUSH1 0x4 MSTORE PUSH1 0x24 PUSH1 0x0 REVERT JUMPDEST PUSH1 0x60 DUP2 ADD SWAP1 DUP2 LT PUSH8 0xFFFFFFFFFFFFFFFF DUP3 GT OR PUSH2 0x7CA JUMPI PUSH1 0x40 MSTORE JUMP JUMPDEST SWAP1 PUSH1 0x1F DUP1 NOT SWAP2 ADD AND DUP2 ADD SWAP1 DUP2 LT PUSH8 0xFFFFFFFFFFFFFFFF DUP3 GT OR PUSH2 0x7CA JUMPI PUSH1 0x40 MSTORE JUMP JUMPDEST SWAP1 PUSH1 0x40 MLOAD SWAP2 DUP3 PUSH1 0x0 DUP3 SLOAD SWAP3 PUSH2 0x832 DUP5 PUSH2 0x774 JUMP JUMPDEST SWAP1 DUP2 DUP5 MSTORE PUSH1 0x1 SWAP5 DUP6 DUP2 AND SWAP1 DUP2 PUSH1 0x0 EQ PUSH2 0x8A1 JUMPI POP PUSH1 0x1 EQ PUSH2 0x85E JUMPI JUMPDEST POP POP PUSH2 0x85C SWAP3 POP SUB DUP4 PUSH2 0x7FC JUMP JUMPDEST JUMP JUMPDEST SWAP1 SWAP4 SWAP2 POP PUSH1 0x0 MSTORE PUSH1 0x20 SWAP1 DUP2 PUSH1 0x0 KECCAK256 SWAP4 PUSH1 0x0 SWAP2 JUMPDEST DUP2 DUP4 LT PUSH2 0x889 JUMPI POP POP PUSH2 0x85C SWAP4 POP DUP3 ADD ADD CODESIZE DUP1 PUSH2 0x84E JUMP JUMPDEST DUP6 SLOAD DUP9 DUP5 ADD DUP6 ADD MSTORE SWAP5 DUP6 ADD SWAP5 DUP8 SWAP5 POP SWAP2 DUP4 ADD SWAP2 PUSH2 0x871 JUMP JUMPDEST SWAP2 POP POP PUSH2 0x85C SWAP5 POP PUSH1 0x20 SWAP3 POP PUSH1 0xFF NOT AND DUP3 DUP5 ADD MSTORE ISZERO ISZERO PUSH1 0x5 SHL DUP3 ADD ADD CODESIZE DUP1 PUSH2 0x84E JUMP JUMPDEST SWAP2 SWAP1 DUP3 MLOAD SWAP3 DUP4 DUP3 MSTORE PUSH1 0x0 JUMPDEST DUP5 DUP2 LT PUSH2 0x8F0 JUMPI POP POP DUP3 PUSH1 0x0 PUSH1 0x20 DUP1 SWAP5 SWAP6 DUP5 ADD ADD MSTORE PUSH1 0x1F DUP1 NOT SWAP2 ADD AND ADD ADD SWAP1 JUMP JUMPDEST PUSH1 0x20 DUP2 DUP4 ADD DUP2 ADD MLOAD DUP5 DUP4 ADD DUP3 ADD MSTORE ADD PUSH2 0x8CF JUMP JUMPDEST PUSH1 0x4 CALLDATALOAD SWAP1 PUSH1 0x1 PUSH1 0x1 PUSH1 0xA0 SHL SUB DUP3 AND DUP3 SUB PUSH2 0x91A JUMPI JUMP JUMPDEST PUSH1 0x0 DUP1 REVERT JUMPDEST PUSH1 0x24 CALLDATALOAD SWAP1 PUSH1 0x1 PUSH1 0x1 PUSH1 0xA0 SHL SUB DUP3 AND DUP3 SUB PUSH2 0x91A JUMPI JUMP JUMPDEST CALLVALUE PUSH2 0x91A JUMPI PUSH1 0x60 CALLDATASIZE PUSH1 0x3 NOT ADD SLT PUSH2 0x91A JUMPI PUSH1 0x1 PUSH1 0x1 PUSH1 0xA0 SHL SUB PUSH1 0x4 CALLDATALOAD DUP2 DUP2 AND SUB PUSH2 0x91A JUMPI PUSH1 0x24 CALLDATALOAD SWAP1 DUP2 AND SUB PUSH2 0x91A JUMPI PUSH1 0x40 MLOAD PUSH4 0xD181153 PUSH1 0xE1 SHL DUP2 MSTORE PUSH1 0x4 SWAP1 REVERT JUMPDEST SWAP2 DUP2 PUSH1 0x1F DUP5 ADD SLT ISZERO PUSH2 0x91A JUMPI DUP3 CALLDATALOAD SWAP2 PUSH8 0xFFFFFFFFFFFFFFFF DUP4 GT PUSH2 0x91A JUMPI PUSH1 0x20 DUP1 DUP6 ADD SWAP5 DUP5 PUSH1 0x5 SHL ADD ADD GT PUSH2 0x91A JUMPI JUMP JUMPDEST CALLVALUE PUSH2 0x91A JUMPI PUSH1 0x40 CALLDATASIZE PUSH1 0x3 NOT ADD SLT PUSH2 0x91A JUMPI PUSH1 0x4 CALLDATALOAD PUSH1 0x1 PUSH1 0x1 PUSH1 0xA0 SHL SUB DUP2 AND DUP2 SUB PUSH2 0x91A JUMPI PUSH1 0x24 CALLDATALOAD PUSH8 0xFFFFFFFFFFFFFFFF DUP2 GT PUSH2 0x91A JUMPI PUSH1 0x20 SWAP2 PUSH2 0x9F1 PUSH2 0x9F7 SWAP3 CALLDATASIZE SWAP1 PUSH1 0x4 ADD PUSH2 0x976 JUMP JUMPDEST SWAP2 PUSH2 0xE50 JUMP JUMPDEST PUSH1 0x40 MLOAD SWAP1 ISZERO ISZERO DUP2 MSTORE RETURN JUMPDEST CALLVALUE PUSH2 0x91A JUMPI PUSH1 0x20 CALLDATASIZE PUSH1 0x3 NOT ADD SLT PUSH2 0x91A JUMPI PUSH1 0x4 CALLDATALOAD PUSH1 0x0 MSTORE PUSH1 0x3 PUSH1 0x20 MSTORE PUSH1 0x20 PUSH1 0x1 DUP1 PUSH1 0xA0 SHL SUB PUSH1 0x40 PUSH1 0x0 KECCAK256 SLOAD AND PUSH2 0xA38 DUP2 ISZERO ISZERO PUSH2 0xD68 JUMP JUMPDEST PUSH1 0x40 MLOAD SWAP1 DUP2 MSTORE RETURN JUMPDEST SWAP2 DUP2 PUSH1 0x1F DUP5 ADD SLT ISZERO PUSH2 0x91A JUMPI DUP3 CALLDATALOAD SWAP2 PUSH8 0xFFFFFFFFFFFFFFFF DUP4 GT PUSH2 0x91A JUMPI PUSH1 0x20 DUP4 DUP2 DUP7 ADD SWAP6 ADD ADD GT PUSH2 0x91A JUMPI JUMP JUMPDEST CALLVALUE PUSH2 0x91A JUMPI PUSH1 0x40 DUP1 PUSH1 0x3 NOT CALLDATASIZE ADD SLT PUSH2 0x91A JUMPI PUSH1 0x4 DUP1 CALLDATALOAD SWAP2 PUSH8 0xFFFFFFFFFFFFFFFF SWAP3 DUP4 DUP2 GT PUSH2 0x91A JUMPI PUSH2 0xAA3 SWAP1 CALLDATASIZE SWAP1 DUP5 ADD PUSH2 0x976 JUMP JUMPDEST PUSH1 0x24 SWAP5 SWAP2 SWAP5 CALLDATALOAD DUP3 DUP2 GT PUSH2 0x91A JUMPI PUSH2 0xABD SWAP1 CALLDATASIZE SWAP1 DUP7 ADD PUSH2 0xA40 JUMP JUMPDEST SWAP4 SWAP1 PUSH1 0x0 SWAP7 CALLER DUP9 MSTORE PUSH1 0x20 SWAP4 DUP8 DUP6 MSTORE PUSH1 0xFF DUP5 DUP11 KECCAK256 SLOAD AND PUSH2 0xD58 JUMPI SWAP1 PUSH2 0xAFD SWAP2 DUP5 MLOAD DUP7 DUP2 ADD SWAP1 CALLER PUSH1 0x60 SHL DUP3 MSTORE PUSH1 0x14 DUP2 MSTORE PUSH2 0xAF4 DUP2 PUSH2 0x7AE JUMP JUMPDEST MLOAD SWAP1 KECCAK256 SWAP2 PUSH2 0xDB4 JUMP JUMPDEST ISZERO PUSH2 0xD1E JUMPI CALLER DUP8 MSTORE DUP6 DUP4 MSTORE DUP2 DUP8 KECCAK256 SWAP4 PUSH1 0x1 SWAP5 DUP6 PUSH1 0xFF NOT DUP3 SLOAD AND OR SWAP1 SSTORE PUSH1 0x2 SLOAD SWAP7 PUSH16 0xFFFFFFFFFFFFFFFFFFFFFFFFFFFFFFFF DUP9 AND SWAP8 DUP7 DUP1 DUP11 ADD SWAP2 PUSH1 0x80 SHR ADD PUSH1 0x80 SHL OR PUSH1 0x2 SSTORE DUP8 DUP10 MSTORE PUSH1 0x3 DUP6 MSTORE DUP4 DUP10 KECCAK256 CALLER PUSH12 0xFFFFFFFFFFFFFFFFFFFFFFFF PUSH1 0xA0 SHL DUP3 SLOAD AND OR SWAP1 SSTORE CALLER DUP10 MSTORE PUSH1 0x6 DUP6 MSTORE DUP8 DUP5 DUP11 KECCAK256 SSTORE DUP8 DUP10 MSTORE PUSH1 0x5 DUP6 MSTORE DUP4 DUP10 KECCAK256 SWAP2 DUP8 GT PUSH2 0xD0B JUMPI POP SWAP1 DUP2 PUSH2 0xB8D DUP8 SWAP4 SLOAD PUSH2 0x774 JUMP JUMPDEST PUSH1 0x1F DUP2 GT PUSH2 0xCB9 JUMPI JUMPDEST POP DUP9 SWAP6 PUSH1 0x1F DUP5 GT PUSH1 0x1 EQ PUSH2 0xC3B JUMPI DUP4 DUP1 SWAP2 PUSH32 0x58A0743FD9C19D45E88C2407FE287721561659B587D3F929F63AF8F21FFB8F44 SWAP9 DUP13 SWAP4 PUSH2 0xC30 JUMPI JUMPDEST POP SHL SWAP1 PUSH1 0x0 NOT DUP6 PUSH1 0x3 SHL SHR NOT AND OR SWAP1 SSTORE JUMPDEST DUP2 DUP4 MLOAD SWAP5 DUP9 CALLER DUP12 PUSH32 0xDDF252AD1BE2C89B69C2B068FC378DAA952BA7F163C4A11628F55A4DF523B3EF DUP2 DUP1 LOG4 DUP1 DUP7 MSTORE DUP6 ADD MSTORE DUP3 DUP5 ADD CALLDATACOPY DUP6 DUP2 DUP6 DUP5 ADD ADD MSTORE DUP2 CALLER SWAP5 PUSH1 0x1F DUP1 NOT SWAP2 ADD AND DUP2 ADD SUB ADD SWAP1 LOG3 DUP1 RETURN JUMPDEST DUP6 ADD CALLDATALOAD SWAP3 POP CODESIZE PUSH2 0xBD0 JUMP JUMPDEST DUP2 DUP11 MSTORE DUP6 DUP11 KECCAK256 PUSH1 0x1F NOT DUP6 AND DUP12 JUMPDEST DUP2 DUP2 LT PUSH2 0xCA1 JUMPI POP SWAP8 DUP6 PUSH32 0x58A0743FD9C19D45E88C2407FE287721561659B587D3F929F63AF8F21FFB8F44 SWAP10 LT PUSH2 0xC87 JUMPI JUMPDEST POP POP DUP4 DUP2 SHL ADD SWAP1 SSTORE PUSH2 0xBE1 JUMP JUMPDEST DUP5 ADD CALLDATALOAD PUSH1 0x0 NOT PUSH1 0x3 DUP8 SWAP1 SHL PUSH1 0xF8 AND SHR NOT AND SWAP1 SSTORE CODESIZE DUP1 PUSH2 0xC7A JUMP JUMPDEST DUP10 DUP7 ADD CALLDATALOAD DUP4 SSTORE SWAP9 DUP9 ADD SWAP9 DUP11 SWAP7 POP SWAP2 DUP4 ADD SWAP2 DUP9 ADD PUSH2 0xC48 JUMP JUMPDEST SWAP1 DUP1 SWAP3 SWAP4 POP DUP10 MSTORE DUP5 DUP10 KECCAK256 PUSH1 0x1F DUP9 ADD PUSH1 0x5 SHR DUP2 ADD SWAP2 DUP7 DUP10 LT PUSH2 0xD01 JUMPI JUMPDEST DUP9 SWAP5 SWAP4 SWAP3 SWAP2 PUSH1 0x1F DUP10 SWAP3 ADD PUSH1 0x5 SHR ADD SWAP2 JUMPDEST DUP3 DUP2 LT PUSH2 0xCF3 JUMPI POP POP PUSH2 0xB96 JUMP JUMPDEST DUP12 DUP2 SSTORE DUP10 SWAP6 POP DUP9 SWAP2 ADD PUSH2 0xCE5 JUMP JUMPDEST SWAP1 SWAP2 POP DUP2 SWAP1 PUSH2 0xCD5 JUMP JUMPDEST PUSH4 0x4E487B71 PUSH1 0xE0 SHL DUP10 MSTORE PUSH1 0x41 SWAP1 MSTORE PUSH1 0x24 DUP9 REVERT JUMPDEST DUP2 MLOAD PUSH3 0x461BCD PUSH1 0xE5 SHL DUP2 MSTORE DUP1 DUP8 ADD DUP5 SWAP1 MSTORE PUSH1 0x14 PUSH1 0x24 DUP3 ADD MSTORE PUSH20 0x24B73B30B634B21026B2B935B63290383937B7B3 PUSH1 0x61 SHL PUSH1 0x44 DUP3 ADD MSTORE PUSH1 0x64 SWAP1 REVERT JUMPDEST DUP4 MLOAD PUSH4 0x7D829B5 PUSH1 0xE4 SHL DUP2 MSTORE DUP9 SWAP1 REVERT JUMPDEST ISZERO PUSH2 0xD6F JUMPI JUMP JUMPDEST PUSH1 0x40 MLOAD PUSH3 0x461BCD PUSH1 0xE5 SHL DUP2 MSTORE PUSH1 0x20 PUSH1 0x4 DUP3 ADD MSTORE PUSH1 0x1A PUSH1 0x24 DUP3 ADD MSTORE PUSH32 0x436572746966696361746520646F6573206E6F74206578697374000000000000 PUSH1 0x44 DUP3 ADD MSTORE PUSH1 0x64 SWAP1 REVERT JUMPDEST SWAP1 PUSH1 0x0 DUP1 SWAP3 JUMPDEST DUP3 DUP5 LT PUSH2 0xDEA JUMPI POP POP POP POP PUSH32 0x0 EQ SWAP1 JUMP JUMPDEST SWAP1 SWAP2 SWAP3 SWAP4 PUSH1 0x1 SWAP1 DUP6 PUSH1 0x5 SHL DUP4 ADD CALLDATALOAD DUP1 DUP3 GT ISZERO PUSH1 0x0 EQ PUSH2 0xE2C JUMPI PUSH1 0x40 DUP1 MLOAD SWAP2 PUSH1 0x20 DUP4 ADD SWAP4 DUP5 MSTORE DUP2 DUP4 ADD MSTORE DUP2 MSTORE PUSH2 0xE1E DUP2 PUSH2 0x7E0 JUMP JUMPDEST MLOAD SWAP1 KECCAK256 JUMPDEST SWAP5 ADD SWAP3 SWAP2 SWAP1 PUSH2 0xDBA JUMP JUMPDEST SWAP1 PUSH1 0x40 DUP1 MLOAD SWAP2 PUSH1 0x20 DUP4 ADD SWAP4 DUP5 MSTORE DUP2 DUP4 ADD MSTORE DUP2 MSTORE PUSH2 0xE48 DUP2 PUSH2 0x7E0 JUMP JUMPDEST MLOAD SWAP1 KECCAK256 PUSH2 0xE22 JUMP JUMPDEST SWAP2 PUSH1 0x1 DUP1 PUSH1 0xA0 SHL SUB DUP4 AND PUSH1 0x0 MSTORE PUSH1 0x4 PUSH1 0x20 MSTORE PUSH1 0xFF PUSH1 0x40 PUSH1 0x0 KECCAK256 SLOAD AND PUSH2 0xEA0 JUMPI PUSH2 0xE9D SWAP3 PUSH1 0x40 MLOAD PUSH1 0x20 DUP2 ADD SWAP2 PUSH12 0xFFFFFFFFFFFFFFFFFFFFFFFF NOT SWAP1 PUSH1 0x60 SHL AND DUP3 MSTORE PUSH1 0x14 DUP2 MSTORE PUSH2 0xAF4 DUP2 PUSH2 0x7AE JUMP JUMPDEST SWAP1 JUMP JUMPDEST POP POP POP PUSH1 0x0 SWAP1 JUMP JUMPDEST PUSH1 0x1 PUSH1 0x1 PUSH1 0xA0 SHL SUB AND PUSH1 0x0 DUP2 DUP2 MSTORE PUSH1 0x4 PUSH1 0x20 MSTORE PUSH1 0x40 DUP2 KECCAK256 SLOAD SWAP1 SWAP2 SWAP1 PUSH1 0xFF AND ISZERO PUSH2 0xF00 JUMPI PUSH1 0x6 PUSH1 0x20 MSTORE PUSH1 0x40 DUP3 KECCAK256 SLOAD SWAP2 PUSH32 0xF018080FF49DC666E621B53470FB9FED108396609E624A25E85CCD8B6FF94489 CALLER SWAP2 DUP1 LOG4 PUSH1 0x1 SWAP1 JUMP JUMPDEST POP SWAP1 JUMP JUMPDEST PUSH1 0x1 PUSH1 0x1 PUSH1 0xA0 SHL SUB AND PUSH1 0x0 DUP2 DUP2 MSTORE PUSH1 0x4 PUSH1 0x20 MSTORE PUSH1 0x40 DUP2 KECCAK256 SLOAD SWAP1 SWAP3 SWAP2 SWAP1 PUSH1 0xFF AND ISZERO PUSH2 0xF4D JUMPI DUP3 MSTORE PUSH1 0x6 PUSH1 0x20 MSTORE PUSH2 0xF47 PUSH1 0x40 DUP1 DUP5 KECCAK256 SLOAD SWAP4 DUP5 DUP2 MSTORE PUSH1 0x5 PUSH1 0x20 MSTORE KECCAK256 PUSH2 0x81E JUMP JUMPDEST PUSH1 0x1 SWAP3 SWAP2 JUMP JUMPDEST POP PUSH1 0x40 MLOAD DUP3 SWAP2 SWAP1 DUP3 PUSH1 0x20 DUP3 ADD PUSH8 0xFFFFFFFFFFFFFFFF DUP2 GT DUP4 DUP3 LT OR PUSH2 0xF74 JUMPI PUSH1 0x40 MSTORE DUP2 MSTORE SWAP1 JUMP JUMPDEST PUSH4 0x4E487B71 PUSH1 0xE0 SHL DUP3 MSTORE PUSH1 0x41 PUSH1 0x4 MSTORE PUSH1 0x24 DUP3 REVERT INVALID LOG2 PUSH5 0x6970667358 0x22 SLT KECCAK256 DUP2 0x4D EXTCODECOPY PUSH30 0x5CA032CA1BEFBFB36BFF067BECF01BCA0D9187AA23C47C10C720413A6473 PUSH16 0x6C634300081400330000000000000000 "},"methodIdentifiers":{"approve(address,uint256)":"095ea7b3","balanceOf(address)":"70a08231","claimCertificate(bytes32[],string)":"8a747d42","claimSoulboundCertificate(bytes32[],string)":"b27c0d04","getApproved(uint256)":"081812fc","getSoulboundCertificateDetails(address)":"5bdeb6be","getSoulboundTokenId(address)":"82359994","hasClaimed(address)":"73b2e80e","hasSoulboundCertificate(address)":"c8297d75","isApprovedForAll(address,address)":"e985e9c5","isEligible(address,bytes32[])":"c18b065e","isEligibleForSoulboundCertificate(address,bytes32[])":"53acb5d8","merkleRoot()":"2eb4a7ab","name()":"06fdde03","owner()":"8da5cb5b","ownerOf(uint256)":"6352211e","safeTransferFrom(address,address,uint256)":"42842e0e","safeTransferFrom(address,address,uint256,bytes)":"b88d4fde","setApprovalForAll(address,bool)":"a22cb465","soulboundOwnerOf(uint256)":"92941809","soulboundTokenId(address)":"95b4c711","supportsInterface(bytes4)":"01ffc9a7","symbol()":"95d89b41","tokenURI(uint256)":"c87b56dd","totalSupply()":"18160ddd","transferFrom(address,address,uint256)":"23b872dd","verifySoulboundCertificate(address)":"4ee5e690"}}}}}