{
  "_format": "hh-sol-artifact-1",
  "contractName": "ZKVerifier",
  "sourceName": "contracts/ZKVerifier.sol",
  "abi": [
    {
      "inputs": [],
      "stateMutability": "nonpayable",
      "type": "constructor"
    },
    {
      "inputs": [
        {
          "internalType": "address",
          "name": "owner",
          "type": "address"
        }
      ],
      "name": "OwnableInvalidOwner",
      "type": "error"
    },
    {
      "inputs": [
        {
          "internalType": "address",
          "name": "account",
          "type": "address"
        }
      ],
      "name": "OwnableUnauthorizedAccount",
      "type": "error"
    },
    {
      "anonymous": false,
      "inputs": [
        {
          "indexed": true,
          "internalType": "uint256",
          "name": "circuitId",
          "type": "uint256"
        },
        {
          "indexed": false,
          "internalType": "string",
          "name": "name",
          "type": "string"
        },
        {
          "indexed": false,
          "internalType": "address",
          "name": "verifierContract",
          "type": "address"
        }
      ],
      "name": "CircuitRegistered",
      "type": "event"
    },
    {
      "anonymous": false,
      "inputs": [
        {
          "indexed": true,
          "internalType": "address",
          "name": "previousOwner",
          "type": "address"
        },
        {
          "indexed": true,
          "internalType": "address",
          "name": "newOwner",
          "type": "address"
        }
      ],
      "name": "OwnershipTransferred",
      "type": "event"
    },
    {
      "anonymous": false,
      "inputs": [
        {
          "indexed": true,
          "internalType": "uint256",
          "name": "proofId",
          "type": "uint256"
        },
        {
          "indexed": true,
          "internalType": "address",
          "name": "owner",
          "type": "address"
        },
        {
          "indexed": true,
          "internalType": "uint256",
          "name": "circuitId",
          "type": "uint256"
        }
      ],
      "name": "ProofCreated",
      "type": "event"
    },
    {
      "anonymous": false,
      "inputs": [
        {
          "indexed": true,
          "internalType": "uint256",
          "name": "proofId",
          "type": "uint256"
        },
        {
          "indexed": true,
          "internalType": "address",
          "name": "revoker",
          "type": "address"
        }
      ],
      "name": "ProofRevoked",
      "type": "event"
    },
    {
      "inputs": [
        {
          "internalType": "address",
          "name": "admin",
          "type": "address"
        }
      ],
      "name": "addAdmin",
      "outputs": [],
      "stateMutability": "nonpayable",
      "type": "function"
    },
    {
      "inputs": [
        {
          "internalType": "uint256",
          "name": "circuitId",
          "type": "uint256"
        },
        {
          "internalType": "bytes",
          "name": "proofData",
          "type": "bytes"
        },
        {
          "internalType": "bytes",
          "name": "publicInputs",
          "type": "bytes"
        },
        {
          "internalType": "uint256",
          "name": "validityPeriod",
          "type": "uint256"
        }
      ],
      "name": "createProof",
      "outputs": [
        {
          "internalType": "uint256",
          "name": "",
          "type": "uint256"
        }
      ],
      "stateMutability": "nonpayable",
      "type": "function"
    },
    {
      "inputs": [
        {
          "internalType": "uint256",
          "name": "circuitId",
          "type": "uint256"
        }
      ],
      "name": "deactivateCircuit",
      "outputs": [],
      "stateMutability": "nonpayable",
      "type": "function"
    },
    {
      "inputs": [
        {
          "internalType": "uint256",
          "name": "circuitId",
          "type": "uint256"
        }
      ],
      "name": "getCircuitData",
      "outputs": [
        {
          "components": [
            {
              "internalType": "uint256",
              "name": "id",
              "type": "uint256"
            },
            {
              "internalType": "string",
              "name": "name",
              "type": "string"
            },
            {
              "internalType": "string",
              "name": "description",
              "type": "string"
            },
            {
              "internalType": "address",
              "name": "verifierContract",
              "type": "address"
            },
            {
              "internalType": "bool",
              "name": "isActive",
              "type": "bool"
            }
          ],
          "internalType": "struct IZKVerifier.VerifierCircuit",
          "name": "",
          "type": "tuple"
        }
      ],
      "stateMutability": "view",
      "type": "function"
    },
    {
      "inputs": [
        {
          "internalType": "uint256",
          "name": "proofId",
          "type": "uint256"
        }
      ],
      "name": "getProof",
      "outputs": [
        {
          "components": [
            {
              "internalType": "uint256",
              "name": "id",
              "type": "uint256"
            },
            {
              "internalType": "address",
              "name": "owner",
              "type": "address"
            },
            {
              "internalType": "uint256",
              "name": "circuitId",
              "type": "uint256"
            },
            {
              "internalType": "bytes32",
              "name": "proofHash",
              "type": "bytes32"
            },
            {
              "internalType": "uint256",
              "name": "createdAt",
              "type": "uint256"
            },
            {
              "internalType": "uint256",
              "name": "expiresAt",
              "type": "uint256"
            },
            {
              "internalType": "bool",
              "name": "isRevoked",
              "type": "bool"
            }
          ],
          "internalType": "struct IZKVerifier.ProofData",
          "name": "",
          "type": "tuple"
        }
      ],
      "stateMutability": "view",
      "type": "function"
    },
    {
      "inputs": [
        {
          "internalType": "address",
          "name": "user",
          "type": "address"
        }
      ],
      "name": "getProofCount",
      "outputs": [
        {
          "internalType": "uint256",
          "name": "",
          "type": "uint256"
        }
      ],
      "stateMutability": "view",
      "type": "function"
    },
    {
      "inputs": [
        {
          "internalType": "uint256",
          "name": "proofId",
          "type": "uint256"
        }
      ],
      "name": "getProofData",
      "outputs": [
        {
          "components": [
            {
              "internalType": "uint256",
              "name": "id",
              "type": "uint256"
            },
            {
              "internalType": "address",
              "name": "owner",
              "type": "address"
            },
            {
              "internalType": "uint256",
              "name": "circuitId",
              "type": "uint256"
            },
            {
              "internalType": "bytes32",
              "name": "proofHash",
              "type": "bytes32"
            },
            {
              "internalType": "uint256",
              "name": "createdAt",
              "type": "uint256"
            },
            {
              "internalType": "uint256",
              "name": "expiresAt",
              "type": "uint256"
            },
            {
              "internalType": "bool",
              "name": "isRevoked",
              "type": "bool"
            }
          ],
          "internalType": "struct IZKVerifier.ProofData",
          "name": "",
          "type": "tuple"
        }
      ],
      "stateMutability": "view",
      "type": "function"
    },
    {
      "inputs": [
        {
          "internalType": "address",
          "name": "owner",
          "type": "address"
        }
      ],
      "name": "getProofsByOwner",
      "outputs": [
        {
          "internalType": "uint256[]",
          "name": "",
          "type": "uint256[]"
        }
      ],
      "stateMutability": "view",
      "type": "function"
    },
    {
      "inputs": [],
      "name": "owner",
      "outputs": [
        {
          "internalType": "address",
          "name": "",
          "type": "address"
        }
      ],
      "stateMutability": "view",
      "type": "function"
    },
    {
      "inputs": [
        {
          "internalType": "uint256",
          "name": "circuitId",
          "type": "uint256"
        }
      ],
      "name": "reactivateCircuit",
      "outputs": [],
      "stateMutability": "nonpayable",
      "type": "function"
    },
    {
      "inputs": [
        {
          "internalType": "string",
          "name": "name",
          "type": "string"
        },
        {
          "internalType": "string",
          "name": "description",
          "type": "string"
        },
        {
          "internalType": "address",
          "name": "verifierContract",
          "type": "address"
        }
      ],
      "name": "registerCircuit",
      "outputs": [
        {
          "internalType": "uint256",
          "name": "",
          "type": "uint256"
        }
      ],
      "stateMutability": "nonpayable",
      "type": "function"
    },
    {
      "inputs": [
        {
          "internalType": "address",
          "name": "admin",
          "type": "address"
        }
      ],
      "name": "removeAdmin",
      "outputs": [],
      "stateMutability": "nonpayable",
      "type": "function"
    },
    {
      "inputs": [],
      "name": "renounceOwnership",
      "outputs": [],
      "stateMutability": "nonpayable",
      "type": "function"
    },
    {
      "inputs": [
        {
          "internalType": "uint256",
          "name": "proofId",
          "type": "uint256"
        }
      ],
      "name": "revokeProof",
      "outputs": [],
      "stateMutability": "nonpayable",
      "type": "function"
    },
    {
      "inputs": [
        {
          "internalType": "address",
          "name": "newOwner",
          "type": "address"
        }
      ],
      "name": "transferOwnership",
      "outputs": [],
      "stateMutability": "nonpayable",
      "type": "function"
    },
    {
      "inputs": [
        {
          "internalType": "address",
          "name": "user",
          "type": "address"
        },
        {
          "internalType": "uint256",
          "name": "index",
          "type": "uint256"
        }
      ],
      "name": "userProofByIndex",
      "outputs": [
        {
          "internalType": "uint256",
          "name": "",
          "type": "uint256"
        }
      ],
      "stateMutability": "view",
      "type": "function"
    },
    {
      "inputs": [
        {
          "internalType": "uint256",
          "name": "proofId",
          "type": "uint256"
        },
        {
          "internalType": "address",
          "name": "verifierAddress",
          "type": "address"
        }
      ],
      "name": "verifyProof",
      "outputs": [
        {
          "internalType": "bool",
          "name": "",
          "type": "bool"
        }
      ],
      "stateMutability": "view",
      "type": "function"
    },
    {
      "inputs": [
        {
          "internalType": "uint256",
          "name": "proofId",
          "type": "uint256"
        }
      ],
      "name": "verifyProof",
      "outputs": [
        {
          "internalType": "bool",
          "name": "",
          "type": "bool"
        }
      ],
      "stateMutability": "view",
      "type": "function"
    }
  ],
  "bytecode": "0x608060405234801561001057600080fd5b50338061003757604051631e4fbdf760e01b81526000600482015260240160405180910390fd5b61004081610060565b50336000908152600660205260409020805460ff191660011790556100b0565b600080546001600160a01b038381166001600160a01b0319831681178455604051919092169283917f8be0079c531659141344cd1fd0a4f28419497f9722a3daafe3b4186f6b6457e09190a35050565b61158d806100bf6000396000f3fe608060405234801561001057600080fd5b50600436106101165760003560e01c80638b6958ff116100a25780639d68b434116100715780639d68b4341461035b578063cbf63e991461037b578063da6504541461011b578063e8168b5c1461038e578063f2fde38b146103a157600080fd5b80638b6958ff146103075780638da5cb5b1461031a578063962926a8146103355780639c73dc541461034857600080fd5b80635c81587e116100e95780635c81587e1461028f5780636b9a4ae3146102b057806370480275146102d9578063715018a6146102ec578063733b0382146102f457600080fd5b806311149ada1461011b5780631785f53c146102375780633997a7e01461024c5780634fbe55f61461026c575b600080fd5b6101d2610129366004610fc8565b6040805160e081018252600080825260208201819052918101829052606081018290526080810182905260a0810182905260c081019190915250600090815260046020818152604092839020835160e0810185528154815260018201546001600160a01b03169281019290925260028101549382019390935260038301546060820152908201546080820152600582015460a082015260069091015460ff16151560c082015290565b60405161022e9190815181526020808301516001600160a01b03169082015260408083015190820152606080830151908201526080808301519082015260a0808301519082015260c09182015115159181019190915260e00190565b60405180910390f35b61024a610245366004610ffd565b6103b4565b005b61025f61025a366004610fc8565b6103dd565b60405161022e9190611065565b61027f61027a3660046110d3565b610593565b604051901515815260200161022e565b6102a261029d3660046110ff565b610685565b60405190815260200161022e565b6102a26102be366004610ffd565b6001600160a01b031660009081526005602052604090205490565b61024a6102e7366004610ffd565b61072e565b61024a61075a565b6102a2610302366004611172565b61076e565b61027f610315366004610fc8565b6109a0565b6000546040516001600160a01b03909116815260200161022e565b61024a610343366004610fc8565b6109ab565b61024a610356366004610fc8565b610ae6565b61036e610369366004610ffd565b610b61565b60405161022e91906111f4565b61024a610389366004610fc8565b610bcd565b6102a261039c366004611238565b610c4e565b61024a6103af366004610ffd565b610e61565b6103bc610e9f565b6001600160a01b03166000908152600660205260409020805460ff19169055565b61041a6040518060a0016040528060008152602001606081526020016060815260200160006001600160a01b031681526020016000151581525090565b600360008381526020019081526020016000206040518060a001604052908160008201548152602001600182018054610452906112b9565b80601f016020809104026020016040519081016040528092919081815260200182805461047e906112b9565b80156104cb5780601f106104a0576101008083540402835291602001916104cb565b820191906000526020600020905b8154815290600101906020018083116104ae57829003601f168201915b505050505081526020016002820180546104e4906112b9565b80601f0160208091040260200160405190810160405280929190818152602001828054610510906112b9565b801561055d5780601f106105325761010080835404028352916020019161055d565b820191906000526020600020905b81548152906001019060200180831161054057829003601f168201915b5050509183525050600391909101546001600160a01b0381166020830152600160a01b900460ff16151560409091015292915050565b6000828152600460208181526040808420815160e081018352815480825260018301546001600160a01b03169482019490945260028201549281019290925260038101546060830152928301546080820152600583015460a082015260069092015460ff16151560c0830152820361060f57600091505061067f565b8060c001511561062357600091505061067f565b8060a0015142111561063957600091505061067f565b6001600160a01b0383161580159061066a57506001600160a01b03831660009081526006602052604090205460ff16155b1561067957600091505061067f565b60019150505b92915050565b6001600160a01b03821660009081526005602052604081205482106106f15760405162461bcd60e51b815260206004820152601f60248201527f5a4b56657269666965723a20496e646578206f7574206f6620626f756e64730060448201526064015b60405180910390fd5b6001600160a01b038316600090815260056020526040902080548390811061071b5761071b6112f3565b9060005260206000200154905092915050565b610736610e9f565b6001600160a01b03166000908152600660205260409020805460ff19166001179055565b610762610e9f565b61076c6000610ecc565b565b600086815260036020819052604082200154600160a01b900460ff166107e05760405162461bcd60e51b815260206004820152602160248201527f5a4b56657269666965723a2043697263756974206973206e6f742061637469766044820152606560f81b60648201526084016106e8565b600280549060006107f08361131f565b9091555050600254604051600090610812908990899089908990602001611338565b60405160208183030381529060405280519060200120905060008442610838919061135a565b90506040518060e00160405280848152602001336001600160a01b031681526020018b815260200183815260200142815260200182815260200160001515815250600460008581526020019081526020016000206000820151816000015560208201518160010160006101000a8154816001600160a01b0302191690836001600160a01b0316021790555060408201518160020155606082015181600301556080820151816004015560a0820151816005015560c08201518160060160006101000a81548160ff02191690831515021790555090505060056000336001600160a01b03166001600160a01b0316815260200190815260200160002083908060018154018082558091505060019003906000526020600020016000909190919091505589336001600160a01b0316847fa9665a946bb24359948b6138082dd57f3297d1d76e95e4420ddb59bc1c4f3f9160405160405180910390a4509098975050505050505050565b600061067f82610f1c565b60008181526004602052604081208054909103610a0a5760405162461bcd60e51b815260206004820181905260248201527f5a4b56657269666965723a2050726f6f6620646f6573206e6f7420657869737460448201526064016106e8565b60018101546001600160a01b0316331480610a3457503360009081526006602052604090205460ff165b610aa65760405162461bcd60e51b815260206004820152603960248201527f5a4b56657269666965723a2043616c6c6572206973206e6f7420617574686f7260448201527f697a656420746f207265766f6b6520746869732070726f6f660000000000000060648201526084016106e8565b60068101805460ff19166001179055604051339083907f9f269db4ba9dbbfd518b4ee0320bc478722bc61c7200f8a89911c4963e45c01590600090a35050565b3360009081526006602052604090205460ff16610b155760405162461bcd60e51b81526004016106e89061136d565b6000818152600360205260408120549003610b425760405162461bcd60e51b81526004016106e8906113af565b600090815260036020819052604090912001805460ff60a01b19169055565b6001600160a01b038116600090815260056020908152604091829020805483518184028101840190945280845260609392830182828015610bc157602002820191906000526020600020905b815481526020019060010190808311610bad575b50505050509050919050565b3360009081526006602052604090205460ff16610bfc5760405162461bcd60e51b81526004016106e89061136d565b6000818152600360205260408120549003610c295760405162461bcd60e51b81526004016106e8906113af565b600090815260036020819052604090912001805460ff60a01b1916600160a01b179055565b3360009081526006602052604081205460ff16610c7d5760405162461bcd60e51b81526004016106e89061136d565b6001600160a01b038216610ce95760405162461bcd60e51b815260206004820152602d60248201527f5a4b56657269666965723a20496e76616c696420766572696669657220636f6e60448201526c7472616374206164647265737360981b60648201526084016106e8565b60018054906000610cf98361131f565b9190505550600060015490506040518060a0016040528082815260200188888080601f016020809104026020016040519081016040528093929190818152602001838380828437600092019190915250505090825250604080516020601f89018190048102820181019092528781529181019190889088908190840183828082843760009201829052509385525050506001600160a01b03861660208084019190915260016040938401819052858352600382529290912083518155908301519091820190610dc89082611456565b5060408201516002820190610ddd9082611456565b506060820151600390910180546080909301511515600160a01b026001600160a81b03199093166001600160a01b039092169190911791909117905560405181907f36f7eadd002b90e1bdb9d11345529136f8f7a46b5217d5de6e736a8f99776a0e90610e4f908a908a908890611516565b60405180910390a29695505050505050565b610e69610e9f565b6001600160a01b038116610e9357604051631e4fbdf760e01b8152600060048201526024016106e8565b610e9c81610ecc565b50565b6000546001600160a01b0316331461076c5760405163118cdaa760e01b81523360048201526024016106e8565b600080546001600160a01b038381166001600160a01b0319831681178455604051919092169283917f8be0079c531659141344cd1fd0a4f28419497f9722a3daafe3b4186f6b6457e09190a35050565b6000818152600460208181526040808420815160e081018352815480825260018301546001600160a01b03169482019490945260028201549281019290925260038101546060830152928301546080820152600583015460a082015260069092015460ff16151560c08301528203610f975750600092915050565b8060c0015115610faa5750600092915050565b8060a00151421115610fbf5750600092915050565b50600192915050565b600060208284031215610fda57600080fd5b5035919050565b80356001600160a01b0381168114610ff857600080fd5b919050565b60006020828403121561100f57600080fd5b61101882610fe1565b9392505050565b6000815180845260005b8181101561104557602081850181015186830182015201611029565b506000602082860101526020601f19601f83011685010191505092915050565b60208152815160208201526000602083015160a0604084015261108b60c084018261101f565b90506040840151601f198483030160608501526110a8828261101f565b91505060018060a01b0360608501511660808401526080840151151560a08401528091505092915050565b600080604083850312156110e657600080fd5b823591506110f660208401610fe1565b90509250929050565b6000806040838503121561111257600080fd5b61111b83610fe1565b946020939093013593505050565b60008083601f84011261113b57600080fd5b50813567ffffffffffffffff81111561115357600080fd5b60208301915083602082850101111561116b57600080fd5b9250929050565b6000806000806000806080878903121561118b57600080fd5b86359550602087013567ffffffffffffffff808211156111aa57600080fd5b6111b68a838b01611129565b909750955060408901359150808211156111cf57600080fd5b506111dc89828a01611129565b979a9699509497949695606090950135949350505050565b6020808252825182820181905260009190848201906040850190845b8181101561122c57835183529284019291840191600101611210565b50909695505050505050565b60008060008060006060868803121561125057600080fd5b853567ffffffffffffffff8082111561126857600080fd5b61127489838a01611129565b9097509550602088013591508082111561128d57600080fd5b5061129a88828901611129565b90945092506112ad905060408701610fe1565b90509295509295909350565b600181811c908216806112cd57607f821691505b6020821081036112ed57634e487b7160e01b600052602260045260246000fd5b50919050565b634e487b7160e01b600052603260045260246000fd5b634e487b7160e01b600052601160045260246000fd5b60006001820161133157611331611309565b5060010190565b8385823760008482016000815283858237600093019283525090949350505050565b8082018082111561067f5761067f611309565b60208082526022908201527f5a4b56657269666965723a2043616c6c6572206973206e6f7420616e2061646d60408201526134b760f11b606082015260800190565b60208082526022908201527f5a4b56657269666965723a204369726375697420646f6573206e6f74206578696040820152611cdd60f21b606082015260800190565b634e487b7160e01b600052604160045260246000fd5b601f82111561145157600081815260208120601f850160051c8101602086101561142e5750805b601f850160051c820191505b8181101561144d5782815560010161143a565b5050505b505050565b815167ffffffffffffffff811115611470576114706113f1565b6114848161147e84546112b9565b84611407565b602080601f8311600181146114b957600084156114a15750858301515b600019600386901b1c1916600185901b17855561144d565b600085815260208120601f198616915b828110156114e8578886015182559484019460019091019084016114c9565b50858210156115065787850151600019600388901b60f8161c191681555b5050505050600190811b01905550565b6040815282604082015282846060830137600060608483018101919091526001600160a01b03929092166020820152601f909201601f19169091010191905056fea264697066735822122016d0a5928afbd8d91e6dc0645517158904aa8e25112540ef22797e988d10279164736f6c63430008140033",
  "linkReferences": {},
  "deployedLinkReferences": {}
}