{
  "_format": "hh-sol-artifact-1",
  "contractName": "CertificateNFT",
  "sourceName": "contracts/CertificateNFT.sol",
  "abi": [
    {
      "inputs": [
        {
          "internalType": "string",
          "name": "_name",
          "type": "string"
        },
        {
          "internalType": "string",
          "name": "_symbol",
          "type": "string"
        },
        {
          "internalType": "string",
          "name": "",
          "type": "string"
        },
        {
          "internalType": "string",
          "name": "",
          "type": "string"
        },
        {
          "internalType": "string",
          "name": "",
          "type": "string"
        },
        {
          "internalType": "string",
          "name": "",
          "type": "string"
        },
        {
          "internalType": "bytes32",
          "name": "_merkleRoot",
          "type": "bytes32"
        }
      ],
      "stateMutability": "nonpayable",
      "type": "constructor"
    },
    {
      "inputs": [],
      "name": "CertificateAlreadyBound",
      "type": "error"
    },
    {
      "inputs": [],
      "name": "NotSoulboundOwner",
      "type": "error"
    },
    {
      "inputs": [],
      "name": "SoulboundApprovalNotAllowed",
      "type": "error"
    },
    {
      "inputs": [],
      "name": "SoulboundTransferNotAllowed",
      "type": "error"
    },
    {
      "anonymous": false,
      "inputs": [
        {
          "indexed": true,
          "internalType": "address",
          "name": "owner",
          "type": "address"
        },
        {
          "indexed": true,
          "internalType": "address",
          "name": "approved",
          "type": "address"
        },
        {
          "indexed": true,
          "internalType": "uint256",
          "name": "tokenId",
          "type": "uint256"
        }
      ],
      "name": "Approval",
      "type": "event"
    },
    {
      "anonymous": false,
      "inputs": [
        {
          "indexed": true,
          "internalType": "address",
          "name": "owner",
          "type": "address"
        },
        {
          "indexed": true,
          "internalType": "address",
          "name": "operator",
          "type": "address"
        },
        {
          "indexed": false,
          "internalType": "bool",
          "name": "approved",
          "type": "bool"
        }
      ],
      "name": "ApprovalForAll",
      "type": "event"
    },
    {
      "anonymous": false,
      "inputs": [
        {
          "indexed": true,
          "internalType": "address",
          "name": "soul",
          "type": "address"
        },
        {
          "indexed": true,
          "internalType": "uint256",
          "name": "tokenId",
          "type": "uint256"
        },
        {
          "indexed": false,
          "internalType": "string",
          "name": "tokenURI",
          "type": "string"
        }
      ],
      "name": "SoulboundCertificateIssued",
      "type": "event"
    },
    {
      "anonymous": false,
      "inputs": [
        {
          "indexed": true,
          "internalType": "address",
          "name": "verifier",
          "type": "address"
        },
        {
          "indexed": true,
          "internalType": "address",
          "name": "soul",
          "type": "address"
        },
        {
          "indexed": true,
          "internalType": "uint256",
          "name": "tokenId",
          "type": "uint256"
        }
      ],
      "name": "SoulboundVerificationRequested",
      "type": "event"
    },
    {
      "anonymous": false,
      "inputs": [
        {
          "indexed": true,
          "internalType": "address",
          "name": "from",
          "type": "address"
        },
        {
          "indexed": true,
          "internalType": "address",
          "name": "to",
          "type": "address"
        },
        {
          "indexed": true,
          "internalType": "uint256",
          "name": "tokenId",
          "type": "uint256"
        }
      ],
      "name": "Transfer",
      "type": "event"
    },
    {
      "inputs": [
        {
          "internalType": "address",
          "name": "",
          "type": "address"
        },
        {
          "internalType": "uint256",
          "name": "",
          "type": "uint256"
        }
      ],
      "name": "approve",
      "outputs": [],
      "stateMutability": "pure",
      "type": "function"
    },
    {
      "inputs": [
        {
          "internalType": "address",
          "name": "soul",
          "type": "address"
        }
      ],
      "name": "balanceOf",
      "outputs": [
        {
          "internalType": "uint256",
          "name": "",
          "type": "uint256"
        }
      ],
      "stateMutability": "view",
      "type": "function"
    },
    {
      "inputs": [
        {
          "internalType": "bytes32[]",
          "name": "_merkleProof",
          "type": "bytes32[]"
        },
        {
          "internalType": "string",
          "name": "_tokenURI",
          "type": "string"
        }
      ],
      "name": "claimCertificate",
      "outputs": [],
      "stateMutability": "nonpayable",
      "type": "function"
    },
    {
      "inputs": [
        {
          "internalType": "bytes32[]",
          "name": "_merkleProof",
          "type": "bytes32[]"
        },
        {
          "internalType": "string",
          "name": "_tokenURI",
          "type": "string"
        }
      ],
      "name": "claimSoulboundCertificate",
      "outputs": [],
      "stateMutability": "nonpayable",
      "type": "function"
    },
    {
      "inputs": [
        {
          "internalType": "uint256",
          "name": "",
          "type": "uint256"
        }
      ],
      "name": "getApproved",
      "outputs": [
        {
          "internalType": "address",
          "name": "",
          "type": "address"
        }
      ],
      "stateMutability": "pure",
      "type": "function"
    },
    {
      "inputs": [
        {
          "internalType": "address",
          "name": "_soul",
          "type": "address"
        }
      ],
      "name": "getSoulboundCertificateDetails",
      "outputs": [
        {
          "internalType": "bool",
          "name": "exists",
          "type": "bool"
        },
        {
          "internalType": "uint256",
          "name": "tokenId",
          "type": "uint256"
        },
        {
          "internalType": "string",
          "name": "uri",
          "type": "string"
        }
      ],
      "stateMutability": "view",
      "type": "function"
    },
    {
      "inputs": [
        {
          "internalType": "address",
          "name": "soul",
          "type": "address"
        }
      ],
      "name": "getSoulboundTokenId",
      "outputs": [
        {
          "internalType": "uint256",
          "name": "",
          "type": "uint256"
        }
      ],
      "stateMutability": "view",
      "type": "function"
    },
    {
      "inputs": [
        {
          "internalType": "address",
          "name": "",
          "type": "address"
        }
      ],
      "name": "hasClaimed",
      "outputs": [
        {
          "internalType": "bool",
          "name": "",
          "type": "bool"
        }
      ],
      "stateMutability": "view",
      "type": "function"
    },
    {
      "inputs": [
        {
          "internalType": "address",
          "name": "soul",
          "type": "address"
        }
      ],
      "name": "hasSoulboundCertificate",
      "outputs": [
        {
          "internalType": "bool",
          "name": "",
          "type": "bool"
        }
      ],
      "stateMutability": "view",
      "type": "function"
    },
    {
      "inputs": [
        {
          "internalType": "address",
          "name": "",
          "type": "address"
        },
        {
          "internalType": "address",
          "name": "",
          "type": "address"
        }
      ],
      "name": "isApprovedForAll",
      "outputs": [
        {
          "internalType": "bool",
          "name": "",
          "type": "bool"
        }
      ],
      "stateMutability": "pure",
      "type": "function"
    },
    {
      "inputs": [
        {
          "internalType": "address",
          "name": "_address",
          "type": "address"
        },
        {
          "internalType": "bytes32[]",
          "name": "_merkleProof",
          "type": "bytes32[]"
        }
      ],
      "name": "isEligible",
      "outputs": [
        {
          "internalType": "bool",
          "name": "",
          "type": "bool"
        }
      ],
      "stateMutability": "view",
      "type": "function"
    },
    {
      "inputs": [
        {
          "internalType": "address",
          "name": "_soul",
          "type": "address"
        },
        {
          "internalType": "bytes32[]",
          "name": "_merkleProof",
          "type": "bytes32[]"
        }
      ],
      "name": "isEligibleForSoulboundCertificate",
      "outputs": [
        {
          "internalType": "bool",
          "name": "",
          "type": "bool"
        }
      ],
      "stateMutability": "view",
      "type": "function"
    },
    {
      "inputs": [],
      "name": "merkleRoot",
      "outputs": [
        {
          "internalType": "bytes32",
          "name": "",
          "type": "bytes32"
        }
      ],
      "stateMutability": "view",
      "type": "function"
    },
    {
      "inputs": [],
      "name": "name",
      "outputs": [
        {
          "internalType": "string",
          "name": "",
          "type": "string"
        }
      ],
      "stateMutability": "view",
      "type": "function"
    },
    {
      "inputs": [],
      "name": "owner",
      "outputs": [
        {
          "internalType": "address",
          "name": "",
          "type": "address"
        }
      ],
      "stateMutability": "view",
      "type": "function"
    },
    {
      "inputs": [
        {
          "internalType": "uint256",
          "name": "tokenId",
          "type": "uint256"
        }
      ],
      "name": "ownerOf",
      "outputs": [
        {
          "internalType": "address",
          "name": "",
          "type": "address"
        }
      ],
      "stateMutability": "view",
      "type": "function"
    },
    {
      "inputs": [
        {
          "internalType": "address",
          "name": "",
          "type": "address"
        },
        {
          "internalType": "address",
          "name": "",
          "type": "address"
        },
        {
          "internalType": "uint256",
          "name": "",
          "type": "uint256"
        }
      ],
      "name": "safeTransferFrom",
      "outputs": [],
      "stateMutability": "pure",
      "type": "function"
    },
    {
      "inputs": [
        {
          "internalType": "address",
          "name": "",
          "type": "address"
        },
        {
          "internalType": "address",
          "name": "",
          "type": "address"
        },
        {
          "internalType": "uint256",
          "name": "",
          "type": "uint256"
        },
        {
          "internalType": "bytes",
          "name": "",
          "type": "bytes"
        }
      ],
      "name": "safeTransferFrom",
      "outputs": [],
      "stateMutability": "pure",
      "type": "function"
    },
    {
      "inputs": [
        {
          "internalType": "address",
          "name": "",
          "type": "address"
        },
        {
          "internalType": "bool",
          "name": "",
          "type": "bool"
        }
      ],
      "name": "setApprovalForAll",
      "outputs": [],
      "stateMutability": "pure",
      "type": "function"
    },
    {
      "inputs": [
        {
          "internalType": "uint256",
          "name": "tokenId",
          "type": "uint256"
        }
      ],
      "name": "soulboundOwnerOf",
      "outputs": [
        {
          "internalType": "address",
          "name": "",
          "type": "address"
        }
      ],
      "stateMutability": "view",
      "type": "function"
    },
    {
      "inputs": [
        {
          "internalType": "address",
          "name": "",
          "type": "address"
        }
      ],
      "name": "soulboundTokenId",
      "outputs": [
        {
          "internalType": "uint256",
          "name": "",
          "type": "uint256"
        }
      ],
      "stateMutability": "view",
      "type": "function"
    },
    {
      "inputs": [
        {
          "internalType": "bytes4",
          "name": "interfaceId",
          "type": "bytes4"
        }
      ],
      "name": "supportsInterface",
      "outputs": [
        {
          "internalType": "bool",
          "name": "",
          "type": "bool"
        }
      ],
      "stateMutability": "pure",
      "type": "function"
    },
    {
      "inputs": [],
      "name": "symbol",
      "outputs": [
        {
          "internalType": "string",
          "name": "",
          "type": "string"
        }
      ],
      "stateMutability": "view",
      "type": "function"
    },
    {
      "inputs": [
        {
          "internalType": "uint256",
          "name": "tokenId",
          "type": "uint256"
        }
      ],
      "name": "tokenURI",
      "outputs": [
        {
          "internalType": "string",
          "name": "",
          "type": "string"
        }
      ],
      "stateMutability": "view",
      "type": "function"
    },
    {
      "inputs": [],
      "name": "totalSupply",
      "outputs": [
        {
          "internalType": "uint256",
          "name": "",
          "type": "uint256"
        }
      ],
      "stateMutability": "view",
      "type": "function"
    },
    {
      "inputs": [
        {
          "internalType": "address",
          "name": "",
          "type": "address"
        },
        {
          "internalType": "address",
          "name": "",
          "type": "address"
        },
        {
          "internalType": "uint256",
          "name": "",
          "type": "uint256"
        }
      ],
      "name": "transferFrom",
      "outputs": [],
      "stateMutability": "pure",
      "type": "function"
    },
    {
      "inputs": [
        {
          "internalType": "address",
          "name": "_soul",
          "type": "address"
        }
      ],
      "name": "verifySoulboundCertificate",
      "outputs": [
        {
          "internalType": "bool",
          "name": "",
          "type": "bool"
        }
      ],
      "stateMutability": "nonpayable",
      "type": "function"
    }
  ],
  "bytecode": "0x60c060405234620003b95762001415803803806200001d81620003be565b92833981019060e081830312620003b95780516001600160401b039190828111620003b9578362000050918301620003e4565b9160209384830151828111620003b957816200006e918501620003e4565b926040810151838111620003b957826200008a918301620003e4565b506060810151838111620003b95782620000a6918301620003e4565b506080810151838111620003b95782620000c2918301620003e4565b5060a0810151838111620003b95760c092620000e0918301620003e4565b50015191835190828211620003a35760008054926001968785811c9516801562000398575b8986101462000384578190601f9586811162000331575b508990868311600114620002cd578492620002c1575b5050600019600383901b1c191690871b1781555b8151938411620002ad5785548681811c91168015620002a2575b888210146200028e5783811162000246575b5086928411600114620001de57839495965092620001d2575b5050600019600383901b1c191690831b1782555b6080523360a052600255604051610fbe90816200045782396080518181816105d70152610dc7015260a051816103ec0152f35b0151905038806200018b565b9190601f1984169686845280842093905b8882106200022e5750508386979695961062000214575b505050811b0182556200019f565b015160001960f88460031b161c1916905538808062000206565b808885968294968601518155019501930190620001ef565b8682528782208480870160051c8201928a881062000284575b0160051c019087905b8281106200027857505062000172565b83815501879062000268565b925081926200025f565b634e487b7160e01b82526022600452602482fd5b90607f169062000160565b634e487b7160e01b81526041600452602490fd5b01519050388062000132565b8480528a85208a94509190601f198416865b8d8282106200031a575050841162000300575b505050811b01815562000146565b015160001960f88460031b161c19169055388080620002f2565b8385015186558d97909501949384019301620002df565b9091508380528984208680850160051c8201928c86106200037a575b918b91869594930160051c01915b8281106200036b5750506200011c565b8681558594508b91016200035b565b925081926200034d565b634e487b7160e01b83526022600452602483fd5b94607f169462000105565b634e487b7160e01b600052604160045260246000fd5b600080fd5b6040519190601f01601f191682016001600160401b03811183821017620003a357604052565b919080601f84011215620003b95782516001600160401b038111620003a3576020906200041a601f8201601f19168301620003be565b92818452828287010111620003b95760005b8181106200044257508260009394955001015290565b85810183015184820184015282016200042c56fe608060408181526004918236101561001657600080fd5b600092833560e01c91826301ffc9a7146107095750816306fdde0314610661578163081812fc14610645578163095ea7b31461061c57816318160ddd146105fa57816323b872dd146105ba5781632eb4a7ab146105bf57816342842e0e146105ba5781634ee5e6901461058b57816353acb5d8146102215781635bdeb6be146105435781636352211e146103d257816370a08231146104ba57816373b2e80e146101e4578163823599941461041b5781638a747d421461027e5781638da5cb5b146103d757816392941809146103d257816395b4c7111461039a57816395d89b41146102b7578163a22cb46514610283578163b27c0d041461027e578163b88d4fde14610226578163c18b065e14610221578163c8297d75146101e4578163c87b56dd1461017e575063e985e9c51461014e57600080fd5b3461017a578060031936011261017a579060209161016a610904565b5061017361091f565b5051908152f35b5080fd5b9050346101e05760203660031901126101e057358083526003602052818320546101dc936101c99284926101bc906001600160a01b03161515610d68565b815260056020522061081e565b90519182916020835260208301906108c4565b0390f35b8280fd5b9050346101e05760203660031901126101e05760209260ff918391906001600160a01b03610210610904565b168252855220541690519015158152f35b6109a7565b82843461027b57608036600319011261027b57610241610904565b5061024a61091f565b506064359067ffffffffffffffff821161027b575061026c9036908401610a40565b505051630d18115360e11b8152fd5b80fd5b610a6e565b82843461027b578160031936011261027b5761029d610904565b506024358015150361027b575051630d6a786d60e31b8152fd5b50503461017a578160031936011261017a578051908260018054916102db83610774565b808652928281169081156103725750600114610316575b505050610304826101dc9403836107fc565b519182916020835260208301906108c4565b94508085527fb10e2d527612073b26eecdfd717e6a320cf44b4afac2b0732d9fcbe2b7fa0cf65b82861061035a575050506103048260206101dc95820101946102f2565b8054602087870181019190915290950194810161033d565b6101dc97508693506020925061030494915060ff191682840152151560051b820101946102f2565b50503461017a57602036600319011261017a5760209181906001600160a01b036103c2610904565b1681526006845220549051908152f35b610a01565b50503461017a578160031936011261017a57517f00000000000000000000000000000000000000000000000000000000000000006001600160a01b03168152602090f35b8391503461017a57602036600319011261017a576001600160a01b0361043f610904565b16908183528060205260ff8484205416156104695760208480858581526006845220549051908152f35b608490602085519162461bcd60e51b8352820152602560248201527f4e6f20636572746966696361746520666f756e6420666f722074686973206164604482015264647265737360d81b6064820152fd5b82843461027b57602036600319011261027b576001600160a01b036104dd610904565b16801561050e57815260209283528181205460ff1615610505575060ff6001915b5191168152f35b60ff90916104fe565b825162461bcd60e51b8152602081860152600f60248201526e496e76616c6964206164647265737360881b6044820152606490fd5b82843461027b57602036600319011261027b575060606101dc61056c610567610904565b610f04565b91939094805195869515158652602086015284015260608301906108c4565b50503461017a57602036600319011261017a576020906105b16105ac610904565b610ea8565b90519015158152f35b610935565b50503461017a578160031936011261017a57602090517f00000000000000000000000000000000000000000000000000000000000000008152f35b50503461017a578160031936011261017a5760209060025460801c9051908152f35b82843461027b578160031936011261027b5750610637610904565b5051630d6a786d60e31b8152fd5b50503461017a57602036600319011261017a5751908152602090f35b50503461017a578160031936011261017a5780519082805461068281610774565b8085529160019180831690811561037257506001146106ad57505050610304826101dc9403836107fc565b80809650527f290decd9548b62a8d60345a988386fc84ba6bc95484008f6362f93160ef3e5635b8286106106f1575050506103048260206101dc95820101946102f2565b805460208787018101919091529095019481016106d4565b8491346101e05760203660031901126101e0573563ffffffff60e01b81168091036101e057602092506301ffc9a760e01b8114908115610763575b8115610752575b5015158152f35b635b5e139f60e01b1490508361074b565b6380ac58cd60e01b81149150610744565b90600182811c921680156107a4575b602083101461078e57565b634e487b7160e01b600052602260045260246000fd5b91607f1691610783565b6040810190811067ffffffffffffffff8211176107ca57604052565b634e487b7160e01b600052604160045260246000fd5b6060810190811067ffffffffffffffff8211176107ca57604052565b90601f8019910116810190811067ffffffffffffffff8211176107ca57604052565b906040519182600082549261083284610774565b9081845260019485811690816000146108a1575060011461085e575b505061085c925003836107fc565b565b9093915060005260209081600020936000915b81831061088957505061085c9350820101388061084e565b85548884018501529485019487945091830191610871565b91505061085c94506020925060ff191682840152151560051b820101388061084e565b919082519283825260005b8481106108f0575050826000602080949584010152601f8019910116010190565b6020818301810151848301820152016108cf565b600435906001600160a01b038216820361091a57565b600080fd5b602435906001600160a01b038216820361091a57565b3461091a57606036600319011261091a576001600160a01b036004358181160361091a576024359081160361091a57604051630d18115360e11b8152600490fd5b9181601f8401121561091a5782359167ffffffffffffffff831161091a576020808501948460051b01011161091a57565b3461091a57604036600319011261091a576004356001600160a01b038116810361091a5760243567ffffffffffffffff811161091a576020916109f16109f7923690600401610976565b91610e50565b6040519015158152f35b3461091a57602036600319011261091a576004356000526003602052602060018060a01b0360406000205416610a38811515610d68565b604051908152f35b9181601f8401121561091a5782359167ffffffffffffffff831161091a576020838186019501011161091a57565b3461091a5760408060031936011261091a57600480359167ffffffffffffffff9283811161091a57610aa39036908401610976565b60249491943582811161091a57610abd9036908601610a40565b939060009633885260209387855260ff848a205416610d585790610afd918451868101903360601b825260148152610af4816107ae565b51902091610db4565b15610d1e57338752858352818720936001948560ff19825416179055600254966fffffffffffffffffffffffffffffffff88169786808a019160801c0160801b1760025587895260038552838920336bffffffffffffffffffffffff60a01b8254161790553389526006855287848a205587895260058552838920918711610d0b57509081610b8d879354610774565b601f8111610cb9575b508895601f8411600114610c3b578380917f58a0743fd9c19d45e88c2407fe287721561659b587d3f929f63af8f21ffb8f44988c93610c30575b501b906000198560031b1c19161790555b8183519488338b7fddf252ad1be2c89b69c2b068fc378daa952ba7f163c4a11628f55a4df523b3ef8180a48086528501528284013785818584010152813394601f80199101168101030190a380f35b850135925038610bd0565b818a52858a20601f1985168b5b818110610ca1575097857f58a0743fd9c19d45e88c2407fe287721561659b587d3f929f63af8f21ffb8f449910610c87575b505083811b019055610be1565b840135600019600387901b60f8161c191690553880610c7a565b898601358355988801988a9650918301918801610c48565b90809293508952848920601f880160051c810191868910610d01575b8894939291601f89920160051c01915b828110610cf3575050610b96565b8b8155899550889101610ce5565b9091508190610cd5565b634e487b7160e01b895260419052602488fd5b815162461bcd60e51b8152808701849052601460248201527324b73b30b634b21026b2b935b63290383937b7b360611b6044820152606490fd5b83516307d829b560e41b81528890fd5b15610d6f57565b60405162461bcd60e51b815260206004820152601a60248201527f436572746966696361746520646f6573206e6f742065786973740000000000006044820152606490fd5b90600080925b828410610dea57505050507f00000000000000000000000000000000000000000000000000000000000000001490565b909192936001908560051b83013580821115600014610e2c57604080519160208301938452818301528152610e1e816107e0565b5190205b9401929190610dba565b90604080519160208301938452818301528152610e48816107e0565b519020610e22565b9160018060a01b038316600052600460205260ff60406000205416610ea057610e9d9260405160208101916bffffffffffffffffffffffff199060601b16825260148152610af4816107ae565b90565b505050600090565b6001600160a01b031660008181526004602052604081205490919060ff1615610f005760066020526040822054917ff018080ff49dc666e621b53470fb9fed108396609e624a25e85ccd8b6ff94489339180a4600190565b5090565b6001600160a01b03166000818152600460205260408120549092919060ff1615610f4d5782526006602052610f476040808420549384815260056020522061081e565b60019291565b50604051829190826020820167ffffffffffffffff811183821017610f7457604052815290565b634e487b7160e01b82526041600452602482fdfea2646970667358221220814d3c7d5ca032ca1befbfb36bff067becf01bca0d9187aa23c47c10c720413a64736f6c63430008140033",
  "linkReferences": {},
  "deployedLinkReferences": {}
}