{
  "_format": "hh-sol-artifact-1",
  "contractName": "MetaMaskVisibleSoulbound",
  "sourceName": "contracts/MetaMaskVisibleSoulbound.sol",
  "abi": [
    {
      "inputs": [
        {
          "internalType": "string",
          "name": "_name",
          "type": "string"
        },
        {
          "internalType": "string",
          "name": "_symbol",
          "type": "string"
        },
        {
          "internalType": "string",
          "name": "",
          "type": "string"
        },
        {
          "internalType": "string",
          "name": "",
          "type": "string"
        },
        {
          "internalType": "string",
          "name": "",
          "type": "string"
        },
        {
          "internalType": "string",
          "name": "",
          "type": "string"
        },
        {
          "internalType": "bytes32",
          "name": "_merkleRoot",
          "type": "bytes32"
        }
      ],
      "stateMutability": "nonpayable",
      "type": "constructor"
    },
    {
      "inputs": [],
      "name": "CertificateAlreadyClaimed",
      "type": "error"
    },
    {
      "inputs": [],
      "name": "InvalidMerkleProof",
      "type": "error"
    },
    {
      "inputs": [],
      "name": "SoulboundTransferNotAllowed",
      "type": "error"
    },
    {
      "inputs": [],
      "name": "TokenDoesNotExist",
      "type": "error"
    },
    {
      "anonymous": false,
      "inputs": [
        {
          "indexed": true,
          "internalType": "address",
          "name": "owner",
          "type": "address"
        },
        {
          "indexed": true,
          "internalType": "address",
          "name": "approved",
          "type": "address"
        },
        {
          "indexed": true,
          "internalType": "uint256",
          "name": "tokenId",
          "type": "uint256"
        }
      ],
      "name": "Approval",
      "type": "event"
    },
    {
      "anonymous": false,
      "inputs": [
        {
          "indexed": true,
          "internalType": "address",
          "name": "owner",
          "type": "address"
        },
        {
          "indexed": true,
          "internalType": "address",
          "name": "operator",
          "type": "address"
        },
        {
          "indexed": false,
          "internalType": "bool",
          "name": "approved",
          "type": "bool"
        }
      ],
      "name": "ApprovalForAll",
      "type": "event"
    },
    {
      "anonymous": false,
      "inputs": [
        {
          "indexed": true,
          "internalType": "address",
          "name": "soul",
          "type": "address"
        },
        {
          "indexed": true,
          "internalType": "uint256",
          "name": "tokenId",
          "type": "uint256"
        },
        {
          "indexed": false,
          "internalType": "string",
          "name": "tokenURI",
          "type": "string"
        }
      ],
      "name": "SoulboundCertificateIssued",
      "type": "event"
    },
    {
      "anonymous": false,
      "inputs": [
        {
          "indexed": true,
          "internalType": "address",
          "name": "from",
          "type": "address"
        },
        {
          "indexed": true,
          "internalType": "address",
          "name": "to",
          "type": "address"
        },
        {
          "indexed": true,
          "internalType": "uint256",
          "name": "tokenId",
          "type": "uint256"
        }
      ],
      "name": "SoulboundTransferAttempted",
      "type": "event"
    },
    {
      "anonymous": false,
      "inputs": [
        {
          "indexed": true,
          "internalType": "address",
          "name": "from",
          "type": "address"
        },
        {
          "indexed": true,
          "internalType": "address",
          "name": "to",
          "type": "address"
        },
        {
          "indexed": true,
          "internalType": "uint256",
          "name": "tokenId",
          "type": "uint256"
        }
      ],
      "name": "Transfer",
      "type": "event"
    },
    {
      "inputs": [
        {
          "internalType": "address",
          "name": "",
          "type": "address"
        }
      ],
      "name": "addressToTokenId",
      "outputs": [
        {
          "internalType": "uint256",
          "name": "",
          "type": "uint256"
        }
      ],
      "stateMutability": "view",
      "type": "function"
    },
    {
      "inputs": [
        {
          "internalType": "address",
          "name": "",
          "type": "address"
        },
        {
          "internalType": "uint256",
          "name": "tokenId",
          "type": "uint256"
        }
      ],
      "name": "approve",
      "outputs": [],
      "stateMutability": "nonpayable",
      "type": "function"
    },
    {
      "inputs": [
        {
          "internalType": "address",
          "name": "_owner",
          "type": "address"
        }
      ],
      "name": "balanceOf",
      "outputs": [
        {
          "internalType": "uint256",
          "name": "",
          "type": "uint256"
        }
      ],
      "stateMutability": "view",
      "type": "function"
    },
    {
      "inputs": [
        {
          "internalType": "bytes32[]",
          "name": "_merkleProof",
          "type": "bytes32[]"
        },
        {
          "internalType": "string",
          "name": "_tokenURI",
          "type": "string"
        }
      ],
      "name": "claimCertificate",
      "outputs": [],
      "stateMutability": "nonpayable",
      "type": "function"
    },
    {
      "inputs": [
        {
          "internalType": "bytes32[]",
          "name": "_merkleProof",
          "type": "bytes32[]"
        },
        {
          "internalType": "string",
          "name": "_tokenURI",
          "type": "string"
        }
      ],
      "name": "claimSoulboundCertificate",
      "outputs": [],
      "stateMutability": "nonpayable",
      "type": "function"
    },
    {
      "inputs": [
        {
          "internalType": "uint256",
          "name": "",
          "type": "uint256"
        }
      ],
      "name": "getApproved",
      "outputs": [
        {
          "internalType": "address",
          "name": "",
          "type": "address"
        }
      ],
      "stateMutability": "pure",
      "type": "function"
    },
    {
      "inputs": [
        {
          "internalType": "address",
          "name": "_soul",
          "type": "address"
        }
      ],
      "name": "getSoulboundCertificateDetails",
      "outputs": [
        {
          "internalType": "bool",
          "name": "exists",
          "type": "bool"
        },
        {
          "internalType": "uint256",
          "name": "tokenId",
          "type": "uint256"
        },
        {
          "internalType": "string",
          "name": "uri",
          "type": "string"
        }
      ],
      "stateMutability": "view",
      "type": "function"
    },
    {
      "inputs": [
        {
          "internalType": "address",
          "name": "",
          "type": "address"
        }
      ],
      "name": "hasClaimed",
      "outputs": [
        {
          "internalType": "bool",
          "name": "",
          "type": "bool"
        }
      ],
      "stateMutability": "view",
      "type": "function"
    },
    {
      "inputs": [
        {
          "internalType": "address",
          "name": "_address",
          "type": "address"
        }
      ],
      "name": "hasSoulboundCertificate",
      "outputs": [
        {
          "internalType": "bool",
          "name": "",
          "type": "bool"
        }
      ],
      "stateMutability": "view",
      "type": "function"
    },
    {
      "inputs": [
        {
          "internalType": "address",
          "name": "",
          "type": "address"
        },
        {
          "internalType": "address",
          "name": "",
          "type": "address"
        }
      ],
      "name": "isApprovedForAll",
      "outputs": [
        {
          "internalType": "bool",
          "name": "",
          "type": "bool"
        }
      ],
      "stateMutability": "pure",
      "type": "function"
    },
    {
      "inputs": [
        {
          "internalType": "address",
          "name": "_address",
          "type": "address"
        },
        {
          "internalType": "bytes32[]",
          "name": "_merkleProof",
          "type": "bytes32[]"
        }
      ],
      "name": "isEligible",
      "outputs": [
        {
          "internalType": "bool",
          "name": "",
          "type": "bool"
        }
      ],
      "stateMutability": "view",
      "type": "function"
    },
    {
      "inputs": [],
      "name": "merkleRoot",
      "outputs": [
        {
          "internalType": "bytes32",
          "name": "",
          "type": "bytes32"
        }
      ],
      "stateMutability": "view",
      "type": "function"
    },
    {
      "inputs": [],
      "name": "name",
      "outputs": [
        {
          "internalType": "string",
          "name": "",
          "type": "string"
        }
      ],
      "stateMutability": "view",
      "type": "function"
    },
    {
      "inputs": [],
      "name": "owner",
      "outputs": [
        {
          "internalType": "address",
          "name": "",
          "type": "address"
        }
      ],
      "stateMutability": "view",
      "type": "function"
    },
    {
      "inputs": [
        {
          "internalType": "uint256",
          "name": "tokenId",
          "type": "uint256"
        }
      ],
      "name": "ownerOf",
      "outputs": [
        {
          "internalType": "address",
          "name": "",
          "type": "address"
        }
      ],
      "stateMutability": "view",
      "type": "function"
    },
    {
      "inputs": [
        {
          "internalType": "address",
          "name": "from",
          "type": "address"
        },
        {
          "internalType": "address",
          "name": "to",
          "type": "address"
        },
        {
          "internalType": "uint256",
          "name": "tokenId",
          "type": "uint256"
        }
      ],
      "name": "safeTransferFrom",
      "outputs": [],
      "stateMutability": "nonpayable",
      "type": "function"
    },
    {
      "inputs": [
        {
          "internalType": "address",
          "name": "from",
          "type": "address"
        },
        {
          "internalType": "address",
          "name": "to",
          "type": "address"
        },
        {
          "internalType": "uint256",
          "name": "tokenId",
          "type": "uint256"
        },
        {
          "internalType": "bytes",
          "name": "",
          "type": "bytes"
        }
      ],
      "name": "safeTransferFrom",
      "outputs": [],
      "stateMutability": "nonpayable",
      "type": "function"
    },
    {
      "inputs": [
        {
          "internalType": "address",
          "name": "",
          "type": "address"
        },
        {
          "internalType": "bool",
          "name": "",
          "type": "bool"
        }
      ],
      "name": "setApprovalForAll",
      "outputs": [],
      "stateMutability": "pure",
      "type": "function"
    },
    {
      "inputs": [
        {
          "internalType": "bytes4",
          "name": "interfaceId",
          "type": "bytes4"
        }
      ],
      "name": "supportsInterface",
      "outputs": [
        {
          "internalType": "bool",
          "name": "",
          "type": "bool"
        }
      ],
      "stateMutability": "pure",
      "type": "function"
    },
    {
      "inputs": [],
      "name": "symbol",
      "outputs": [
        {
          "internalType": "string",
          "name": "",
          "type": "string"
        }
      ],
      "stateMutability": "view",
      "type": "function"
    },
    {
      "inputs": [
        {
          "internalType": "uint256",
          "name": "tokenId",
          "type": "uint256"
        }
      ],
      "name": "tokenURI",
      "outputs": [
        {
          "internalType": "string",
          "name": "",
          "type": "string"
        }
      ],
      "stateMutability": "view",
      "type": "function"
    },
    {
      "inputs": [],
      "name": "totalSupply",
      "outputs": [
        {
          "internalType": "uint256",
          "name": "",
          "type": "uint256"
        }
      ],
      "stateMutability": "view",
      "type": "function"
    },
    {
      "inputs": [
        {
          "internalType": "address",
          "name": "from",
          "type": "address"
        },
        {
          "internalType": "address",
          "name": "to",
          "type": "address"
        },
        {
          "internalType": "uint256",
          "name": "tokenId",
          "type": "uint256"
        }
      ],
      "name": "transferFrom",
      "outputs": [],
      "stateMutability": "nonpayable",
      "type": "function"
    }
  ],
  "bytecode": "0x60c060405234620003b857620013df803803806200001d81620003bd565b92833981019060e081830312620003b85780516001600160401b039190828111620003b8578362000050918301620003e3565b9160209384830151828111620003b857816200006e918501620003e3565b926040810151838111620003b857826200008a918301620003e3565b506060810151838111620003b85782620000a6918301620003e3565b506080810151838111620003b85782620000c2918301620003e3565b5060a0810151838111620003b85760c092620000e0918301620003e3565b50015192600192836002558151838111620003a2576000908154938685811c9516801562000397575b8986101462000383578190601f9586811162000330575b508990868311600114620002cc578492620002c0575b5050600019600383901b1c191690861b1781555b8151938411620002ac5784548581811c91168015620002a1575b888210146200028d5783811162000245575b5086928411600114620001df57839495965092620001d3575b5050600019600383901b1c191690821b1790555b6080523360a052604051610f89908162000456823960805181818161087d0152610ec5015260a051816104870152f35b0151905038806200018f565b9190601f1984169685845280842093905b8882106200022d575050838596971062000213575b505050811b019055620001a3565b015160001960f88460031b161c1916905538808062000205565b808785968294968601518155019501930190620001f0565b8582528782208480870160051c8201928a881062000283575b0160051c019086905b8281106200027757505062000176565b83815501869062000267565b925081926200025e565b634e487b7160e01b82526022600452602482fd5b90607f169062000164565b634e487b7160e01b81526041600452602490fd5b01519050388062000136565b8480528a85208994509190601f198416865b8d828210620003195750508411620002ff575b505050811b0181556200014a565b015160001960f88460031b161c19169055388080620002f1565b8385015186558c97909501949384019301620002de565b9091508380528984208680850160051c8201928c861062000379575b918a91869594930160051c01915b8281106200036a57505062000120565b8681558594508a91016200035a565b925081926200034c565b634e487b7160e01b83526022600452602483fd5b94607f169462000109565b634e487b7160e01b600052604160045260246000fd5b600080fd5b6040519190601f01601f191682016001600160401b03811183821017620003a257604052565b919080601f84011215620003b85782516001600160401b038111620003a25760209062000419601f8201601f19168301620003bd565b92818452828287010111620003b85760005b8181106200044157508260009394955001015290565b85810183015184820184015282016200042b56fe608060408181526004918236101561001657600080fd5b600092833560e01c91826301ffc9a7146109f55750816306fdde031461094d578163081812fc14610931578163095ea7b3146108df57816318160ddd146108a057816323b872dd146108605781632eb4a7ab1461086557816342842e0e146108605781635bdeb6be146108185781636352211e146107db5781636511bf2e146107a357816370a082311461073257816373b2e80e146101ba5781638a747d42146104b65781638da5cb5b1461047257816395d89b411461038f578163a22cb4651461035b57838263b27c0d041461029b57508163b88d4fde1461024c578163c18b065e146101f8578163c8297d75146101ba578163c87b56dd14610154575063e985e9c51461012457600080fd5b3461015057806003193601126101505790602091610140610bf0565b50610149610c0b565b5051908152f35b5080fd5b9050346101b65760203660031901126101b657358083526003602052818320546101b29361019f928492610192906001600160a01b03161515610d05565b8152600560205220610b0a565b9051918291602083526020830190610bb0565b0390f35b8280fd5b5050346101505760203660031901126101505760209160ff9082906001600160a01b036101e5610bf0565b1681526006855220541690519015158152f35b9050346101b657816003193601126101b657610212610bf0565b926024359067ffffffffffffffff821161024957509261023a61024092602095369101610c5b565b91610dd6565b90519015158152f35b80fd5b833461024957608036600319011261024957610266610bf0565b9161026f610c0b565b916064359067ffffffffffffffff8211610249575061029091369101610c8c565b505060443591610d48565b92915034610357576102ac36610cba565b91909592303b1561035357855163453a3ea160e11b815285810187905260448101839052966001600160fb1b03831161034f578793606461030693869560051b809183880137850160608682030160248701520191610db5565b038183305af180156103455761031a578380f35b67ffffffffffffffff83116103325750523880808380f35b634e487b7160e01b845260419052602483fd5b82513d86823e3d90fd5b8480fd5b8380fd5b5050fd5b828434610249578160031936011261024957610375610bf0565b5060243580151503610249575051630d18115360e11b8152fd5b5050346101505781600319360112610150578051908260018054916103b383610a60565b8086529282811690811561044a57506001146103ee575b5050506103dc826101b2940383610ae8565b51918291602083526020830190610bb0565b94508085527fb10e2d527612073b26eecdfd717e6a320cf44b4afac2b0732d9fcbe2b7fa0cf65b828610610432575050506103dc8260206101b295820101946103ca565b80546020878701810191909152909501948101610415565b6101b29750869350602092506103dc94915060ff191682840152151560051b820101946103ca565b505034610150578160031936011261015057517f00000000000000000000000000000000000000000000000000000000000000006001600160a01b03168152602090f35b919050346101b6576104c736610cba565b919390923387526020946006865260ff83892054166107225790610507918351878101903360601b8252601481526104fe81610a9a565b51902091610eb2565b156107135733865260068452808620946001958660ff198254161790556002549561053187610d90565b60025586885260038652828820336bffffffffffffffffffffffff60a01b8254161790553388528186528083892055868852600586528288209167ffffffffffffffff851161070057506105858254610a60565b601f81116106ba575b5087601f8511600114610634579184807f58a0743fd9c19d45e88c2407fe287721561659b587d3f929f63af8f21ffb8f4497969593610623958c93610629575b501b906000198660031b1c19161790555b3388526007865286818920555192839287338a7fddf252ad1be2c89b69c2b068fc378daa952ba7f163c4a11628f55a4df523b3ef8180a48684523396840191610db5565b0390a380f35b8801359250386105ce565b82895286892090601f1986168a5b898282106106a657505091869593917f58a0743fd9c19d45e88c2407fe287721561659b587d3f929f63af8f21ffb8f44989761062396941061068c575b505084811b0190556105df565b870135600019600388901b60f8161c19169055388061067f565b898401358555938501939283019201610642565b828952868920601f860160051c8101918887106106f6575b601f0160051c019082905b8281106106eb57505061058e565b8a81550182906106dd565b90915081906106d2565b634e487b7160e01b895260419052602488fd5b5163582f497d60e11b81528490fd5b8251638e03cd2560e01b81528790fd5b828434610249576020366003190112610249576001600160a01b03610755610bf0565b16801561076e5781526020928352819020549051908152f35b825162461bcd60e51b8152602081860152600f60248201526e496e76616c6964206164647265737360881b6044820152606490fd5b5050346101505760203660031901126101505760209181906001600160a01b036107cb610bf0565b1681526007845220549051908152f35b9050346101b65760203660031901126101b6573582526003602090815291819020546001600160a01b031690610812821515610d05565b51908152f35b828434610249576020366003190112610249575060606101b261084161083c610bf0565b610e2e565b9193909480519586951515865260208601528401526060830190610bb0565b610c21565b505034610150578160031936011261015057602090517f00000000000000000000000000000000000000000000000000000000000000008152f35b8383346101505781600319360112610150576002546000198101929083116108cc576020838351908152f35b634e487b7160e01b815260118452602490fd5b8383346101505780600319360112610150576108f9610bf0565b50519060243590807f050e2cbb7c13fd45ac2757350533e31690a764a390067a92d43b7039c6d497418180a4630d18115360e11b8152fd5b5050346101505760203660031901126101505751908152602090f35b50503461015057816003193601126101505780519082805461096e81610a60565b8085529160019180831690811561044a5750600114610999575050506103dc826101b2940383610ae8565b80809650527f290decd9548b62a8d60345a988386fc84ba6bc95484008f6362f93160ef3e5635b8286106109dd575050506103dc8260206101b295820101946103ca565b805460208787018101919091529095019481016109c0565b8491346101b65760203660031901126101b6573563ffffffff60e01b81168091036101b657602092506301ffc9a760e01b8114908115610a4f575b8115610a3e575b5015158152f35b635b5e139f60e01b14905083610a37565b6380ac58cd60e01b81149150610a30565b90600182811c92168015610a90575b6020831014610a7a57565b634e487b7160e01b600052602260045260246000fd5b91607f1691610a6f565b6040810190811067ffffffffffffffff821117610ab657604052565b634e487b7160e01b600052604160045260246000fd5b6060810190811067ffffffffffffffff821117610ab657604052565b90601f8019910116810190811067ffffffffffffffff821117610ab657604052565b9060405191826000825492610b1e84610a60565b908184526001948581169081600014610b8d5750600114610b4a575b5050610b4892500383610ae8565b565b9093915060005260209081600020936000915b818310610b75575050610b4893508201013880610b3a565b85548884018501529485019487945091830191610b5d565b915050610b4894506020925060ff191682840152151560051b8201013880610b3a565b919082519283825260005b848110610bdc575050826000602080949584010152601f8019910116010190565b602081830181015184830182015201610bbb565b600435906001600160a01b0382168203610c0657565b600080fd5b602435906001600160a01b0382168203610c0657565b34610c06576060366003190112610c06576004356001600160a01b038082168203610c06576024359081168103610c065760443591610d48565b9181601f84011215610c065782359167ffffffffffffffff8311610c06576020808501948460051b010111610c0657565b9181601f84011215610c065782359167ffffffffffffffff8311610c065760208381860195010111610c0657565b6040600319820112610c065767ffffffffffffffff91600435838111610c065782610ce791600401610c5b565b93909392602435918211610c0657610d0191600401610c8c565b9091565b15610d0c57565b60405162461bcd60e51b8152602060048201526014602482015273151bdad95b88191bd95cc81b9bdd08195e1a5cdd60621b6044820152606490fd5b604051600493909290916001600160a01b0391821691167f050e2cbb7c13fd45ac2757350533e31690a764a390067a92d43b7039c6d49741600080a4630d18115360e11b8152fd5b6000198114610d9f5760010190565b634e487b7160e01b600052601160045260246000fd5b908060209392818452848401376000828201840152601f01601f1916010190565b9160018060a01b038316600052600660205260ff60406000205416610e2657610e239260405160208101916bffffffffffffffffffffffff199060601b168252601481526104fe81610a9a565b90565b505050600090565b6001600160a01b03166000818152600660205260408120549092919060ff1615610e775782526007602052610e7160408084205493848152600560205220610b0a565b60019291565b50604051829190826020820167ffffffffffffffff811183821017610e9e57604052815290565b634e487b7160e01b82526041600452602482fd5b90600080925b828410610ee857505050507f00000000000000000000000000000000000000000000000000000000000000001490565b90919293610f27908560051b83013580821115600014610f2f57604080519160208301938452818301528152610f1d81610acc565b5190205b94610d90565b929190610eb8565b90604080519160208301938452818301528152610f4b81610acc565b519020610f2156fea2646970667358221220b6c88fa62c41cb11f3708680b5927ca1751a06400e18bac6da3a884a6b04703564736f6c63430008140033",
  "linkReferences": {},
  "deployedLinkReferences": {}
}