{
  "_format": "hh-sol-artifact-1",
  "contractName": "IssuerRegistry",
  "sourceName": "contracts/IssuerRegistry.sol",
  "abi": [
    {
      "inputs": [],
      "stateMutability": "nonpayable",
      "type": "constructor"
    },
    {
      "inputs": [
        {
          "internalType": "address",
          "name": "owner",
          "type": "address"
        }
      ],
      "name": "OwnableInvalidOwner",
      "type": "error"
    },
    {
      "inputs": [
        {
          "internalType": "address",
          "name": "account",
          "type": "address"
        }
      ],
      "name": "OwnableUnauthorizedAccount",
      "type": "error"
    },
    {
      "anonymous": false,
      "inputs": [
        {
          "indexed": true,
          "internalType": "address",
          "name": "admin",
          "type": "address"
        }
      ],
      "name": "AdminAdded",
      "type": "event"
    },
    {
      "anonymous": false,
      "inputs": [
        {
          "indexed": true,
          "internalType": "address",
          "name": "admin",
          "type": "address"
        }
      ],
      "name": "AdminRemoved",
      "type": "event"
    },
    {
      "anonymous": false,
      "inputs": [
        {
          "indexed": true,
          "internalType": "address",
          "name": "issuer",
          "type": "address"
        },
        {
          "indexed": false,
          "internalType": "bool",
          "name": "isActive",
          "type": "bool"
        }
      ],
      "name": "IssuerStatusChanged",
      "type": "event"
    },
    {
      "anonymous": false,
      "inputs": [
        {
          "indexed": true,
          "internalType": "address",
          "name": "issuer",
          "type": "address"
        },
        {
          "indexed": false,
          "internalType": "enum IIssuerRegistry.IssuerTier",
          "name": "fromTier",
          "type": "uint8"
        },
        {
          "indexed": false,
          "internalType": "enum IIssuerRegistry.IssuerTier",
          "name": "toTier",
          "type": "uint8"
        }
      ],
      "name": "IssuerUpgraded",
      "type": "event"
    },
    {
      "anonymous": false,
      "inputs": [
        {
          "indexed": true,
          "internalType": "address",
          "name": "issuer",
          "type": "address"
        },
        {
          "indexed": false,
          "internalType": "enum IIssuerRegistry.IssuerTier",
          "name": "tier",
          "type": "uint8"
        },
        {
          "indexed": false,
          "internalType": "string",
          "name": "name",
          "type": "string"
        }
      ],
      "name": "IssuerVerified",
      "type": "event"
    },
    {
      "anonymous": false,
      "inputs": [
        {
          "indexed": true,
          "internalType": "address",
          "name": "previousOwner",
          "type": "address"
        },
        {
          "indexed": true,
          "internalType": "address",
          "name": "newOwner",
          "type": "address"
        }
      ],
      "name": "OwnershipTransferred",
      "type": "event"
    },
    {
      "inputs": [
        {
          "internalType": "address",
          "name": "admin",
          "type": "address"
        }
      ],
      "name": "addAdmin",
      "outputs": [],
      "stateMutability": "nonpayable",
      "type": "function"
    },
    {
      "inputs": [
        {
          "internalType": "address",
          "name": "issuer",
          "type": "address"
        }
      ],
      "name": "deactivateIssuer",
      "outputs": [],
      "stateMutability": "nonpayable",
      "type": "function"
    },
    {
      "inputs": [
        {
          "internalType": "string",
          "name": "domain",
          "type": "string"
        }
      ],
      "name": "getDomainIssuer",
      "outputs": [
        {
          "internalType": "address",
          "name": "",
          "type": "address"
        }
      ],
      "stateMutability": "view",
      "type": "function"
    },
    {
      "inputs": [
        {
          "internalType": "address",
          "name": "issuer",
          "type": "address"
        }
      ],
      "name": "getIssuerData",
      "outputs": [
        {
          "components": [
            {
              "internalType": "address",
              "name": "issuerAddress",
              "type": "address"
            },
            {
              "internalType": "enum IIssuerRegistry.IssuerTier",
              "name": "tier",
              "type": "uint8"
            },
            {
              "internalType": "string",
              "name": "name",
              "type": "string"
            },
            {
              "internalType": "string",
              "name": "verificationData",
              "type": "string"
            },
            {
              "internalType": "uint256",
              "name": "verifiedAt",
              "type": "uint256"
            },
            {
              "internalType": "bool",
              "name": "isActive",
              "type": "bool"
            }
          ],
          "internalType": "struct IIssuerRegistry.IssuerData",
          "name": "",
          "type": "tuple"
        }
      ],
      "stateMutability": "view",
      "type": "function"
    },
    {
      "inputs": [
        {
          "internalType": "address",
          "name": "issuer",
          "type": "address"
        }
      ],
      "name": "getIssuerTier",
      "outputs": [
        {
          "internalType": "enum IIssuerRegistry.IssuerTier",
          "name": "",
          "type": "uint8"
        }
      ],
      "stateMutability": "view",
      "type": "function"
    },
    {
      "inputs": [
        {
          "internalType": "string",
          "name": "socialMediaUrl",
          "type": "string"
        }
      ],
      "name": "getSocialMediaIssuer",
      "outputs": [
        {
          "internalType": "address",
          "name": "",
          "type": "address"
        }
      ],
      "stateMutability": "view",
      "type": "function"
    },
    {
      "inputs": [
        {
          "internalType": "address",
          "name": "addr",
          "type": "address"
        }
      ],
      "name": "isAdmin",
      "outputs": [
        {
          "internalType": "bool",
          "name": "",
          "type": "bool"
        }
      ],
      "stateMutability": "view",
      "type": "function"
    },
    {
      "inputs": [
        {
          "internalType": "address",
          "name": "issuer",
          "type": "address"
        }
      ],
      "name": "isVerifiedIssuer",
      "outputs": [
        {
          "internalType": "bool",
          "name": "",
          "type": "bool"
        }
      ],
      "stateMutability": "view",
      "type": "function"
    },
    {
      "inputs": [
        {
          "internalType": "address",
          "name": "issuerAddress",
          "type": "address"
        },
        {
          "internalType": "string",
          "name": "issuerName",
          "type": "string"
        }
      ],
      "name": "manualVerifyIssuer",
      "outputs": [],
      "stateMutability": "nonpayable",
      "type": "function"
    },
    {
      "inputs": [],
      "name": "owner",
      "outputs": [
        {
          "internalType": "address",
          "name": "",
          "type": "address"
        }
      ],
      "stateMutability": "view",
      "type": "function"
    },
    {
      "inputs": [
        {
          "internalType": "address",
          "name": "issuer",
          "type": "address"
        }
      ],
      "name": "reactivateIssuer",
      "outputs": [],
      "stateMutability": "nonpayable",
      "type": "function"
    },
    {
      "inputs": [
        {
          "internalType": "address",
          "name": "admin",
          "type": "address"
        }
      ],
      "name": "removeAdmin",
      "outputs": [],
      "stateMutability": "nonpayable",
      "type": "function"
    },
    {
      "inputs": [],
      "name": "renounceOwnership",
      "outputs": [],
      "stateMutability": "nonpayable",
      "type": "function"
    },
    {
      "inputs": [
        {
          "internalType": "address",
          "name": "newOwner",
          "type": "address"
        }
      ],
      "name": "transferOwnership",
      "outputs": [],
      "stateMutability": "nonpayable",
      "type": "function"
    },
    {
      "inputs": [
        {
          "internalType": "string",
          "name": "domain",
          "type": "string"
        },
        {
          "internalType": "string",
          "name": "verificationData",
          "type": "string"
        }
      ],
      "name": "upgradeToT1",
      "outputs": [],
      "stateMutability": "nonpayable",
      "type": "function"
    },
    {
      "inputs": [
        {
          "internalType": "string",
          "name": "issuerName",
          "type": "string"
        },
        {
          "internalType": "string",
          "name": "domain",
          "type": "string"
        },
        {
          "internalType": "string",
          "name": "verificationData",
          "type": "string"
        }
      ],
      "name": "verifyIssuerT1",
      "outputs": [],
      "stateMutability": "nonpayable",
      "type": "function"
    },
    {
      "inputs": [
        {
          "internalType": "string",
          "name": "issuerName",
          "type": "string"
        },
        {
          "internalType": "string",
          "name": "socialMediaUrl",
          "type": "string"
        }
      ],
      "name": "verifyIssuerT2",
      "outputs": [],
      "stateMutability": "nonpayable",
      "type": "function"
    }
  ],
  "bytecode": "0x608060405234801561001057600080fd5b50338061003757604051631e4fbdf760e01b81526000600482015260240160405180910390fd5b61004081610060565b50336000908152600460205260409020805460ff191660011790556100b0565b600080546001600160a01b038381166001600160a01b0319831681178455604051919092169283917f8be0079c531659141344cd1fd0a4f28419497f9722a3daafe3b4186f6b6457e09190a35050565b611a79806100bf6000396000f3fe608060405234801561001057600080fd5b506004361061010b5760003560e01c80637a009135116100a2578063af221c5911610071578063af221c5914610265578063ce21e1cb14610278578063de222a9f1461028b578063f2fde38b1461029e578063f52fa8e3146102b157600080fd5b80637a009135146101fa57806388fd4a031461020d5780638da5cb5b1461022d57806396ae37091461025257600080fd5b80634181186f116100de5780634181186f146101b957806362078d2d146101cc57806370480275146101df578063715018a6146101f257600080fd5b80631785f53c146101105780631b76637e1461012557806324d7806c146101385780633dbf1db314610179575b600080fd5b61012361011e366004611384565b6102c4565b005b610123610133366004611384565b610315565b610164610146366004611384565b6001600160a01b031660009081526004602052604090205460ff1690565b60405190151581526020015b60405180910390f35b6101ac610187366004611384565b6001600160a01b0316600090815260016020526040902054600160a01b900460ff1690565b60405161017091906113de565b6101236101c7366004611435565b6103fd565b6101236101da3660046114cf565b61062a565b6101236101ed366004611384565b6108a2565b6101236108f6565b610123610208366004611384565b61090a565b61022061021b366004611384565b6109de565b6040516101709190611581565b6000546001600160a01b03165b6040516001600160a01b039091168152602001610170565b610123610260366004611602565b610bc1565b61023a610273366004611655565b610d82565b610164610286366004611384565b610dea565b61023a610299366004611655565b610e4c565b6101236102ac366004611384565b610e91565b6101236102bf3660046114cf565b610ecf565b6102cc61115b565b6001600160a01b038116600081815260046020526040808220805460ff19169055517fa3b62bc36326052d97ea62d63c3d60308ed4c3ea8ac079dd8499f1e9c4f80c0f9190a250565b3360009081526004602052604090205460ff1661034d5760405162461bcd60e51b815260040161034490611697565b60405180910390fd5b60006001600160a01b038216600090815260016020526040902054600160a01b900460ff166003811115610383576103836113a6565b036103a05760405162461bcd60e51b8152600401610344906116dd565b6001600160a01b038116600081815260016020818152604092839020600401805460ff19168317905591519081527f97dbc7d4478cea4ca903e42088ac2881b4d2442bcd802fd6c9303959892df25991015b60405180910390a250565b600061043e85858080601f01602080910402602001604051908101604052809392919081815260200183838082843760009201919091525061118892505050565b6000818152600260205260409020549091506001600160a01b0316156104765760405162461bcd60e51b815260040161034490611724565b6040805160c08101909152338152602081016003815260200188888080601f016020809104026020016040519081016040528093929190818152602001838380828437600092019190915250505090825250604080516020601f870181900481028201810190925285815291810191908690869081908401838280828437600092018290525093855250504260208085019190915260016040948501819052338452815292909120835181546001600160a01b031981166001600160a01b03909216918217835593850151919391925083916001600160a81b03191617600160a01b83600381111561056a5761056a6113a6565b021790555060408201516001820190610583908261180c565b5060608201516002820190610598908261180c565b50608082015160038281019190915560a0909201516004909101805460ff1916911515919091179055600082815260026020526040908190208054336001600160a01b03199091168117909155905190917f744b9fea5666ea8b4537fd855cb825fa7fbe000660039896bb561038b15bdd8b9161061991908b908b906118cc565b60405180910390a250505050505050565b600061066b83838080601f01602080910402602001604051908101604052809392919081815260200183838082843760009201919091525061118892505050565b6000818152600360205260409020549091506001600160a01b0316156106ef5760405162461bcd60e51b815260206004820152603360248201527f49737375657252656769737472793a20536f6369616c206d656469612055524c60448201527208185b1c9958591e481c9959da5cdd195c9959606a1b6064820152608401610344565b6040805160c08101909152338152602081016002815260200186868080601f016020809104026020016040519081016040528093929190818152602001838380828437600092019190915250505090825250604080516020601f870181900481028201810190925285815291810191908690869081908401838280828437600092018290525093855250504260208085019190915260016040948501819052338452815292909120835181546001600160a01b031981166001600160a01b03909216918217835593850151919391925083916001600160a81b03191617600160a01b8360038111156107e3576107e36113a6565b0217905550604082015160018201906107fc908261180c565b5060608201516002820190610811908261180c565b50608082015160038281019190915560a0909201516004909101805460ff191691151591909117905560008281526020919091526040908190208054336001600160a01b0319909116811790915590517f744b9fea5666ea8b4537fd855cb825fa7fbe000660039896bb561038b15bdd8b9061089390600290899089906118cc565b60405180910390a25050505050565b6108aa61115b565b6001600160a01b038116600081815260046020526040808220805460ff19166001179055517f44d6d25963f097ad14f29f06854a01f575648a1ef82f30e562ccd3889717e3399190a250565b6108fe61115b565b61090860006111a1565b565b3360009081526004602052604090205460ff166109395760405162461bcd60e51b815260040161034490611697565b60006001600160a01b038216600090815260016020526040902054600160a01b900460ff16600381111561096f5761096f6113a6565b0361098c5760405162461bcd60e51b8152600401610344906116dd565b6001600160a01b0381166000818152600160209081526040808320600401805460ff19169055519182527f97dbc7d4478cea4ca903e42088ac2881b4d2442bcd802fd6c9303959892df25991016103f2565b610a1a6040805160c081019091526000808252602082019081526020016060815260200160608152602001600081526020016000151581525090565b6001600160a01b03828116600090815260016020908152604091829020825160c0810190935280549384168352919290830190600160a01b900460ff166003811115610a6857610a686113a6565b6003811115610a7957610a796113a6565b8152602001600182018054610a8d90611783565b80601f0160208091040260200160405190810160405280929190818152602001828054610ab990611783565b8015610b065780601f10610adb57610100808354040283529160200191610b06565b820191906000526020600020905b815481529060010190602001808311610ae957829003601f168201915b50505050508152602001600282018054610b1f90611783565b80601f0160208091040260200160405190810160405280929190818152602001828054610b4b90611783565b8015610b985780601f10610b6d57610100808354040283529160200191610b98565b820191906000526020600020905b815481529060010190602001808311610b7b57829003601f168201915b50505091835250506003820154602082015260049091015460ff16151560409091015292915050565b3360009081526004602052604090205460ff16610bf05760405162461bcd60e51b815260040161034490611697565b6040805160c081019091526001600160a01b0384168152602081016001815260200183838080601f01602080910402602001604051908101604052809392919081815260200183838082843760009201829052509385525050604080518082018252601381527226b0b73ab0b6103b32b934b334b1b0ba34b7b760691b602082810191909152808601919091524282860152600160609095018590526001600160a01b03808a16855294815292208451815494166001600160a01b031985168117825592850151909390928492506001600160a81b031990911617600160a01b836003811115610ce257610ce26113a6565b021790555060408201516001820190610cfb908261180c565b5060608201516002820190610d10908261180c565b506080820151600382015560a0909101516004909101805460ff19169115159190911790556040516001600160a01b038416907f744b9fea5666ea8b4537fd855cb825fa7fbe000660039896bb561038b15bdd8b90610d7590600190869086906118cc565b60405180910390a2505050565b600060026000610dc785858080601f01602080910402602001604051908101604052809392919081815260200183838082843760009201919091525061118892505050565b81526020810191909152604001600020546001600160a01b031690505b92915050565b6000806001600160a01b038316600090815260016020526040902054600160a01b900460ff166003811115610e2157610e216113a6565b14158015610de45750506001600160a01b031660009081526001602052604090206004015460ff1690565b600060036000610dc785858080601f01602080910402602001604051908101604052809392919081815260200183838082843760009201919091525061118892505050565b610e9961115b565b6001600160a01b038116610ec357604051631e4fbdf760e01b815260006004820152602401610344565b610ecc816111a1565b50565b600233600090815260016020526040902054600160a01b900460ff166003811115610efc57610efc6113a6565b14610f5b5760405162461bcd60e51b815260206004820152602960248201527f49737375657252656769737472793a2043616c6c6572206973206e6f742061206044820152682a191034b9b9bab2b960b91b6064820152608401610344565b6000610f9c85858080601f01602080910402602001604051908101604052809392919081815260200183838082843760009201919091525061118892505050565b6000818152600260205260409020549091506001600160a01b031615610fd45760405162461bcd60e51b815260040161034490611724565b336000908152600160205260408120805460029091018054600160a01b90920460ff16929161100290611783565b80601f016020809104026020016040519081016040528092919081815260200182805461102e90611783565b801561107b5780601f106110505761010080835404028352916020019161107b565b820191906000526020600020905b81548152906001019060200180831161105e57829003601f168201915b5050336000908152600160205260409020805460ff60a01b1916600360a01b17815593945050600290920191506110b59050858783611909565b50336000818152600160209081526040808320426003909101558683526002909152812080546001600160a01b0319169092179091556110f482611188565b60008181526003602081905260409182902080546001600160a01b0319169055905191925033917f10a7378bef7b5bf006f1ee936fb06480be20ccdea69db1a4ef8aa15be3745b7791611149918791906119ca565b60405180910390a25050505050505050565b6000546001600160a01b031633146109085760405163118cdaa760e01b8152336004820152602401610344565b6000611193826111f1565b805190602001209050919050565b600080546001600160a01b038381166001600160a01b0319831681178455604051919092169283917f8be0079c531659141344cd1fd0a4f28419497f9722a3daafe3b4186f6b6457e09190a35050565b606060008290506000815167ffffffffffffffff8111156112145761121461176d565b6040519080825280601f01601f19166020018201604052801561123e576020820181803683370190505b50905060005b825181101561136057604160f81b838281518110611264576112646119e5565b01602001516001600160f81b031916108015906112a55750605a60f81b838281518110611293576112936119e5565b01602001516001600160f81b03191611155b15611307578281815181106112bc576112bc6119e5565b602001015160f81c60f81b60f81c60206112d69190611a11565b60f81b8282815181106112eb576112eb6119e5565b60200101906001600160f81b031916908160001a90535061134e565b828181518110611319576113196119e5565b602001015160f81c60f81b828281518110611336576113366119e5565b60200101906001600160f81b031916908160001a9053505b8061135881611a2a565b915050611244565b509392505050565b80356001600160a01b038116811461137f57600080fd5b919050565b60006020828403121561139657600080fd5b61139f82611368565b9392505050565b634e487b7160e01b600052602160045260246000fd5b600481106113da57634e487b7160e01b600052602160045260246000fd5b9052565b60208101610de482846113bc565b60008083601f8401126113fe57600080fd5b50813567ffffffffffffffff81111561141657600080fd5b60208301915083602082850101111561142e57600080fd5b9250929050565b6000806000806000806060878903121561144e57600080fd5b863567ffffffffffffffff8082111561146657600080fd5b6114728a838b016113ec565b9098509650602089013591508082111561148b57600080fd5b6114978a838b016113ec565b909650945060408901359150808211156114b057600080fd5b506114bd89828a016113ec565b979a9699509497509295939492505050565b600080600080604085870312156114e557600080fd5b843567ffffffffffffffff808211156114fd57600080fd5b611509888389016113ec565b9096509450602087013591508082111561152257600080fd5b5061152f878288016113ec565b95989497509550505050565b6000815180845260005b8181101561156157602081850181015186830182015201611545565b506000602082860101526020601f19601f83011685010191505092915050565b602080825282516001600160a01b0316828201528201516000906115a860408401826113bc565b50604083015160c060608401526115c260e084018261153b565b90506060840151601f198483030160808501526115df828261153b565b915050608084015160a084015260a0840151151560c08401528091505092915050565b60008060006040848603121561161757600080fd5b61162084611368565b9250602084013567ffffffffffffffff81111561163c57600080fd5b611648868287016113ec565b9497909650939450505050565b6000806020838503121561166857600080fd5b823567ffffffffffffffff81111561167f57600080fd5b61168b858286016113ec565b90969095509350505050565b60208082526026908201527f49737375657252656769737472793a2043616c6c6572206973206e6f7420616e6040820152651030b236b4b760d11b606082015260800190565b60208082526027908201527f49737375657252656769737472793a204e6f74206120726567697374657265646040820152661034b9b9bab2b960c91b606082015260800190565b60208082526029908201527f49737375657252656769737472793a20446f6d61696e20616c726561647920726040820152681959da5cdd195c995960ba1b606082015260800190565b634e487b7160e01b600052604160045260246000fd5b600181811c9082168061179757607f821691505b6020821081036117b757634e487b7160e01b600052602260045260246000fd5b50919050565b601f82111561180757600081815260208120601f850160051c810160208610156117e45750805b601f850160051c820191505b81811015611803578281556001016117f0565b5050505b505050565b815167ffffffffffffffff8111156118265761182661176d565b61183a816118348454611783565b846117bd565b602080601f83116001811461186f57600084156118575750858301515b600019600386901b1c1916600185901b178555611803565b600085815260208120601f198616915b8281101561189e5788860151825594840194600190910190840161187f565b50858210156118bc5787850151600019600388901b60f8161c191681555b5050505050600190811b01905550565b6118d681856113bc565b60406020820152816040820152818360608301376000818301606090810191909152601f909201601f1916010192915050565b67ffffffffffffffff8311156119215761192161176d565b6119358361192f8354611783565b836117bd565b6000601f84116001811461196957600085156119515750838201355b600019600387901b1c1916600186901b1783556119c3565b600083815260209020601f19861690835b8281101561199a578685013582556020948501946001909201910161197a565b50868210156119b75760001960f88860031b161c19848701351681555b505060018560011b0183555b5050505050565b604081016119d882856113bc565b61139f60208301846113bc565b634e487b7160e01b600052603260045260246000fd5b634e487b7160e01b600052601160045260246000fd5b60ff8181168382160190811115610de457610de46119fb565b600060018201611a3c57611a3c6119fb565b506001019056fea2646970667358221220141be4aa3e846195e34f3c08ca70ee349ed3b33f7cb53665e621d322f13cc25364736f6c63430008140033",
  "linkReferences": {},
  "deployedLinkReferences": {}
}